:020000040000FA
:06000000020A820201C7A2
:03002B000208BD0B
:030033000206D9E9
:030043000207723F
:030053000200F8B0
:03006B000206BFCB
:1000830002015C0101FF05030148104810481048B4
:1000930010040FFE0E4810611E00000000C31E0076
:1000A3000000000C0000000C00010000161200000C
:1000B30000000000D012000000000000000000005B
:1000C300FFFF0101010022050000007305E803643E
:1000D300006400B801020200000002050207051EC9
:1000E30002051E0A03B80B02010277160296511885
:1000F3000002020612C0E074F21203E0A2AFE4337E
:10010300FED2AFE5A7FFE5A1F5085F541060061224
:10011300191875A1EFE5085F5408600812191E75D8
:10012300A1F7802BEFA2E0C0D0E508A2E092F01285
:1001330009BF158182F05017906198E0F890084B41
:10014300E0C398A2D265D0335002E8F075A1FEEE69
:10015300A2E092AF7F0102043FC0E074F21203E019
:10016300A2AFE433FED2AF9061A4E0F8759B00E543
:100173009158540860087591F7121966802AE59121
:1001830058541060087591EF12196C801BE8A2E0B7
:10019300C0D0E591A2E092F01209BF158182F05020
:1001A30007E0C2E0F0121ABC9061A3E0F8E5E95859
:1001B3005404600E121A9275E9FB906193E0A2E673
:1001C30040F2808BC0E074F21203E0A2AFE433FE8E
:1001D300D2AF9061A5E0F8E5BF585404600675BF3F
:1001E300FB121AD4020152C3E498F8E499F91202FB
:1001F3002B8026C3E49AFAE49BFBE920E7E9120289
:100203002BE498F8E499F922C3E498F8E499F912F5
:10021300022BE498F8E499F9C3E49AFAE49BFB22ED
:10022300EB20E7CFE920E7E0B90010BB0008E88A3C
:10023300F084F8AAF022E4FBC8FA22EB70227B10C8
:10024300C833C8C933C9335007C39AC3DBF2800626
:100253009A50012ADBEAC833F4C8C933F4C9FA2235
:1002630075F008E4C833C8C933C933C99AC99B5068
:1002730004C92AC93BD5F0ECFBC833F4C8E4C9FA76
:1002830022080808EAC0E0EBC0E086F0E7A4FA1809
:100293000986F0E7A42AFA180986F0E7A42AFA18CF
:1002A3000986F0E7A42AFA1986F0E7A4FBE5F02A09
:1002B300FA190886F0E7A42BFBE5F03AFA19088649
:1002C300F0E7A42BFBE5F03AFA18180986F0E7A447
:1002D300C5F02BFBE43AFA1908E7C5F0C6A426F6E5
:1002E300E5F03BFBE43AFA1886F0E7A4F6E5F008FC
:1002F30026F6E43B08F6E43A08F6D0E0FBD0E0FA51
:1003030022E4CFC0E0E4CEC0E0E4CDC0E0E4CCC062
:10031300E075F020C3E633F608E633F608E633F675
:1003230008E633F6181818EC33FCED33FDEE33FE14
:10033300EF33FFC3EC9709ED9709EE9709EF971990
:100343001919400FFFEC97FC09ED97FD09EE97FE95
:10035300191906D5F0BEECF709EDF709EEF709EF29
:10036300F7191919D0E0FCD0E0FDD0E0FED0E0FF92
:10037300222518C582C0E0E51934FFC583C0E0E536
:1003830018C3958224F810AF0885831985821880D5
:1003930008858319858218D2AFCEF0A3E520F0A398
:1003A3007808E608F0A3DEFAEFF0A3E58124FAF873
:1003B300E608F0A3E608F0A3E608F0A30808E608B9
:1003C300F0A3E608F0A315811581D0E0FED0E0F894
:1003D300158115811581E8C0E0EEC0E022C0D0256B
:1003E30018C582C0E0E51934FFC583C0E0E518C332
:1003F300958224F310AF08858319858218800885B8
:100403008319858218D2AFC8F0A3E9F0A3EAF0A359
:10041300EBF0A37908E709F0A3D8FAECF0A3EDF029
:10042300A3EEF0A3EFF0A3D0E0F0A3D0E0F0A3D0CD
:10043300E0F0A3E520F0A3E5F0F0A322851983857E
:100443001882E0C0E0A3E0F9A3E0FAA3E0FBA378FD
:1004530008E0F608A3DFFAE0FCA3E0FDA3E0FEA3B7
:10046300E0FFA3E0C0E0A3E0C0E0A3E0F5D0A3E099
:10047300F520A3E0A3F5F010AF0885831985821852
:100483008008858319858218D2AFD082D083D0E0CB
:10049300F8D0E032120AE4B900030204D9E490036D
:1004A3000178A3790A8002F0A3D8FCD9FA900CA3AF
:1004B300AA82AB83900086787379018015E493A3B5
:1004C300AC82AD838A828B83F0A3AA82AB838C82B6
:1004D3008D83D8E9D9E775825C758390740312081C
:1004E3003575826875831D74001208350875F01020
:1004F3008E1A8F1B85821F85831E8518828519831B
:10050300E0CEA3E0CF851F82851E83EBC9EAC8ED49
:10051300CBECCAC3E833C8E933C9EA33CAEB33CBFC
:10052300C3EA9EF51DEB9FF51CB35004AB1CAA1D3B
:10053300EC33CCED33CDD5F0DAAE1AAF1B22D0833A
:10054300D082ECC0E0EDC0E0E493A3FCE493A3FD10
:10055300ED4C600D120619EC24FFFCED34FFFD8019
:10056300EFE493A3FCE493A3FDED4C600D12071D90
:10057300EC24FFFCED34FFFD80EFD0E0FDD0E0FC88
:10058300E493A3C0E0E493C0E02285198385188235
:10059300E0A3FEE0A3F5207808E0A3F608DFFAE085
:1005A300A3FFE0A3C0E0E0A3C0E0E0A3C0E0E0A3BA
:1005B300C0E0E0A3C0E010AF0885821885831980EE
:1005C30008858218858319D2AFD083D08202083B75
:1005D300D083D082E9C0E0E493A3C386F0C5F0954D
:1005E300F0F908E493A386F0C5F095F0700BE4935B
:1005F300A3C3994005E9048002A3E475F002A4258E
:1006030082F582E5F03583F583D0E0F9E493A3C066
:10061300E0E493C0E022C0E0C3E49396087401933E
:100623009618400FE4936670080874019366187077
:10063300007019A3A3C3E49396087401939618A3B7
:10064300A3400DD0E0D0E0D0E002057DA3A3A3A397
:10065300A3A3D0E022D083D082C5F0E493A3C5F056
:10066300C395F0F5F0E493A3C395F04005E5F004DA
:100673008001E475F002A42582F582E5F03583F567
:1006830083E493A3C0E0E493C0E022740480047481
:10069300028000CCC0E0EDC0E0E518C39CCCAD19EE
:1006A30050011D10AF068C188D1980068C188D19FA
:1006B300D2AF1207B7D0E0FDD0E0FC22C0E074F265
:1006C3001203E0E589A2E150031217F2758900C213
:1006D300C57F0102043FC0E074F21203E0E58BA280
:1006E300E050031217F2758B00C2E880E4740280B5
:1006F30000CCC0E0EDC0E0E518C39CCCAD195001BF
:100703001D10AF068C188D1980068C188D19D2AF69
:10071300120795D0E0FDD0E0FC22C0E0C0F088F0E5
:10072300E4936670080874019366187000A8F0A338
:10073300A3700BD0F0D0E0D0E0D0E002057DA3A3FE
:10074300D0F0D0E022D083D082CCC0E0E493A36089
:10075300061208161470FAE493A36006120907142C
:1007630070FAD0E0FCE493A3C0E0E493C0E022C0BD
:10077300E074F21203E0A2AFE433FED2AFC2C0E5ED
:10078300D1A2E4500312188EEEA2E092AF7F0102D1
:10079300043FCAC0E0E493A3C582CCC582C583CD20
:1007A300C583F0A3C582CCC582C583CDC583DAE5F5
:1007B300D0E0CA22CAC0E0E0A3C582CCC582C5830B
:1007C300CDC583F0A3C582CCC582C583CDC583DAED
:1007D300E6D0E0CA22700908080822601618181823
:1007E300C6C333C608C633C608C633C608C633C62F
:1007F300D5E0EA22C008C3E096F50808A3E09642D4
:100803000808A3E096420808A3E09645087001D3C0
:10081300D00822C0E0E493A3D39C5010E493A3C375
:100823009C400AD0E0D0E0D0E0020765A3A3A3D0A8
:10083300E022C09FF59FE473D09F22D083D082C073
:100843009FE493C0E0740193C0E0740293F59F2288
:100853007404800A74038006740280027401C0E089
:10086300F40412086ED0E0120ABF222518F5821094
:10087300AF08F518400215198008F518400215193C
:10088300D2AF85198322BB0102E722C082C08389CC
:10089300828A83BB0003E08002E493D083D0822268
:1008A300C0D0251810AF08F518500205198008F5B7
:1008B3001850020519D2AFD0D022C0E0C0D0E8C092
:1008C300E0E5A8D2AFC2C7A2E792AFD0E0F8D0D09C
:1008D300D0E0326016080808C6C313C618C613C68C
:1008E30018C613C618C613C6D5E0EA22C3E0C696D7
:1008F300F608A3E0C696F608A3E0C696F608A3E0BA
:10090300C696F622C0E0E493A36C7009D0E0D0E071
:10091300D0E0020765A3A3D0E022251810AF08F5A5
:1009230018400215198008F51840021519D2AF2294
:10093300E76670100809E766700A0809E76670043D
:100943000809E76622E066701008A3E066700A08EB
:10095300A3E066700408A3E06622C3E09608A3E060
:100963009608A3E09608A3E096A2D265D03322C3EB
:10097300E096F008A3E096F008A3E096F008A3E061
:1009830096F022E026F008A3E036F008A3E036F064
:1009930008A3E036F022E627F60809E637F6080949
:1009A300E637F60809E637F622E026F608A3E0362E
:1009B300F608A3E036F608A3E036F622C0E0E8C066
:1009C300E0E58124FCF8E6A2E7D0E0F8D0E022E6F7
:1009D30047F60809E647F60809E647F60809E64731
:1009E300F622E657F60809E657F60809E657F60829
:1009F30009E657F622E056F608A3E056F608A3E008
:100A030056F608A3E056F622E056F008A3E056F0A7
:100A130008A3E056F008A3E056F022700422600D0C
:100A230018C6C333C608C633C6D5E0F41822E4C3D8
:100A330096F608E496F608E496F608E496F622603D
:100A43000D08C6A2E713C618C613C6D5E0F322C61F
:100A5300F4C608C6F4C608C6F4C608C6F4C622C35C
:100A6300E7960809E7960809E7960809E79622C377
:100A7300E09608A3E09608A3E09608A3E096227503
:100A8300D00075814075180175190300020497E0C1
:100A9300F608A3E0F608A3E0F608A3E0F622600C4C
:100AA30008C6C313C618C613C6D5E0F422E6F00879
:100AB300A3E6F008A3E6F008A3E6F022CAC0E0E646
:100AC300F0A308DAFAD0E0FA22E0FAA3E0FBA3E00D
:100AD300FCA3E0FD22EAF0A3EBF0A3ECF0A3EDF01E
:100AE30022E5C754F84401F5C77901222518F58298
:100AF300E43519F58322C2AF75D69F020000221296
:100B0300083E9EB20112083E95B30112083EE4B5B9
:100B13000112083E37B70112083EDAB70112083E48
:100B230025B90112083E43B90112083E8E5800123E
:100B3300083EA0580012083EF2580012083E5359CE
:100B43000012083EDD590012083E815A0012083E89
:100B5300D55A0012083EEE5A0012083E145B0012EA
:100B6300083E4F5B0012083E935B0012083EBA5BDF
:100B73000012083E0B5C0012083EBB5C0012083EEC
:100B8300735D0012083E3B5E0012083E185F0012C0
:100B9300083E9E5F0012083EAD5F0012083EB85F3C
:100BA3000012083EC1600012083ED2600012083EE7
:100BB30048610012083EDA610012083E32620012F8
:100BC300083EF8620012083E29630012083E6E6375
:100BD3000012083E7B630012083E0F650012083EB8
:100BE30072660012083E8E670012083EF869001212
:100BF300083E036A0012083E0D6A0012083E186A96
:100C03000012083E226A0012083E2C6A0012083EB7
:100C1300376A0012083E426A0012083E736A0012E5
:100C2300083E976A0012083EBB6A0012083E206B1A
:100C33000012083E646B0012083E806B0012083EEF
:100C4300F76B0012083E2F6C0012083E7B6C0012FB
:100C5300083ED86C0012083EBA6E0012083E406F80
:100C63000012083E11700012083E21730012083E64
:100C730076730012083EA2730012083EEE7400124F
:100C8300083E3E750012083E93750012083E9476A6
:100C93000012083E2C770012083EAE770012083E81
:100CA3004E780012083ED9200012083E122100128D
:100CB300083EEC220012083E2B230012083E752347
:100CC3000012083E1A240012083E79240012083E3E
:100CD300AD240012083E1A250012083E37260012E2
:100CE300083E3F270012083ED5270012083E1C2B62
:100CF3000012083EC52B0012083EA12C0012083E2C
:100D0300022D0012083E1F2E0012083E4930001229
:100D1300083E00310012083E0A310012083E3D3100
:100D23000012083E04320012083E9F320012083EB1
:100D330004330012083E2D330012083E4F330012D5
:100D4300083E7E350012083E55360012083E99369D
:100D53000012083E06370012083EC1370012083E53
:100D6300F3370012083E37380012083E6A38001283
:100D7300083EBF380012083E14390012083EA83955
:100D83000012083E0A3A0012083E723A0012083E68
:100D93001B3C0012083E033D0012083E453E001274
:100DA300083E73400012083E33410012083E62437E
:100DB3000012083E05440012083E43440012083E58
:100DC300EF450012083E03460012083E0D4600128E
:100DD300083E37460012083E43460012083E62466C
:100DE3000012083E19470012083E58470012083EF9
:100DF30062470012083E16480012083E15490012C9
:100E0300083E0E4A0012083EAB4A0012083E4D4B04
:100E13000012083E644B0012083E9B4B0012083E32
:100E2300B94B0012083EFD4B0012083E224C001243
:100E3300083E084D0012083E744D0012083EEE4D68
:100E43000012083EFD4E0012083E3C500012083EC0
:100E53009E500012083E58510012083E7B5100126A
:100E6300083E4F520012083E9A520012083EDC52CE
:100E73000012083E33530012083E6A530012083E24
:100E830098530012083ED1530012083EF653001245
:100E9300083E7E540012083EA1560012083E005739
:100EA3000012083E94570012083E00580012083EF4
:100EB30054580012083EACB20312083EEBB20312C0
:100EC300083E88BA0112083EE2BA0112083E3EBB50
:100ED3000112083E8ABB0112083EA5BB0112083E5F
:100EE300D6BB0112083EF3BB0112083EFFBB011241
:100EF300083E73BD0112083E8CBD0112083EF3BDCE
:100F03000112083E06BE0112083E14BE0112083E3D
:100F1300C8BE0112083EACBF0112083EB2C00112A6
:100F2300083E38C10112083E42C10112083EAFC15A
:100F33000112083EC6C10112083EF8C10112083E63
:100F430031C20112083E5BC20112083EBCC201124B
:100F5300083EDCC20112083EFAC20112083E40C339
:100F63000112083E66C40112083EB3C40112083ED2
:100F7300E2C40112083E58C50112083E80C50112A1
:100F8300083EB9C50112083EC7C50112083E1FC677
:100F93000112083E6EC60112083EADC60112083E9C
:100FA300DDC60112083E09C70112083E14C701122B
:100FB300083E32C70112083EF4C70112083EFEC7BD
:100FC3000112083E39C80112083E4FC80112083EFB
:100FD30058C80112083EADC80112083EC1C801122B
:100FE300083ECFC90112083EE2C90112083EF7C903
:100FF3000112083E99CA0112083E1CCB0112083E99
:10100300DACB0112083EE5CB0112083E0BCD0112EB
:10101300083E27CD0112083E79CD0112083EB8CD16
:101023000112083ECDCD0112083E0FCE0112083E3B
:101033005CD00112083EDAD00112083E4DD10112F4
:10104300083E6FD30112083E87D30112083E8AD3AC
:101053000112083E96D30112083EAAD30112083E9C
:10106300B2D30112083EE5D30112083E95D4011212
:10107300083E0BD50112083E7ED50112083E32D63A
:101083000112083EE7D60112083E06D70112083EB8
:10109300A6D70112083EB2D70112083EDDD70112CE
:1010A300083EE0D70112083E4AD80112083E72D921
:1010B3000112083E4ADA0112083ED5DA0112083E4F
:1010C300EEDB0112083EABDC0112083EE4DC011248
:1010D300083E15DD0112083EB5DD0112083EE5DDCF
:1010E3000112083EC0DE0112083E59DF0112083E1C
:1010F300E4DF0112083E95E00112083E17E10112F8
:10110300083E49E10112083E8AE10112083E71D20C
:101113000212083ED6D20212083E13D30212083E30
:1011230062D30212083E78D50212083E5BD7021240
:10113300083EC5DA0212083E00DB0212083E22DB3B
:101143000212083E85DB0212083EB9DB0212083E9A
:10115300DCDB0212083E09DC0212083E65DC0212E7
:10116300083E5BBC0212083ED9BC0212083E0FBD0A
:101173000212083E7BBD0212083EEEBE0212083E7A
:101183000ABF0212083E4FBF0212083EDDBF021221
:10119300083E36C00212083E63C10212083E75C201
:1011A3000212083ED2C20212083E3EC30212083E99
:1011B3009FC30212083EE0C30212083E8DC402120E
:1011C300083E9FC50212083ECAC50212083E15C654
:1011D3000212083E5CC60212083EEEC60212083E28
:1011E300A9C70212083E9FA60312083EB0A6031227
:1011F300083E01A70312083E46A70312083EF0A7C4
:101203000312083E05AF0312083E367E0012083E65
:101213008E7F0012083E20C80212083EC5C8021283
:10122300083EE5C80212083E05C90212083E19C964
:101233000212083E71C90212083EA1C90212083EF9
:1012430022CB0212083EC8CB0212083EAACC0212DD
:10125300083EFBCC0212083E3ECD0212083E81CD71
:101263000212083EE7CD0212083E08CE0212083EE3
:1012730094CE0212083EC5CE0212083E39CF0212A6
:10128300083EE7D00212083EC1D10212083E03D243
:101293000212083E5DD20212083EB5A10312083EB7
:1012A300D6A10312083E0CA30312083E36A3031271
:1012B300083E9B8D0312083E158E0312083E208EB6
:1012C3000312083E418E0312083E1EB00212083E6E
:1012D30021B00212083EDBB00212083E06B1021230
:1012E300083E4DB10212083E72B10212083E93B19C
:1012F3000212083EC7B10212083E00B20212083EB3
:1013030029B30212083E60B30212083E80B30212F0
:10131300083E1BB40212083EE0B40212083E17B5A1
:101323000212083E8CB60212083E2FB70212083E84
:1013330028B80212083E51B80212083EA5B802129C
:10134300083E6BB90212083E99B90212083E2EBB41
:101353000212083EAFBB0212083EE2BB0212083E75
:101363000DF60112083E17F60112083E63F601124C
:10137300083ED1F60112083EF2F60112083E59A9C1
:101383000112083EB9F70112083E4DFA0112083E58
:1013930056FA0112083EA9FA0112083ED2FA0112C6
:1013A300083E39FB0112083ECAFB0112083E0CFC41
:1013B3000112083E56FC0112083EB5FC0112083E1C
:1013C30046FD0112083E85FD0112083EC4FD0112CF
:1013D300083EF9FD0112083E0BFE0112083E82B2DF
:1013E3000112083E3CFE0112083E45FE0112083E72
:1013F300FBFE0112083E3BFF0112083E27F40212D6
:10140300083EFAF40212083E14F50212083E25F5CE
:101413000212083E3AF70212083E59F70212083E3A
:10142300839F0312083EB99F0312083E02A00312D2
:10143300083E52A10312083EBFE10112083EFEE23C
:101443000112083E3AE30112083EF9E40112083E94
:1014530022E50112083EB5E70112083EF9E7011241
:10146300083E82E90112083E1AEA0112083E82EAA6
:101473000112083E23EB0112083E65EB0112083E00
:10148300A5EB0112083E30ED0112083EA0EE011259
:10149300083EC5F00112083EF3F00112083E1AF1AE
:1014A3000112083E23F10112083E7EF10112083EAB
:1014B30011F20112083E2FF50112083EB0F5011298
:1014C300083EE8FF0212083E61B20312083E83FCA5
:1014D3000212083E96FC0212083E33FD0212083E39
:1014E3006EFD0212083E89FD0212083EAEFD021295
:1014F300083EF3FD0212083E24FE0212083E55FE8A
:101503000212083EDBFF0212083E68A90312083EDE
:101513009EA90312083EBAA90312083EFCA90312AE
:10152300083E0CAA0312083EA1AA0312083E0A872A
:101533000312083EBA870312083E6B880312083E63
:10154300C4880312083EB3890312083E8FA0021217
:10155300083EE7A00212083E91A10212083E39A2FA
:101563000212083E96A20212083EEFA20212083EA1
:1015730003A30212083ECDA40212083E48A502129C
:10158300083E72A50212083E2FA70212083E4AA780
:101593000212083E99A70212083EAFA70212083EA4
:1015A300BCA70212083EF0A70212083E06A80212C8
:1015B300083E8CA80212083E9BA80212083EF4A81B
:1015C3000212083E4EA90212083E9CA90212083ECE
:1015D300A6AA0212083E28AD0212083EC2AD0212AC
:1015E300083E04AE0212083E99AE0212083EB6AEA1
:1015F3000212083EB9AE0212083EBCAE0212083E09
:101603002FAF0212083E4AAF0212083E76AF021213
:10161300083EB1AF0212083EB4AF0212083EC7AF94
:101623000212083EEEAF0212083E63B10312083EF7
:101633006FB10312083EA9B10312083EBE90021215
:10164300083EE9900212083EB5910212083E3A9212
:101653000212083EA3920212083EEF920212083EC3
:101663006E930212083E00940212083E8C940212FA
:10167300083ECE940212083E3A990212083EBA9AE4
:101683000212083EF99A0212083EC29B0212083E59
:10169300769C0212083E269E0212083EB29E021259
:1016A300083E00800212083EBA800212083E2C81D6
:1016B3000212083E3B810212083EB5810212083E27
:1016C30024820212083E2E830212083E578302121E
:1016D300083EF7830212083E45840212083EB58491
:1016E3000212083EE9850212083EC5860212083E30
:1016F30036870212083EB3880212083E7589021229
:10170300083E108A0212083E6B8A0212083ED68AED
:101713000212083EDA8B0212083E9B8D0212083E2B
:101723003A8E0212083EAC8E0212083E698F0212F4
:10173300083E1B930312083E6F930312083EC793A0
:101743000312083E12940312083E74940312083ED7
:101753000D950312083E75950312083E81950312F9
:10176300083E2D9D0312083E5E9D0312083E189EFF
:101773000312083E7E9E0312083EEF9E0312083EAC
:10178300E1900312083E6D920312083EF8AF031274
:10179300083E09B00312083EA9B00312083E13A580
:1017A3000312083E21A50312083E38B40312083E73
:1017B30064FF0112083E74FF0112083E8FFF0112FD
:1017C300083EF0FF0112083E03AE0312083E88AE46
:1017D3000312083EECAE0312083EF1AC0312083EBE
:1017E30013AD0312083E7DAD0312083E88AD03120C
:1017F300083ECCAD0312083EB2F80212083EC0F810
:101803000212083E01F90212083E1BF90212083EB9
:10181300A5F90212083ECAF90212083EE7F90212BC
:10182300083E04FA0212083E29FA0212083E51FA4F
:101833000212083E99FA0212083E14FB0212083EF5
:10184300C4FB0212083E00800312083E0E800312FE
:10185300083E88800312083E6C810312083E2583EC
:101863000312083EDD7F0012083E01790012083E94
:101873006E790012083E2F7A0012083E9F7A0012FA
:10188300083EA87B0012083E207D0012083E847D9E
:101893000012083ED97D0012083EE27D0012083E88
:1018A300F17D0012083E047E0012083E1A7E0012EB
:1018B300083E237E0012083E08E60212083E5DE65B
:1018C3000212083E59E80212083E8BE80212083E53
:1018D300ADE80212083EC6E80212083EDFE8021233
:1018E300083EE9E90212083E84EA0212083E07A80C
:1018F3000312083E2BA80312083E44A80312083E15
:1019030077A80312083EA8A80312083ED6A803121C
:10191300083E38A90312083E47A90312083E51A9FD
:101923000312083E5EA90312083EBC950312083E4B
:10193300E2950312083E1F960312083E2E960312E9
:10194300083E4D960312083EB5960312083EBE9616
:101953000312083E1D970312083E41970312083EE7
:1019630000980312083E0D980312083E1E980312B6
:10197300083E39B30312083E56B30312083EAFEFD5
:101983000212083E07F10212083E14F10212083E49
:1019930027F10212083E46F10212083E5CF10212E0
:1019A300083E70F10212083EE5F10212083E4AF2C7
:1019B3000212083EFAF20212083ECFF30212083E68
:1019C300DFF30212083EEEF30212083ECAB003121E
:1019D300083EEEB00312083E16B10312083E3EB1B4
:1019E3000312083ECE9A0312083EF59A0312083EEC
:1019F300169B0312083E7B9B0312083E4C9803126E
:101A0300083E65980312083E71980312083E8598B4
:101A13000312083EA3980312083EAD980312083E32
:101A2300B7980312083ECA980312083E2C99031272
:101A3300083E65990312083E94990312083EE29901
:101A43000312083E319A0312083E4C9A0312083ED1
:101A5300569A0312083E7D9A0312083EC39A031254
:101A6300083EE6B10312083E02B20312083E1EB45A
:101A73000312083EB1DC0212083EDBDC0212083E10
:101A8300F7DC0212083E0ADD0212083E20DD0212D4
:101A9300083E7DDD0212083EB0DD0212083EF1E190
:101AA3000212083E17E30212083E4AE30212083EFE
:101AB30096E30212083ED8E40212083E00E5021241
:101AC300083E15E50212083E25E50212083E69E5C7
:101AD3000212083ECAE50212083EDAE50212083E87
:101AE300ABAA0312083EC6AA0312083EEFAA0312CA
:101AF300083E09AB0312083E2EAB0312083E4DAB62
:101B03000312083E65AB0312083E93AB0312083E73
:101B1300ADAB0312083EF5B20312083E8A830312EB
:101B2300083E91830312083E9D840312083ECD8430
:101B33000312083EF3840312083E16850312083E7F
:101B430038850312083E72850312083ED8850312B6
:101B5300083E11860312083E5D860312083E8A86FC
:101B63000312083EAA860312083E86A30312083E08
:101B730098A30312083E83A40312083E10A5031280
:101B8300083EDEAB0312083E50AC0312083E8EAC97
:101B93000312083ECFAC0312083E888A0312083EA4
:101BA300A48A0312083EF38A0312083E0F8B031222
:101BB300083E408B0312083E508B0312083E3C8CB8
:101BC3000312083E468C0312083E538C0312083E50
:101BD300638D0312083E778D0312083E808D031236
:101BE300083EC3EA0212083E08EF0212083E0DEF58
:101BF3000212083EABB30312083E75B30312083E4C
:101C0300D8B30312083E00B40312083EADA8011274
:101C1300083EFEA60112083EB9A40112083E40A4E4
:101C23000112083EE7A30112083E7BA30112083EFE
:101C330052A30112083E45A10112083E11A101124F
:101C4300083EDEA00112083EC2A00112083EE89F32
:101C53000112083EA09F0112083ED59D0112083EC5
:101C6300559D0112083E529D0112083E599C0112D6
:101C7300083E279C0112083E649B0112083E8F997F
:101C83000112083E20990112083EF2980112083E03
:101C930012B20112083EC9B10112083E81B101120C
:101CA300083EBFB00112083E32B00112083EEF9861
:101CB3000112083EDC980112083E74980112083E96
:101CC30063980112083E25B00112083E44970112A1
:101CD300083E0E970112083ED1960112083E7296F5
:101CE3000112083E33AD0112083E1DFE0112083EEB
:101CF30041960112083EFC920112083EED91011239
:101D0300083E7C910112083E41910112083E0C915C
:101D13000112083E00910112083E60900112083E34
:101D2300A78F0112083E7A8D0112083E068B01121D
:101D3300083EC48A0112083E8F890112083E448975
:101D43000112083E76880112083ECD870112083E33
:101D530069870112083EA3870112083E85AA011272
:101D6300083E09F70100000080FBE47300013636EA
:101D73000101000102010001030100010401060643
:101D830005020000070100340801000F09040101E6
:101D93000D0100FF0E08000017020000190100FFEB
:101DA3001A0100011B0100FE1C0100081D020000B6
:101DB3001F01000120010001210200002301000F87
:101DC300240200002601000127010008280200FF69
:101DD3002A0100072B0102402C0100002D01000104
:101DE3002E0100012F0100FF30010B1C3108000000
:101DF3003A0100083B01000F2F01000001017101AE
:101E03000101010111010101310101010101800100
:101E1300100161013B00140063017301720162014F
:101E230043010001130106013D01350004011201C4
:101E33000001000100010001040104013301330129
:101E43003C0144013201360000010001650100013B
:101E530035008101000105018201830100010300B6
:101E63007100300160001100700031022003500442
:101E73008000100061000000140063007300720012
:101E8300620043000000130006000000000004008D
:101E930012000000000000000000040004003700EE
:101EA30037003C0244000000000000000000650011
:101EB30000003500810000000500000083000000E1
:101EC300010371030103010301030103010322035E
:101ED30002030103100300030003000300030003D4
:101EE300000300034203000324030603000300036B
:101EF3000403120325032303250323030403040319
:101F0300000300030003440300030003230300034F
:101F13006503210035038103000305030003000368
:101F23000003030271023001600211027002010218
:101F3300020202028002100261023A0041006302BF
:101F430073027202620243020002130238000002AB
:101F53000002040212020002000200020002040254
:101F63000402370037003C02440200023900000239
:101F730000026502000235028102000205028202AC
:101F83008302000236000100060000000F0000007B
:101F93000000000000000000000003FFFF00000439
:101FA30003FFFF0000FFFF0FF4010005C40403203B
:101FB300000100140B000000000000000003010FEB
:101FC3000100DE160200541603005A1604006016C0
:101FD300050066160600721611008A161400901684
:101FE30015008416FFFF00005E0F8E0F640F6A0F4B
:101FF300880F7C0F760F940F9A0FA00FAC0F700F02
:10200300580F520F0A2A0D02F40C05060D07FA0C9D
:102013000CD60C0DE80CFF000000160F00000B158A
:102023000B020002220F3200000648105A10601003
:10203300280F6610220F2E0F140AE5D5C5B5A5A5E6
:102043009585857565A810C610CC10AE10BA10B46E
:10205300100C0E020B040B0A0708000F3030171880
:102063001921301B1D1F30000119161816161523D0
:10207300030000034948424D181725050230301666
:10208300181920231A1C1E3000383C3E363B3B35C2
:102093002B432C9C106C1072107E107810820FA6AC
:1020A3000FC010B20FB80F020402010101010902AF
:1020B30000000000000000BE040A3B2015000E00D3
:1020C3000400FA06E8032800040C0A03090CFF1EA7
:1020D3001E08040F100574F7120374E99003B0F09F
:1020E300900365E4F0121B6A9003B5E4F0A3F0904B
:1020F30003B1F0A3F0120E62121B70900334E4F0EC
:10210300A3F09020D693FA7902121BD0024D6F747C
:10211300F2120374EAFEEBFF548060699003B0E0AF
:10212300F91213A28A088B09EA4509604F7C0080E3
:10213300010CEC75F003A4F8A9F0740728F5827478
:102143002039F583E493F4602CE493F88508828BBB
:1021530083E06870DCAA08EC75F003A4F87408281F
:10216300F582742039F583E493C0E0740193F58319
:10217300D082121D6DAA08AB09121396EEFAEF6412
:1021830080FB0222DFEF5420601D120D848A088B2E
:1021930009EA4509600A120CE8AA08AB091213966A
:1021A300EEFAEF642080DAEEA2E0501A90036AE0C0
:1021B300640F700B7900120CB2E960031222E2EE95
:1021C3006401FAEF80BB542070030222AD750C004A
:1021D3001237B48B09EA450970107C027D007A201E
:1021E3007B009003B0E0F91214EC7C0079047A00D0
:1021F3007B00120D608A088B098018850882850987
:1022030083A3A3A3A3A3A3A3A3A37401F0850A0891
:10221300850B09E5084509606D7C007904AA08ABC4
:1022230009120D608A0A8B0B750C01E5082404F86A
:10223300E50912355824FFF0A3E034FF12584B7020
:10224300CC850882850983A3A3A3A3A3A3A3A3A3E4
:10225300A3E0640170A5850882850983A3A3A3A3D2
:10226300A3A3E054047094850882850983A3A3A3E0
:10227300A3A3A3A3A3A37406F07AB7850882850951
:102283008312240E8087120D307C0079017A007B43
:1022930000120D608B09EA45097009E50C70057A97
:1022A3002012470EEE64200221C5EF5402600B1288
:1022B3000E5CEEFAEF6402022184EF5404601912FB
:1022C30048A51247C57901900363124B29120BF8F5
:1022D300EEFAEF64040221847A007B000225159054
:1022E3000CED122BAC120CCA22C082C08374EA120A
:1022F300091D851882851983AA82AB83794B121B2A
:10230300A67408120AEF7402F07409120AEFAA8283
:10231300AB837950121BA67413120AEFE4124CF824
:10232300121BC47416023CD274F712037474E112C4
:10233300091DEAFEEBFFEE4F603385188285198392
:10234300AC82AD83120DA87406120AEFE0601E740E
:1023530017120AEFE0FD7401120AEFE0FCEEFAEF48
:10236300FB7900120B20E9600479A4800279000252
:102373004D6A74F6120374EAFEEBFF8E828F83A319
:10238300A3A3A3A3A3E05440601B1251E71224DCD0
:1023930060067AFF7BFF801A8E828F8312395EFA82
:1023A300A3E0FB8003120DCC74FE6A700374FF6B11
:1023B30060411251E7124752120E20E98E828F8339
:1023C3006006122407E480051224077401F07CB828
:1023D3007D0C8E828F83124B29121BCAE9F508707C
:1023E30015EE4F60097901EEFAEFFB120D3CA908D7
:1023F3000247837508CDAA088E828F8312240EE9C3
:1024030060DF80EAE0240D123E2D22E0240C123E10
:102413002DE0F9120CC42274F6120374E9FEEAFFEC
:102423007A0F7B00121390EA4B60198A828B8374B4
:102433000CF0EEA3A3F0EF8A828B83A3F01247AED6
:102443007900802FEEF9120D668A088B09A808A976
:1024530009E849601C88828983A3A3A3A3A3A3A338
:10246300A3A37406125472E0F9120C7CEEF9120D58
:10247300427910024783C082C08390036AE0640FED
:102483007014EA4B6010900365E064086005E06433
:1024930004700312249C023CFCEAFCEBFD7A017BF2
:1024A300009003B0E0F91214E622C082C0837900E1
:1024B300EA241DF582EB12395B24FD600B146008DE
:1024C30024FD600424FD700109023CFC8E828F838D
:1024D300A3A3A3A3A3A3A3A3A31224E0221239A318
:1024E300FB120E20E9228E828F83A3A3A3A3A3A3AF
:1024F300A3A3A31224E06402228E828F83A3A3A347
:10250300A3A3A3A3A3A3123CF3900356E068221250
:1025130008A37F0602058D74F412037474FD120977
:102523001D8A088B098A828B83A3A3E0F9120D66A7
:102533008A0A8B0BAE0AAF0BEE4F7003022621857E
:102543000882850983A3E064F160308508828509E8
:1025530083A3E064CD6024850882850983A3E064B6
:102563001A6018850882850983A3E064E9600C85F5
:102573000882850983A3E064E170087900120D3CA9
:10258300E9706C850882850983A3E0C0E0740212B8
:102593000AEFD0E0123CD7EEF0A3EF123002851819
:1025A30082851983AA82AB837005120BE080031224
:1025B3000E087402120AEFE064E970338E828F838F
:1025C30012262D750A01780A12085F750AE9780A3E
:1025D30012085FE508240CF582E509122AF4122F8C
:1025E300DFFCA3E0FD8A828B83122FF91208A38EEE
:1025F300828F83A3A3A3A3A3A3A3A3A3E0640270D3
:10260300108E828F83A3A3A3A3A3A3A3A3A3740660
:10261300F0850882850983A3A3E0F9120D42120D08
:1026230030900CF11222E5022BB1E0F8A3E0F9E8B7
:10263300FAE9FB2274F4120374EAFEEBFF75080057
:102643008E828F83A3A3A3A3A3E060427508088EA1
:10265300828F83A3A3A3A3A3A3A3A3123C068B0BE1
:10266300EA450B601075082C8E828F83A3A3A3A366
:10267300A3E0D2E0F08E828F83A3A3A3A3A3E054AD
:102683000364016003022720430811022720EE247C
:1026930018122BBE6033EE241A122BBE700F1224B5
:1026A300FC7003A3E06970757508228070EE241B2B
:1026B300F582EF122725241AF582EF12300AEE2451
:1026C3001912521B120C6A80541224E97003750804
:1026D300011224FC7003A3E0697006E508D2E1F55A
:1026E30008E50860158E828F83A3A3E07006E508D2
:1026F300D2E58004E508D2E6F5081224CF64017020
:1027030006E508D2E0F5088E828F83A3A3E0600D6F
:1027130012273364016006E508C2E0F508A9080240
:102723002BB612394912272C22E0FCA3E0FDEE223E
:1027330012394312397BF9120E0EE922C082C0838B
:1027430079018A828B83A3A3E0C394024001198A8F
:10275300828B83A3A3A3A3E0C39402400279008ADC
:10276300828B83A3A3A3A3A3A3A3A3A3E064F8706F
:1027730003A3E0F460458A828B83A3A3A3A3A3A34B
:10278300A3A3A3E064F97003A3E0F4602E8A828B11
:1027930083A3A3A3A3A3A3A3A3A3E064FA7003A3A4
:1027A300E0F460178A828B83A3A3A3A3A3A3A3A3A9
:1027B300A3E064FB7003A3E0F4700279008A828BC8
:1027C30083A3A3A3E0F8900353E0686002790002B7
:1027D3003CFC74F012037474DE12091DEAFEEBFF75
:1027E3008E828F83A3A3A3A3E0600E900CEF124706
:1027F3007A6006900CEF1222E57403120AEFAC82A2
:10280300AD838E828F83A3A3A31247FC125035E9B5
:10281300600F7403120AEFAA82AB83120CE2E97011
:10282300087901121B7C022AE9EE241B12394E742B
:1028330010120AEF1247C57409120AEFE0602174FF
:102843001A120AEFE0FD7404120AEFE0FC8E828F85
:1028530083124B277901120B20E96004790280C3AC
:102863007403120AEFAA82AB83120CDCE9F50A7433
:1028730009120AEFE0702A90034DE0602474225598
:102883000A6422601C7442550A644270CF74201299
:102893000AEF122B07600A7420120AEF122B007042
:1028A300BBE9A2E650417403120AEFAA82AB83127A
:1028B3000CD0E970030228247420120AEF12395E47
:1028C3006403700F7420120AEFA312476CA3E06431
:1028D3000D60147403120AEFAA82AB83120E32E95D
:1028E30064017003022AE9EE242C122AF1122E1538
:1028F3007003A3E069701C750800780812085F78FC
:102903000812085FEE242E12521B122B0D122FF900
:102913001208A37409120AEFE070030229C6122BEE
:102923000D124B29120E868A088B09EA450970039A
:10293300022A637404120AEFE0F88E828F83A3A342
:10294300E028F8A3E03400F9E8240D122AF88A827B
:102953008B83A3A3A3E068601CE88A828B83A3A371
:10296300A3F090874E120ACC850882850983A3A31E
:10297300A3A3120AD87904E9120AEF1250122AF813
:10298300A3E034008882F583A3AA82AB83121D627D
:102993008A0C8B0D8C0E8D0F850882850983A3A36A
:1029A300A3A3780C1207F74003022AE990875E7805
:1029B3000C1209AC850882850983A3A3A3A3780C11
:1029C300120AB0900365E064046008E064096003E0
:1029D300022AE9E50AA2E54003022AA1EE242E1207
:1029E3002BBE851882851983F0EE242F122BBEC0CF
:1029F300E07401120AEFD0E0F0EE2430122BBEC0D7
:102A0300E07402120AEFD0E0F07414120AEFE064EB
:102A1300017027740E120AEF123954EE2412122B8E
:102A2300BE687003A3E0697011740C120AEF1224DC
:102A3300F670077414120AEFE4F0EE2424122AF15C
:102A430012068E7404120AEFAC82AD837407120A65
:102A5300EFAA82AB83120BE674041208A3022AE9DD
:102A63009003AAE0640160030229C67420120AEFEE
:102A7300122B077009E50AA2E650030229C6741057
:102A8300120AEFE0F47003A3E0F4605AEEFCEFFDEA
:102A93007403120AEFAA82AB83120CEE8048A2E6FB
:102AA30050447420120AEF124B38701A741A120A27
:102AB300EFE0640270307403120AEFAA82AB8379E9
:102AC30000120DFC80207420120AEF122B007016E6
:102AD300741A120AEFE06404700C7403120AEFAA6A
:102AE30082AB83120DF67422024EE4EE240BF582C0
:102AF300EF12394922F582E91247DEF8221251F921
:102B0300E064072212397B640622EE242A12394636
:102B130012272C24121239462274F4120374EAFE8B
:102B2300EBFF8C088D099005D0E0600F1224FC7038
:102B330003A3E0697005120C58804F7900124B1CF7
:102B4300120C888A828B83E58245836035A3A3A315
:102B5300A3A3A3E05418602AE508241BF582E50922
:102B6300122AF41206921231F2122AF4120692EE8B
:102B7300241812521B122B8F120C9A74041208A3DE
:102B830080087900122B8F120C5E80278E828F8330
:102B9300A3A3A3A3A3A3A3A3A312272C240BF5826C
:102BA300EF122BA8223400F5831239A3FB227403FE
:102BB3001208A37F0402058DEE2417F582EF124756
:102BC300DE2274F712037474F712091DEAFEEBFF99
:102BD300900365E06403600DE064016008E064094C
:102BE3006003022C8F8E828F83A3E0707E7C007D36
:102BF300007A027B00121B76EE2402FAEF12355F95
:102C03001239549003561247C57953121BAC7900FD
:102C1300122C94E064096003123027851882851909
:102C230083740112479B9003657404F07401120AC4
:102C3300EFAA82AB83794A121BA67401120AEFAC86
:102C430082AD837A5B7B03121B9490035612502B45
:102C53007A03123031900350E0A2E35004D2F080A3
:102C630002C2F01247881222E2801E8E828F83A353
:102C7300AE82AF83FC7D007A037B10121B768E82BB
:102C83008F83E0F9122C94E4F0120D187409024DAD
:102C93006C900363122BAC120BF890036522C08275
:102CA300C08390033412477A701F900365E0146069
:102CB3000924FC600A14600C800F90033C8032905E
:102CC3000338802D90033A8028E849600890033543
:102CD300122FD9700C8A828B83A3E0F9120BEC803C
:102CE3001B90033512328E7005120E50800E900326
:102CF300D212477A600612476C121D6D023CFC74B7
:102D0300F412037474FB12091D8A088B097A0F7B72
:102D1300001213908A0A8B0BAE0AAF0BEE4F7003AF
:102D2300022E098E828F83124CF67950121BA685D0
:102D33000882850983A3E06003022DF1900363E019
:102D4300F47003A3E0F46034900363E064FE700363
:102D5300A3E0F46027851882851983122E1570036A
:102D6300A3E0696017850882850983A374EA12309A
:102D73000F7A637B037950121BAC807285188285AE
:102D830019831251DA1247C57A567B037953121B02
:102D9300A69003561247F61247C57A597B03794B1F
:102DA300121BA67A587B0379E1121BA690036AE0F3
:102DB300C3940F5021900358E0C0E07402120AEF4D
:102DC300D0E0F07404120AEF7401F004120AEFAABF
:102DD30082AB83121BBE750A00780A12085F780A59
:102DE30012085F900D13E0F9122FF01208A3850863
:102DF30082850983122E0EA3F09003657403F0EE0F
:102E0300FAEFFB1247AE7405022BB3A3E08E828F59
:102E130083221251DEE06822123E342274F512033B
:102E23007474D812091D8A088B098A828B83A3A321
:102E3300A31239807415120AEFAC82AD838A828B98
:102E430083A3A3A3A3A3A3A3A3122FDFFAA3E0FB4C
:102E5300120D1E7415120AEFE0706B850882850946
:102E630083A3A3A3A3A3A3A3A3E0C3940B40578E5D
:102E7300828F83A3A3A3A3A3A3A3A3E064027046A7
:102E8300EE240B122BBEF4703D900365E0640260E8
:102E93003AE06406603590033412477A6005122FD6
:102EA300D9604F900365E064086005E06404701620
:102EB3007417120AEFE0F9741C120AEFAC82AD83A7
:102EC300124B1C120D2474280256F8900334124737
:102ED3007A701F750800780812085F780812085F77
:102EE300EE2410122AF1125233123647122FF9121E
:102EF30008A38E828F83124A981235711239547443
:102F030002120AEF1247C5EE240D122BBEC0E07465
:102F130004120AEFD0E0123002F508A3E0F50974B9
:102F23000F7808120AA17405120AEFE508F0741964
:102F3300120AEFE0C0E07406120AEFD0E0F0741B4F
:102F4300120AEFE0C0E07407120AEFD0E0F0741643
:102F5300120AEFE0C0E07409120AEFD0E0F0741730
:102F6300120AEFE0C0E07408120AEFD0E0F0EE249A
:102F730010122BBEC0E0740A120AEFD0E0F0741AEC
:102F8300120AEFE0C0E0740B120AEFD0E0F07427EE
:102F9300120AEFE0C0E0740C120AEFD0E0F0741CE8
:102FA300120AEFA982AA8389088A09750A00780898
:102FB3001208577C087D007410120AEFAA82AB83B3
:102FC3001243291208A3851882851983AA82AB8329
:102FD300120BF2022EC9123294640122E0F98A82A2
:102FE3008B83A3A3A3A3A3A3A3A3A3E0229003631D
:102FF30012502F900359122BAC120DDE740222F0E3
:10300300EE240B1247DB221247DEFA22F07A567BBC
:1030130003795312301A22121BAC7A597B03794B72
:10302300121BAC22900363122BAC120E80227B0086
:10303300121B7690035912502F7A047B00121B76D1
:1030430022F012523E2274F212037474F812091D14
:10305300EAFEEBFF8C0A8D0B890C85188285198398
:10306300AC82AD8375838775820374081207B7F545
:103073000DEEFCEFFD851882851983AA82AB8312BE
:1030830049F97003750D019003B1803BEEFCEFFD30
:10309300E508240BFAE50934001249F8601E850897
:1030A30082850983A3A3E0650C70118508828509D5
:1030B30083E0650A7004A3E0650B6038E508241417
:1030C300F582E509122AF4123569E50845096024F9
:1030D300E50DA2E040B6850882850983E0650A70A4
:1030E30004A3E0650B70D5850882850983A3A3E05B
:1030F300650C70C8AA08AB097408022512C082C007
:10310300839003B1023CF974F71203749003B11274
:1031130039A38012EA2414F582EB122AF4123980BF
:10312300121432EEFAEFFBEA4B70E99003B1E4F0CC
:10313300A3F0024D6F7F0702058D74F1120374EA49
:10314300FEEBFF890A8C088D098E828F83E08C82C7
:103153008D83123C10AE82AF83E01243E912435ACF
:10316300C41243E91231FBE054038C828D83124372
:1031730058A2E2E4338C828D831243571313135402
:103183001F1243E9124356A2E7E4338C828D83A3D3
:10319300A3A3A31231FB8E0C8F0D750E00780C12B6
:1031A30008577C087D00E5082407124F9E1208A3E8
:1031B3001250098E0C8F0D780C1208577C037D007A
:1031C300E508240F124F9E1208A3E50AC3940F408B
:1031D300148E828F83A3A3A3E0C0E01231F2122ADC
:1031E300F4D0E080061231F2125466F0023138E571
:1031F300082412F582E50922A3A3123C140EAF831F
:103203002274F412037474F912091DEAFEEBFF89A8
:103213000890033412477A600E12328E7009EEFA68
:10322300EFFB120E4A805F900363E06E7003A3E02E
:103233006F70537401650860097A777B031249F94B
:1032430070447A007B021237B88B0BEA450B703659
:10325300900366120ACC851882851983120AD890C6
:10326300036CE0C0E07404120AEFD0E0F0740512BE
:103273000AEF7401F07406120AEF124CF6120BBC3B
:10328300E9609B120BC27407022BB31232946402DF
:10329300221251FAA3A3A3A3A3A3E02274F512035A
:1032A300748A088B098A828B83A3AE82AF83E0F989
:1032B300120C108E828F83E064EB600C850882858C
:1032C3000983A3E064E17009850882850983A3E487
:1032D300F01222E2750A01780A12085F85088285D6
:1032E3000983A3E0F508780812085F7900122FF02C
:1032F3001208A3120D300256FBEAF0A3EBF0023CD6
:10330300FC74F61203749003B4E0701B7C00790123
:103313007A007B00120D60EA4B600C8A828B831269
:10332300477A6003120CBE024783C082C083123700
:10333300A0401079FF120D5AE9F89020D0E493C30E
:10334300985004790180027900023CFC74F0120366
:10335300748A088B09890B750C008A828B83A3A35B
:10336300A3A3A3A3A3A3E0F9120D668A0E8B0FAE4A
:103373000EAF0F750A01EE4F600302342D850882EC
:10338300850983A3A3A3A3A3A312502B8508828536
:103393000983A3A3A3A3A3A3A3124129124B291215
:1033A3000D4E8A0C8B0DAE0CAF0DEE4F7003023534
:1033B300508E828F83A3A3A3A3E4F0A3F0E5082494
:1033C3000B12355CE0C0E0122AEED0E0F0120E26BC
:1033D300EE240CF582EF12474EE508240EF582E544
:1033E30009123951EE240EF582EF1247C2750C0112
:1033F300EE2406F8EF123558547FF0A3E054FC1284
:103403005290E0540460030234B3900CF512411A55
:1034130074077808120A1E8E828F83A3A3A3A3A323
:10342300A3E04508F0A3E04509F08E828F83A3A3B0
:10343300A3A312356774077808120AA1E508540795
:10344300F508E50B607A8E828F83A3A3A3A3A3A3BE
:10345300A3A3A3740212435B240D123E29E0A2E24C
:10346300500B9003511247F6A3A31247C5E508700A
:1034730003023525EE2406F8EF3400F9E8FAE9FBF8
:103483008A828B83E0547FFCA3E054FCFDE508248F
:10349300FFF508E434FFF50974077808120A1EECF7
:1034A3004508F8ED4509F98A828B831247C5807276
:1034B3008E828F83A3A3A3A3A3A3E0448002342C0F
:1034C300E5087005750A0080598E828F83A3A3A334
:1034D300A3A3A3E05420601212138AEA547F245F4B
:1034E3008E828F83A3A3A3A380238E828F83A3A320
:1034F300A3A3A3A3E05410600A12138AEA540F246F
:103503000A80DD8E828F83A3A3A3A37401F0A3E4B7
:1035130012357174041237AF8B09EA45097003122F
:103523004741E50CA2E050288E828F83A3A3A3A377
:10353300124D5CF9EEFAEFFB120D54E960121247DB
:10354300706003123939EEFAEFFB121432750A0078
:10355300A90A024EE71248B922FAE5093400FB8AA8
:10356300828B8322A3A3E0F508A3E0F50922123599
:103573007522124FBAA3A3A3A3A32274F412037454
:1035830074F712091D7E00120D66EA4B70030236B2
:10359300408A828B83A3A3A3A3A3A3A3A3A3E064CF
:1035A3000660030236408A828B83A3A3A3A3A3A34B
:1035B300A3E0FF8A828B83123E3CE0C0E0740812D2
:1035C3000AEFD0E01239741249FF1247C5120D7881
:1035D300EF5408606685188285198312502B7A0090
:1035E3007B00120D488B0BEA450B704F900363125F
:1035F3003A64121BD67C007D007A007B0080288E03
:10360300828F8312395EF47003A3E0F4602D90037C
:1036130063123647124B291218BEE9641A601C7CE8
:10362300007D00EEFAEFFB120D488A0A8B0BAE0AFF
:10363300AF0BEE4F70C97900121BDC7E01EEF974FB
:1036430009022BB312364B22E0FCA3E0FD8E828FDE
:103653008322C082C083EA4B70059003B580068A3B
:10366300828B83A3A312386460258A828B83A3A3EE
:10367300A3A3A3A3A3E0540860E5EC4D60158A82DD
:103683008B8312395E6C7003A3E06D70D280047A71
:10369300007B00023CFC74F2120374EAFEEBFF8928
:1036A3000A8C088D097A107B0012142CEA4B603FB8
:1036B3008A828B83A3A3A3A3A3A3A3A3A3E4123903
:1036C30062A3E50A125200A31236FC8A828B83A3FB
:1036D300A3A3A3E4F0A312396EA3F0125094EA2437
:1036E3000CF582EB123C001236F5A3A3F0A3F00213
:1036F3002515A3F08A828B8322A3A3E508F0A3E513
:1037030009F02274F4120374EAFEEBFF89088C0AB1
:103713008D0BEE4F60557401650870147901120D1D
:103723005AE9F89020D4E493C398500F7911806A32
:1037330074046508702F1237A040F18E828F83A323
:10374300A3A3A3A3A3A3A3A3E508123C10A3125707
:10375300858E828F83A3A3E4F0A3F09003B5124771
:103763007A6021800D7402650860D079C1802BE0F6
:10377300F8A31247EFA3A312386488828983A3A313
:1037830070ED80039003B5EEF0A3EF1237AF8B0B10
:10379300EA450B70031247417900022BB6790412F4
:1037A3000D5AE9F89020D8E493C39822F01237B465
:1037B300227A207B009003B0E0F91214F822C08231
:1037C300C083E9F879009003B5801D8A828B83A3B7
:1037D300A3A3A3A3A3A3A3A3E068600574FF6870D6
:1037E30001098A828B83A3A312386470DE023CFC36
:1037F30074F7120374EA4B70059003B580068A824E
:103803008B83A3A312386460248A828B83A3A3A32C
:10381300A3A3A3A3A3A3E06970E4EC60148A828B3F
:1038230083E0240D12501CA2E240D380047A007B73
:1038330000024D6FC082C0839003B580068A828BDD
:1038430083A3A312386460128A828B83A3A3A3A3E6
:10385300A3A3A3A3E06970E580047A007B00023C84
:10386300FC122BACEA4B2274F21203748A0A8B0B00
:103873008C0C8D0D750800750900EA450B602E90C0
:1038830003B580068E828F83A3A31238B7601EAC64
:103893000CAD0DEEFAEFFB850A82850B83121D6DCD
:1038A300E9640170DFEEF8EFF988088909AA08AB2B
:1038B30009022515E0FEA3E0FFEE4F2274F7120381
:1038C300749003B51239547C007D00800DE8FCE947
:1038D300FD88828983A3A3123954E8496030EA68DA
:1038E3007002EB6970E79003B5124B29E86A700226
:1038F300E96B88828983A3A370081239549003B5B6
:1039030080091239548C828D83A3A31247C5024DBB
:103913006F74F7120374EAFEEBFFEE4F6015120D9E
:10392300721239861247706003123939EEFAEFFBCF
:10393300121432024D6FEE240C12394612399B22B7
:10394300EE241DF582EF3400F58322F582EF123960
:1039530049123CF322F582EF12394912397B2212C4
:10396300396622125208A3A3A3A322123966A3A382
:10397300221236F612397B221251F3E022E0FEA323
:10398300E0FF228E828F83E0241C123E2D12399B8E
:103993008E828F8312399B221239A3FB1214322297
:1039A300E0FAA3E022C082C083EAFCEBFDEC4D7099
:1039B3000479058044EC24FBF582ED34FF1247784B
:1039C30070071239FFE0F4600512139680E3900349
:1039D300B0E0C0E01239FFD0E0F09020CDE493F9DD
:1039E3007AB77B031213C0E96401700B7A007B2062
:1039F300124745790080027904023CFCEC24FFF570
:103A030082ED34FFF5832274F4120374A2AFE4331E
:103A1300F508C2AF9003B71238B76038EE24FBF550
:103A230082EF34FF1247787A007B209003B0600561
:103A33001247488005E0F91213CCE4F50AF50B7838
:103A43000A12085BEEFCEFFD7AB77B031213BA741C
:103A5300021208A3E508A2E092AFEEFAEFFB022BF5
:103A6300B612502F851882851983AA82AB832274DC
:103A7300F212037474FC12091DEAFEEBFF750AFED1
:103A8300750BFF120D36E960057911023BF5EE2443
:103A930015122BBE6037900D09E0C43354E0F8E0F3
:103AA300333354FC48C0E0EE2415122AF1D0E0125F
:103AB3003C10123C068B09EA45096011750AFFEEBA
:103AC300240F122BBE44041247D3D2E0F08E828F10
:103AD300831224DA6006EE2412123BFDEE24131245
:103AE3002BBE70109020D3E493C0E0EE2413122A6F
:103AF300F1D0E0F08E828F83E0A2E750045403807C
:103B03001CEE2414122BBE7015900342E0C0E0EEAD
:103B13002414122AF1D0E0F0900342E004F0EE24E2
:103B230011122BBE640170169005C7E0600D90035F
:103B33004DE0700A8E828F83E07003123BFA8E820F
:103B43008F83E064017013EE240B12395864027002
:103B530009EE240F122BBE4440F085188285198389
:103B6300AC82AD83EEFAEFFB120D9C8A088B0974CD
:103B7300FE650A700374FFF470098E828F83A3A31A
:103B8300124FAAEA450960668E828F83E0C0E07413
:103B930001120AEFD0E0F07402120AEF1250987487
:103BA30001120AEF85820C85830D780C12085BEEF7
:103BB300240F122AF1120692EE240E122BBEF50CDC
:103BC300780C12085F9003561206927407120AEFDC
:103BD300E0F9AC0AAD0B120D9674071208A3E9FEC7
:103BE30074106E700BAA08AB0912143280027E1097
:103BF300EEF97404022512EE2411F582EF1239490D
:103C0300E4F022A3122BAC79FF121C9C22123C1469
:103C130022F08E828F83A322C082C08374DE1209B6
:103C23001D8A828B83A3A3A3A3123954740E120A91
:103C3300EFE8F0A3E9123CEA740C120AEF123CE33A
:103C4300240DF582EB122BC1C0E0741A120AEFD0D7
:103C5300E0F0124EF7EB1239517420120AEF123CC6
:103C6300E32415F582EB122BC1C0E07408120AEFAE
:103C7300D0E0F0EA241CF582EB1239517412120AD7
:103C8300EF123CE32411F582EB122BC1C0E074095F
:103C9300120AEFD0E0123CD774FFF07401120AEF5E
:103CA30074FFF07402120AEF74FFF090874E12064D
:103CB3008E7404120AEFAC82AD837407120AEFAA62
:103CC30082AB83120BE674041208A37900742212E8
:103CD30008A38025123CDB22F085188285198322F4
:103CE300E8F0A3E9F0EA221236F6A3123CF222A38B
:103CF300E0F8A3E0F922124B29D083D08202083BDB
:103D030074EC12037474EE12091D8A128B13ECFE09
:103D1300EDFF89097426120AEF124FAA7428120ABA
:103D2300EFE0F5107429120AEF123E1E742B120AEB
:103D3300EFE0F50EA3E0F50F7508107A1E7B001275
:103D4300142C7402120AEF1247527402120AEF1271
:103D5300477A7003023E17851882851983AA82ABBE
:103D630083795012462D124B297402120AEF123E28
:103D73003CA31247527410120AEF125787740212AF
:103D83000AEFE0240B123E297402F0120AEF123EEE
:103D93003C7402F0120AEF1251EB125098740212A3
:103DA3000AEF124B3EE509F07402120AEFE0240C0D
:103DB300123E29E510F07402120AEF123E26E512B4
:103DC300F0A3E513F07408120AEFE50CF0A3E50D78
:103DD300F0740A120AEFE510F0850E82850F83C096
:103DE30082C083740D120AEFAC82AD83D083D0827C
:103DF30074031207B7F97402120AEFAA82AB831293
:103E03000D3CE96401700575080080087402120A0C
:103E1300EF12393FA9087412024FC1E0F50CA3E079
:103E2300F50D22E0241C123E2D22F8A3E0123E34AD
:103E3300223400F98882898322124B31A3A3A3A3DE
:103E4300A32274EE120374EAFEEBFF8C088D098E35
:103E5300828F83A3740812480EE060088E828F83DA
:103E6300A37410F0122BBB60098E828F83A3E0240E
:103E730008F0EE2415122BBE60088E828F83A3E018
:103E830004F08E828F83A3A3A3A3A3A3E060198E60
:103E9300828F83A3A3A3A3A3A3A3E0C3332402F822
:103EA3008E828F83A3E028F0EE2411122BBE6005CF
:103EB300750B0E8003750B008E828F83A3C082C0A7
:103EC30083EE240D122BBED083D082F8E028250B7D
:103ED3008C828D83F0EE2411122BBE6005124339C0
:103EE30028F0850882850983E0C394754009750825
:103EF30000750900024027E0FA7B00125146700367
:103F0300024027EEFAEFFB120DA2EA85088285092B
:103F130083124753EE2402F8EF122E1B1241211293
:103F23004063F0EE24040808EF122E1B124563A32E
:103F3300124063A3A3F0EE2413124049F0EE2414BD
:103F4300124049A3F0750A08EE2416122BBE601026
:103F5300EE2418125028E5082408125229750A1075
:103F6300122BBB6016EE241A125028850A0CE508A2
:103F7300250C1252297408250AF50A8E828F83A311
:103F8300A3A3A3A3A3E06059EE2407F510EF340025
:103F9300F511851082F583E0C0E0124030122AF457
:103FA300D0E0124053E0C0E0124030122AF4D0E0D7
:103FB300124053A312403C12085785108285118387
:103FC300E0C333FCE433FD850A0CE508250C124FEE
:103FD3009E1208A3851082851183E0C333250AF559
:103FE3000AEE2415122BBE600BC0E0124030122AD9
:103FF300F4D0E0F0122AEE12403C120857EE240DE2
:10400300122BBEFC7D00850B0A8E828F83A3E0F802
:10401300E50828F8E5093400F9E8250AFAE9124F1A
:10402300A11208A3AA08AB097F0A02058D850A0C11
:10403300E508250CF582E50922E0F50CA3E0F50D72
:10404300750E00780C2212394612406DA3A3A322E9
:10405300F0050A8E828F83A3A3A3A3A3A3A3A32202
:10406300A3A3125294A312406D22124567A3A32265
:1040730074F61203748A828B83E0FC90035312411B
:104083001A74027808120A1EEC4508FCAD09EA24EA
:104093001212411474067808120A1EEC4508FCED4E
:1040A3004509FDEA2415F582EB122BC16004780162
:1040B30080027800E4C8F9ED49FDEA2411F582EBAA
:1040C300122BC1F508880974097808120A1EED45F8
:1040D30009FDEA2416124114740B7808120A1EED26
:1040E3004509FDEA2417124114740C7808120A1EBC
:1040F300ED4509FD8A828B83A3A3A3A3A3A3124146
:104103001A740A7808120A1EECFAED4509FB0247F5
:1041130083F582EB123949E0F50875090022E08541
:10412300088285098322A3E0F98508828509832211
:1041330074EE1203748A0A8B0BECFEEDFF750F010C
:10414300E9C39408500579000243268E828F83E9E0
:10415300F012458CE96003750F001245708E828F53
:10416300831245BAEE124EF8EF1245AFC0E0EE24CB
:1041730011122AF1D0E01245A7C0E0EE2412122A50
:10418300F1D0E0123C107408124FB2A3A3A3E06075
:1041930015124558EE2413F582EF1247C28E828F13
:1041A30083A3E02408F08E828F83A3A3A3A3A3A3F6
:1041B300A3A3E060218E828F83A385820885830970
:1041C30012459BEE2415F582EF1247C285088285BE
:1041D3000983E02408F08E828F83A3A3A3A3A3E023
:1041E300601A8E828F83A385820885830912457F97
:1041F3008E828F83A3A3A3A3A312434BEE2419128E
:104203003BFDEE241B123BFDA3124806E0700302A4
:1042130042BAEE2419F8EF3400F98E828F83A38516
:104223008208858309E0FAE50A2AF582E50B122B59
:10423300C18882898312434BFAE50A2AF582E50B8A
:10424300122BC1C0E0EE241A122AF1D0E012434B24
:1042530088828983E06059F89020CCE493C3985016
:104263000575110C8008EE2419122BBEF5118E82F0
:104273008F83A3E0F8E50A28F50CE50B12432F1210
:104283000857E511C333FCE433FD7AA77B0B1243D4
:10429300291208A3EE241B122AF174A7F0A3740BAE
:1042A300F0E511C333F8850882850983E028800689
:1042B300EE2418125463F08E828F83A3E0F88E826B
:1042C3008F83E0C3985003024149A3E0FA8A08E5CB
:1042D3000A2508F8E50B3400F9EE241DF582EF12E8
:1042E30048CE12435BC39AC0E0EE2417122AF1D0E2
:1042F300E01247CB602BEE2417F8EF3400F988085F
:1043030089098882F583E024F21248AF240EFAA3C8
:10431300E03400FB88828983124752124339C398E1
:10432300F0A90F02402B1213667403223400F50D1B
:10433300750E00780C2290034EE0F9120B26E9F873
:10434300850882850983E022F0850882850983E058
:1043530004F022A3A3A3A3A3F08E828F83E022748D
:10436300F41203748A088B09EA1243F0F0EA131378
:10437300543F1243E9A3A3A3F0EAC413131243F077
:10438300A3A3F0EB1243E21243FA7409780A120A68
:10439300A11243E01243F9740A780A120AA1E50A4A
:1043A3005401C0E0EC2418F582ED122AF4D0E01297
:1043B30043FF740B780A120AA11243E0A31243F9D4
:1043C300740C780A120AA11243E0A3A3A3A3A3A324
:1043D300A3A3F0740D7808120AA1022720E50A545A
:1043E300018C828D8322540F8C828D832254038C03
:1043F300828D83A3A322A3A3A3A3A3A3F08A0A8BDF
:104403000B22C082C08379008A828B83A3A3A3A3D8
:10441300A3A3E090034D600FE070228A828B83A3F5
:10442300A3E07019098016E060138A828B83124B14
:1044330020900356E06A7003A3E06B70E7023CFC34
:1044430074F01203748A0A8B0B890C8C088D091281
:10445300458C1245708508828509831245BAE508A3
:10446300124EF8E5091245AFC0E0E5082411F582C4
:10447300E509122AF4D0E01245A7C0E01231F21286
:104483002AF4D0E01248D674081248EF601112459E
:1044930058E50824131248CA1248D6E02408F085C8
:1044A3000882850983A3A3A3A3A3A3A3A3E06017FF
:1044B300850882850983A3124597E50824151248C8
:1044C300CA12435B2408F0850882850983A3A3A34A
:1044D300A3A3E06019850882850983A3AE82AF8315
:1044E30012457F85088285098312435604F0AA0882
:1044F300AB09120DB4E9F50D705685088285098361
:10450300A3A3A3A3A3A31245637014E0FA8A0EE541
:104513000A250EF8E50B1247B7E50CC39A80211262
:104523004597E8240EF8E91247B790034EE0F912D5
:104533000B268E828F83E0F8E50CC39824F2C3998F
:10454300C0E0E5082417F582E509122AF4D0E0F06B
:10455300A90D024EE7E50A2408F8E50B3400F92219
:1045630012456722E0850882850983A322850A8292
:10457300850B83A3A31245D0E0F9EA22E0F8E50A0C
:1045830028F582E50B1247DE228A828B83124EECDA
:10459300120DAE22AE82AF83E0F8E50A28F8E50BF0
:1045A3003400F9221245E3A3A3A3E022123949E818
:1045B3001245DCA3A3E022A3A3A3A3A3A3A3A3A3C2
:1045C3001245DC1245D0A3A3E0F9EAF822E0FA850C
:1045D3000A82850B83A3A3A322F0A3E91245E32256
:1045E300F0850A82850B83A3A3A3A322C082C08381
:1045F3007AC57B0379E2121BA67AC57B03023CFCD6
:10460300C082C083900356023CF9C082C08374FE0B
:1046130012091D851882851983AA82AB83794B12EF
:10462300462D124B297402023CD2121BA685188216
:1046330085198322C082C083794A121BA6023CFCDF
:1046430074F61203749003CDE0FE04F0EEF9120D3C
:10465300668B09EA450970EDEE60EAF90247837457
:10466300F0120374EAFEEBFF8C088D09890A7410BB
:10467300120AEFE0F50B7411120AEFE0F50C120EBB
:1046830086EA4B7013E50C7042A90AAC08AD09EE3B
:10469300FAEFFB120E9E806EE50A6021EA2402F512
:1046A30082EB122BC1850A082508F8E4340013E8CD
:1046B30013F070098A828B83A3A37401F0E50C6065
:1046C30045E50B70068A828B83E4F07401650C70F8
:1046D30035E50B9003D47004E4F0802AE004F090F5
:1046E3000CF6E0F89003D4E0C398401AE4F090038A
:1046F30059E06E7003A3E06F700CEEFAEFFB7901E3
:10470300120C0A12470C024EE77A017B009003B0A9
:10471300E0F91214F222C082C08374016A7001EBC3
:1047230070077A011247438012900CED124752EA48
:104733004B600512249C800312470C023CFC7A2038
:104743007B009003B0E0F91213C6223400F583EA2C
:10475300F0A3EBF022C082C083900CEF0232FCC0C6
:1047630082C083900CF10232FC1251FA22EE240C27
:10477300F582EF3400F583123CF3E849221208A3D3
:104783007F0202058DA2F0E4338518828519831216
:1047930047A47952121BAC221247A47942121BACD4
:1047A30022F0AA82AB8322AA08AB099003B0E0F9F6
:1047B30012139C223400F9E508241DF582E5091241
:1047C3003949E8F0A3E9F022124FB6A3A3E022A3EC
:1047D300F0EE24151247DB22F582EF3400F583E077
:1047E300221247E8223400F583E0F8A3E0F9888237
:1047F300898322E0F81247FC22A3E0F98E828F839B
:10480300A3A322F0EE241812394622F0EE24161246
:1048130039462274F4120374EAFEEBFF7A007B0438
:104823001247101248A51247C59003657409F01288
:104833000DC08A088B09AC08AD09EE2413122AF1C6
:10484300124B291249F9640170487A0F1248986093
:10485300418A828B8374021248AFFAA3E0FB8A82F7
:104863008B83A3E0FC8A828B83A3A3E0FBEC850804
:1048730082850983A3A312475388828983124B2D10
:104883001241211247D2FAA3E0FB794A121BAC1260
:1048930047AA022BB67B001213908A088B09EA45BC
:1048A3000922900336123CF3900CF122F0EE241D02
:1048B300F8EF1248B922123E34E0221248C22234E1
:1048C30000F5837401F022F582E509123949E8F015
:1048D300A3E9221248DA221248DE22F085088285F3
:1048E3000983A3221248DEA3A3A3A3221248E7A3AA
:1048F300A3E022124D00120E1422EE2417F582EFCC
:104903001248C2120DC0EE241A123946EAF0A3EB84
:10491300F02274F412037474F312091D8908EAFE79
:10492300EBFF7C0D7D007900851882851983AA82AF
:10493300AB83121372EE241D122AF11251EBA3E082
:10494300F8741F58600A7901121B7C79000249F040
:10495300E8A2E55008740C120AEF7401F0E8A2E72C
:104963005008740B120AEF7401F0E8A2E6740A50BF
:1049730008120AEF7401F08008120AEFE064017074
:1049830005EE24138003EE24151250287402120A34
:10499300EFAA82AB83121B94122AEE1249FE12472E
:1049A300C5740A120AEFE0640170331224CF703B1E
:1049B300120DCC8A0A8B0BA80AA90BEE240B122B1F
:1049C300BE687003A3E0697022120DC0EAFCEBFD20
:1049D3007402120AEFAA82AB831249F9600D85189B
:1049E30082851983AA82AB83120C04A908740D0271
:1049F3002BB3EEFAEFFB121B8EE922E0124A0322DD
:104A0300F8A3E0F98518828519832274F6120374DA
:104A130074F312091D8A088B09ECFEEDFF7C0D7DF2
:104A2300007900851882851983AA82AB831253907B
:104A3300A3A3A3A3A3A3A3A3A3124A98124AA1F8CF
:104A4300A2E55008740B120AEF7401F0E8A2E750D4
:104A530008740A120AEF7401F0E8A2E6EE50042487
:104A630013800224151250287402120AEF124A8A84
:104A7300A3A3E0C0E0740C120AEFD0E0124CF812CA
:104A83000BFE740D024780AA82AB83121B94850828
:104A93008285098322E0124A03E8F0A3E922F01297
:104AA30039431251EFA3E02274F712037474E11235
:104AB300091DEAFEEBFF8E828F83124B2DA3A3A366
:104AC300E0A2E050518E828F8312262F8A828B833D
:104AD300A3A3A3A3A3A3E054FE124B458A828B8313
:104AE300124B3EE0F98A828B83E0241CFAA3E01286
:104AF300355F124B29120DBAE9701B741D120AEFB0
:104B0300124B387011851882851983AC82AD83EE00
:104B1300FAEFFB120E02024D6A8E828F83A3A3A3C8
:104B2300A3A3A3A3A3A3122BAC22124B3122125192
:104B3300F3A3A3A32212397B640422E0241B123EB5
:104B43002D22123CDBAC82AD8322E9F87900740498
:104B530068600A740A6860057403687001090208D2
:104B63003B74F61203748A828B837420F0A3A374BC
:104B730001F0120BB08A088B09AE08AF09EE4F6043
:104B8300108E828F837401F09003A3E070031248A8
:104B9300FDEEFAEFFB024783C082C0839003B97432
:104BA30001F0E9A2E350037403F0E9A2E15004E049
:104BB300D2E2F0023CFC74F612037479007C008AA2
:104BC300088B0978081205D3F8FF07EC4BEA4BEA88
:104BD3004BEA4BEA4BE34BE74BEC4BE04B0C8009C6
:104BE3007C0480050C80F67C089003B9E05C6003CC
:104BF300098003EC60010902478374F61203748A87
:104C0300828B83E07012A312477A600C8A828B83B3
:104C1300124B28121CCC80047A007B000247837459
:104C2300F512037474F312091D8A088B09ECFEED67
:104C3300FF750A12EA450970057900024CF19003E9
:104C430056E065087004A3E065097014120DC0EA0C
:104C5300FCEBFD1249F57005750A018003750A0026
:104C6300851882851983E4F004120AEFE508F0A39E
:104C7300E509124CF8120B74E960277403120AEF6A
:104C8300AA82AB83120B56E964017016750A01748C
:104C930003120AEFAC82AD831249F56021750A0055
:104CA300801C7412650A70169003A2E06402700EF1
:104CB300EEFCEFFDAA08AB09120B8CE970DFEEFCEA
:104CC300EFFDAA08AB09120E8CE9F8740A687005A7
:104CD300750A01801774A0687012EEFCEFFDAA0834
:104CE300AB09120E98AA08AB09120EAAA90A740DF1
:104CF3000256F87402124CFC22124D0022123CDBC5
:104D0300AA82AB832274F7120374EAFEEBFF8E824E
:104D13008F83A3A3A3A3A3A3A3A3E06015EE2415EA
:104D2300122AF1122B9C120E2CE9640170047901F2
:104D330080258E828F83A3A3A3A3A3A3A3E06015DF
:104D4300EE2413122AF1124D5CFAA3E0FB120E2C8F
:104D5300E9640160D97900801312364BA3A3A3A39E
:104D6300A3A3A3A3A3E022741F1208A37F01020538
:104D73008D74F012037474FD12091D8A088B09ECFB
:104D8300FEEDFF890B7413120AEFE0F50C750A01AF
:104D93007401120AEF74041252236048E50C601D7B
:104DA300EA2417F582EB1254661252118A828B831E
:104DB300E0D2E7F0EA2414F582EB123C00124EF73E
:104DC300EB1247E47403125789EE88828983A3A305
:104DD300F0EF88828983A3A31236F51236FC120BF7
:104DE300AAE9F50AA90A7403024EE474EC120374E7
:104DF30074F512091D8A0A8B0B890C8C0E8D0F74A6
:104E03001F120AEFE0F50D7420120AEFE0F510A36C
:104E1300E0F5117E01EE120AEF740AF0E97007E57E
:104E23000DC333240AF0124FC97003024ECB124F45
:104E3300DE7409F0A3E50CC43354E0450D124FF0C2
:104E4300E50C702D7C008023ECC333F8E433F9E5E3
:104E53001028F8E51139F988828983124ED888829F
:104E63008983122E0EF0A30EAF830CECC3950D4075
:104E7300D7E5082417F582E5091248BE120DC0E5EF
:104E830008241AF582E50912474E7403120AEFAC9F
:104E930082AD83AA0AAB0B120B5CE96019E5082407
:104EA30016F582E509124ED2120AEFA882A983E50C
:104EB3000824181247BE850882850983125785AADC
:104EC30008AB09120BAAE9FEEEF9740B024FC112EB
:104ED30048C2740322E08E828F83F0A3AE82AF8335
:104EE300221208A37F0802058D1239A3F9EA2400D0
:104EF300E439FB22EA240BF5822274EE1203748A4E
:104F03000C8B0D890E8C088D097412120AEFE0F5D3
:104F13000F7413120AEF124FAA90053612477A60E4
:104F230077E50FC333F8E433F9E8240EFAE93400E4
:104F3300FB1213908A108B11AE10AF11EE4F605815
:104F43008E828F8374D4F0A3A3E50CF0A3E50D1236
:104F53004FB2E50EF0AC08AD09EE2405FAEF12529C
:104F63002CEE240D122AF1E50FF0850A08850B09B2
:104F7300750A007808120857E50FC333FCE433FDC4
:104F8300EE240EFAEF124FA11208A3EEFAEFFB90F4
:104F930005361251EB121D6D02402BFAE509340060
:104FA300FB121366740322E0F50AA3E0F50B221249
:104FB3004FB622124FBA22123C14A3A3A322120803
:104FC300A37F0C02058D851882851983AA82AB8382
:104FD300120E148A088B09EA450922EA240BF5828A
:104FE300EB1247DEFEA3E0FF8E828F8322F0A3AE97
:104FF30082AF83AC0EAD0FEEFAEFFB12500222121A
:105003001B9412500922EE2408FEEF3400FF22E025
:10501300FA8E828F83A3A3E022FEA3E03400FF8EE7
:10502300828F83E02212394612502F22E0FCA3E044
:10503300FD22122BAC120DA82274F6120374EAFEA1
:10504300EBFF9003BA801388828983E06E7003A319
:10505300E06F603A88828983A3A312477A70E87A63
:10506300047B0012142C8A088B09A808A909E849B3
:10507300601C888289831250989003BA124B298846
:10508300828983A3A31247529003BA1247C50247EA
:10509300838A828B83EEF0A3EFF02274F4120374FD
:1050A3007E009003BA80070E88828983A3A31247E8
:1050B3007A70F4EEC333FAE433FB125146607E7F19
:1050C300009003BA80248882898312502BEFC33364
:1050D300FAE433FBE5082AF582E5093BF583ECF0B6
:1050E300A3EDF00F88828983A3A312477A70D79028
:1050F30003AB1225097003A3E0697808701912083D
:105103005BEEF50A780A12085F7C777D03790090DD
:1051130003AB125151801A12085BEEF50A780A129A
:10512300085F7C777D0379009003AB124B29120E45
:105133003E74031208A3AA08AB09121432120BC25D
:10514300022BB612142C8A088B09EA450922122B6A
:10515300AC120E4422C082C08380128A828B83A346
:10516300A31239549003BA1247C51214329003BAEA
:1051730012386470E6023CFC74F612037490036305
:105183001239809003CE1251DA1247C57ACE7B03CF
:105193007950121BAC9003CE122728FAEFFB120EA4
:1051A300A49003CE12398090053812477A60257A8D
:1051B300067B00121390EA4B601A8A828B8374D5A4
:1051C300F0A3A3E4125200041252119005381251B5
:1051D300EB121D6D0247831251DE22E0F8A3E0F9C2
:1051E300900363228E828F831251EF221251F32296
:1051F300E0F81251F922A3E0F583888222125204C7
:105203002212520822F08A828B83A3A3A322125272
:1052130004A3EEF0A3EFF022F582EF1247DEF922AA
:105223001248F6EA4B22FAE5093400FB121B9422DA
:105233001247FDA3A3A3A3A3A3A3229020CEE49389
:105243002401F8E43400F97A027B002274F7120394
:10525300747E00800412583C0E12536040F77E00A7
:10526300EE12527B74FEF0A304125290E4F00EEEA1
:10527300C3940340EB024D6F75F003A4F8A9F074D7
:10528300BC28F8740339F988828983A322125294C3
:1052930022F0888289832274F71203747F008001CD
:1052A3000F9020CBE493F8EFC3985026EF12544CA1
:1052B3006A7003A3E06B70E81257E96C7003A3E014
:1052C3006D600A74FF6C700374FF6D70D3125357D3
:1052D30080047A007B00024D6F74F61203747CFF26
:1052E3007DFF7AFE7BFF120E68EA4B704075080063
:1052F3008036E50875F017A4F8A9F0744228F58202
:10530300740A12545E600C744128F582740A1254B4
:105313005E7013743328FE740A39FF8E828F8312F2
:10532300546BEEFAEFFB05081253C640C5024783E0
:1053330074F41203748A088B09ECFEEDFF800B12E0
:105343000E7AEEFCEFFDAA08AB09120E68EA4B7069
:10535300EE022BB6743328FA740A39FB229020CB61
:10536300E493F8EEC3982274F7120374EAFEEBFF9A
:10537300EE4F601012538A74FEF0A30412578F1479
:10538300F0A304F0024D6F7C177D007900121372B5
:105393008E828F832274F7120374EAFEEBFF750883
:1053A300008018E50875F017A4F8A9F01257F470F7
:1053B30003A3E06F600312584405081253C640E389
:1053C300024D6F9020CBE493F8E508C3982274F65E
:1053D300120374120E688A088B09A808A909E84900
:1053E300600AE8240DFAE93400FB80047A007B00AC
:1053F30002478374F41203748A0A8B0BECFEEDFFED
:10540300750800750900802EE50975F017A4F8A941
:10541300F012582F601EE50912544C650A7004A35C
:10542300E0650B700375080AEEFCEFFD1256EB60A6
:10543300034308A005099020CBE493F8E509C3983A
:105443005004E50860C202272075F017A4F8A9F0FC
:1054530012545722743328F582740A39F583E022F3
:10546300F582EF123949E422122BAC120CA022125E
:105473005294A3A3A3A3A3A3A3A32274F21203741A
:105483008A088B09ECFEEDFF740E120AEF124FAA85
:10549300750C007C007D01801012138AE50CF5F079
:1054A300EA84ACF0750C007D00780079008003126B
:1054B3005628125684400302554AE8FAE9FBEA7576
:1054C300F017A4FA85F00D75F017EBA4250D12560D
:1054D300607003A3E0F460D712563E65087004A31E
:1054E300E0650960CA12563E6E7003A3E06F60BFA9
:1054F30012563E650A7004A3E0650B60B2E8FAE950
:10550300FBEA75F017A4FA75F017EBA4250DFB74ED
:10551300412AF582740A12561F509474016D050CCA
:10552300608DE50CC39C4087E875F017A4F8AAF0DA
:1055330075F017E9A42AF9743328F582740A39F54A
:1055430083124B2902561C780079008003125628D7
:105553001256914003025603E8FAE9FBEA75F0128A
:10556300A4FA85F00D12567064FE7003A3E0F46094
:10557300DC12566665087004A3E0650960CF125615
:10558300666E7003A3E06F60C4125666650A70040A
:10559300A3E0650B60B7E8FAE9FBEA75F012A4FA39
:1055A30075F012EBA4250DFB74C22AF58274081260
:1055B300561F5099E8FAE9FBEA75F012A4FA75F060
:1055C30012EBA4250D12563164016081E064027070
:1055D3000302555074016D050C7003025550E50C20
:1055E300C39C5003025550E875F012A4F8AAF07555
:1055F300F012E9A42AF974B928F582740802554116
:10560300E50C6011EC700E7401650C600302549C90
:105613007C010254A77AFE7BFF0225153BF583E04C
:1056230014C3940622E8240108E93400F922FB7428
:10563300BD2AF58274083BF583E022E8FAE9FBEA28
:1056430075F017A4FA75F017EBA4250D1256532223
:10565300FB74332AF582740A3BF583E02212565316
:1056630064FE22E8FAE9FBEA75F012A4FA75F01277
:10567300EBA4250DFB74B92AF58274083BF583E08E
:10568300229020CBE493FAC3E89AE9940022902075
:10569300BFE493FA740193FBC3E89AE99B2274F580
:1056A3001203748A088B09ECFEEDFF750A00800271
:1056B300050A9020CBE493F8E50AC3985028EEFC42
:1056C300EFFDE50A75F017A4F8A9F01256EB60E0B8
:1056D300E50A75F017A4F8A9F0743328F582740A63
:1056E30039F5831236FE8010743528FA740A39FBB3
:1056F300121B8EE9221208A37F0302058D74F01298
:1057030003748A088B098C0A8D0B890C120E6E8A1E
:105713000E8B0FAE0EAF0FEE4F605512538AE50896
:10572300F0A3E50912578F125787E50C600AEE24A0
:105733000F122AF1E50C8006EE240F12577FF0902A
:1057430003D012477A601A9003AAE064017008EE4E
:10575300240E1254638010EE240E122AF174078073
:1057630006EE240E12577F1230441202231257768C
:10577300024EE7EE240D123946E8F0221239467440
:105783000122A3A3E50AF0A3E50BF022123575A3CA
:105793002274F51203748A088B09ECFEEDFF750A77
:1057A30000800F1257F47003A3E06F600312584494
:1057B300050A9020CBE493F8E50AC3985025E50A3F
:1057C30075F017A4F8A9F01257E965087004A3E06F
:1057D300650970CF743D28F582740A39F583125038
:1057E3009880CD0256FB743D28F582740A12545EEC
:1057F30022743D28F582740A12545E6E2274F712E5
:105803000374EAFEEBFF7508008019E50812544C97
:105813006E7003A3E06F700A12582F7005E508122B
:10582300583D05081253C640E2024D6F743528FAFD
:10583300740A39FB120B56E922EE75F017A4F8A986
:10584300F0125357120E7A22125294123CF3E84983
:1058530022C082C08374F812091D851882851983BA
:10586300AC82AD837583867582FB74081207B78596
:105873001882851983AC82AD831249F964017004DF
:105883007900800279017408023CD2C082C0838A05
:10589300828B83E0D2E7F01215F4026322C082C048
:1058A300837900125D5A1272FBC082C08390033069
:1058B300126F1DD083D082C3E09CA3E09D500C12D5
:1058C30074CAFAA3E01258D1600109026322FBEA09
:1058D30075F00BA4FAA8F075F00BEBA428FB90036A
:1058E30032E02AF8A3E03B8882F583E0540F227468
:1058F300F71203748908125D5A125E00ACF075F05A
:105903000BE9A42CF9900332E028FEA3E039FF74DD
:1059130001650860067402650870208A828B831211
:105923005DEC1269D074026508701B125CAB125EE9
:105933003370138E828F83E4F0800BEA2403FCEB35
:10594300125DCE125DDAEEFAEFFB120B2C026655F6
:1059530074F41203741278BE79008E828F83E06030
:1059630076890A890B8065E50A75F00BA4FAA8F01D
:1059730075F00BE50B1258DE7046E50A75F00BA4C3
:10598300F8AAF075F00BE50B125E128E828F83E09E
:10599300850882850983125EF4850882850983A3BD
:1059A3001269D0EE2403FCEF125DD71264F9127270
:1059B30075AA08AB09120B2C7901900330126F38CA
:1059C300E50A2401F50AE50B3400F50B125CB3E597
:1059D3000A9AE50B9B409002678974F5120374EAF7
:1059E300FEEBFF740B120AEF1264FE750A01EC4D15
:1059F300602BEC1278DAED1272FB1269C87901128E
:105A03000B38E5084509606F850882850983A31271
:105A130078C87902AA08AB09120B38805AE5084501
:105A230009602B1272FF126BF21264FA125E1D7080
:105A33000CEEFAEFFB120B3EE9F50A80CBEE2403E2
:105A4300FA125D5570317903EEFAEFFB80CA8E824C
:105A53008F83A3E064FE7003A3E0F4700BEE2403D2
:105A63000A0A0A125D55700CEEFAEFFB120B3EE9BF
:105A7300F50A8003750A00A90A7F0302058D74F7EE
:105A830012037490033012665AEA4B602FEA75F0E2
:105A93000BA4FAA8F075F00BEBA428FBEAFEEBFFCE
:105AA30012142C90033212665A900332126F246040
:105AB30012EEFCEFFD79001213728007900332E4BB
:105AC300F0A3F0026655900330126EA8C3EE98EF70
:105AD3009922C082C083EC4D6005121B9480097C1F
:105AE300087D00790012137202632274F6120374A4
:105AF3007900EA4B601878008808127481EB1274FD
:105B0300C660047901780808E8C3940840EA02668D
:105B13006D74F712037474F312091DECFEEDFF8527
:105B23001882851983E4F004120AEFEAF0A3EB125A
