:020000040000FA
:06000000020A860201C99C
:03002B000208C107
:030033000206DDE5
:030043000207763B
:030053000200FAAE
:03006B000206C3C7
:1000830002015E0101FF01010503010F10FEFF1CC8
:10009300131C131C131C13D211CC111C135123005A
:1000A300000000EF22000000000C0000000C000123
:1000B3000000EA14000000000000A4150000000086
:1000C300000000000000FFFF0102006F05000000B8
:1000D300E2056400020200000002050207051E0299
:1000E300051E020A0A03B80B02803E0102661614BB
:1000F30096511800020206C0E074F21203E2A2AFA6
:10010300E433FED2AFE5A7FFE5A1F5085F54106025
:1001130006121CCA75A1EFE5085F54086008121C9B
:10012300D075A1F7802BEFA2E0C0D0E508A2E09242
:10013300F01209C3158182F05017906198E0F8908E
:1001430008BEE0C398A2D265D0335002E8F075A18F
:10015300FEEEA2E092AF7F01020441C0E074F2120E
:1001630003E2A2AFE433FED2AF9061A4E0F8759B43
:1001730000E59158540860087591F7121D18802AFC
:10018300E59158541060087591EF121D1E801BE80D
:10019300A2E0C0D0E591A2E092F01209C3158182DA
:1001A300F05007E0C2E0F0121E6E9061A3E0F8E5A4
:1001B300E9585404600E121E4475E9FB906193E004
:1001C300A2E640F2808BC0E074F21203E2A2AFE435
:1001D30033FED2AF9061A5E0F8E5BF585404600642
:1001E30075BFFB121E86020154C3E498F8E499F923
:1001F30012022D8026C3E49AFAE49BFBE920E7E987
:1002030012022DE498F8E499F922C3E498F8E499EA
:10021300F912022DE498F8E499F9C3E49AFAE49BFD
:10022300FB22EB20E7CFE920E7E0B90010BB000891
:10023300E88AF084F8AAF022E4FBC8FA22EB7022E1
:100243007B10C833C8C933C9335007C39AC3DBF221
:1002530080069A50012ADBEAC833F4C8C933F4C9CB
:10026300FA2275F008E4C833C8C933C933C99AC937
:100273009B5004C92AC93BD5F0ECFBC833F4C8E44E
:10028300C9FA22080808EAC0E0EBC0E086F0E7A458
:10029300FA180986F0E7A42AFA180986F0E7A42ACF
:1002A300FA180986F0E7A42AFA1986F0E7A4FBE511
:1002B300F02AFA190886F0E7A42BFBE5F03AFA19BD
:1002C3000886F0E7A42BFBE5F03AFA18180986F044
:1002D300E7A4C5F02BFBE43AFA1908E7C5F0C6A476
:1002E30026F6E5F03BFBE43AFA1886F0E7A4F6E5D8
:1002F300F00826F6E43B08F6E43A08F6D0E0FBD033
:10030300E0FA22E4CFC0E0E4CEC0E0E4CDC0E0E414
:10031300CCC0E075F020C3E633F608E633F608E612
:1003230033F608E633F6181818EC33FCED33FDEE1C
:1003330033FEEF33FFC3EC9709ED9709EE9709EF0F
:1003430097191919400FFFEC97FC09ED97FD09EE7A
:1003530097FE191906D5F0BEECF709EDF709EEF78C
:1003630009EFF7191919D0E0FCD0E0FDD0E0FED079
:10037300E0FF222518C582C0E0E51934FFC583C01C
:10038300E0E518C3958224F810AF088583198582A8
:10039300188008858319858218D2AFCEF0A3E52093
:1003A300F0A37808E608F0A3DEFAEFF0A3E58124D2
:1003B300FAF8E608F0A3E608F0A3E608F0A30808B5
:1003C300E608F0A3E608F0A315811581D0E0FED07E
:1003D300E0F8158115811581E8C0E0EEC0E022C088
:1003E300D02518C582C0E0E51934FFC583C0E0E518
:1003F30018C3958224F310AF08858319858218806A
:1004030008858319858218D2AFC8F0A3E9F0A3EA5F
:10041300F0A3EBF0A37908E709F0A3D8FAECF0A373
:10042300EDF0A3EEF0A3EFF0A3D0E0F0A3D0E0F063
:10043300A3D0E0F0A3E520F0A3E5F0F0A322851913
:1004430083851882E0C0E0A3E0F9A3E0FAA3E0FB10
:10045300A37808E0F608A3DFFAE0FCA3E0FDA3E03D
:10046300FEA3E0FFA3E0C0E0A3E0C0E0A3E0F5D07B
:10047300A3E0F520A3E0A3F5F010AF088583198569
:1004830082188008858319858218D2AFD082D083E1
:10049300D0E0F8D0E032120AE8B900030204DBE44A
:1004A3009003017886790C8002F0A3D8FCD9FA90E6
:1004B3000E86AA82AB83900086787579018015E455
:1004C30093A3AC82AD838A828B83F0A3AA82AB838E
:1004D3008C828D83D8E9D9E775823075838D740456
:1004E3001208397582327583217400120839150098
:1004F3000975F0108E1A8F1B85821F85831E851840
:1005030082851983E0CEA3E0CF851F82851E83EB0E
:10051300C9EAC8EDCBECCAC3E833C8E933C9EA3347
:10052300CAEB33CBC3EA9EF51DEB9FF51CB3500416
:10053300AB1CAA1DEC33CCED33CDD5F0DAAE1AAF3C
:100543001B22D083D082ECC0E0EDC0E0E493A3FC97
:10055300E493A3FDED4C600D12061DEC24FFFCEDAE
:1005630034FFFD80EFE493A3FCE493A3FDED4C6023
:100573000D120721EC24FFFCED34FFFD80EFD0E0EA
:10058300FDD0E0FCE493A3C0E0E493C0E02285192E
:1005930083851882E0A3FEE0A3F5207808E0A3F6A4
:1005A30008DFFAE0A3FFE0A3C0E0E0A3C0E0E0A31C
:1005B300C0E0E0A3C0E0E0A3C0E010AF088582186C
:1005C3008583198008858218858319D2AFD083D09B
:1005D3008202083FD083D082E9C0E0E493A3C386BC
:1005E300F0C5F095F0F908E493A386F0C5F095F013
:1005F300700BE493A3C3994005E9048002A3E47557
:10060300F002A42582F582E5F03583F583D0E0F985
:10061300E493A3C0E0E493C0E022C0E0C3E4939674
:10062300087401939618400FE493667008087401E8
:1006330093661870007019A3A3C3E493960874011A
:10064300939618A3A3400DD0E0D0E0D0E00205813B
:10065300A3A3A3A3A3A3D0E022D083D082C5F0E4B5
:1006630093A3C5F0C395F0F5F0E493A3C395F040CD
:1006730005E5F0048001E475F002A42582F582E526
:10068300F03583F583E493A3C0E0E493C0E02274E0
:1006930004800474028000CCC0E0EDC0E0E518C320
:1006A3009CCCAD1950011D10AF068C188D19800616
:1006B3008C188D19D2AF1207BBD0E0FDD0E0FC221D
:1006C300C0E074F21203E2E589A2E15003121B9E1B
:1006D300758900C2C57F01020441C0E074F21203B0
:1006E300E2E58BA2E05003121B9E758B00C2E880EB
:1006F300E474028000CCC0E0EDC0E0E518C39CCCFC
:10070300AD1950011D10AF068C188D1980068C1879
:100713008D19D2AF120799D0E0FDD0E0FC22C0E0E2
:10072300C0F088F0E493667008087401936618704B
:1007330000A8F0A3A3700BD0F0D0E0D0E0D0E0028B
:100743000581A3A3D0F0D0E022D083D082CCC0E037
:10075300E493A3600612081A1470FAE493A36006E4
:1007630012090B1470FAD0E0FCE493A3C0E0E49305
:10077300C0E022C0E074F21203E2A2AFE433FED27F
:10078300AFC2C0E5D1A2E45003121C40EEA2E09236
:10079300AF7F01020441CAC0E0E493A3C582CCC584
:1007A30082C583CDC583F0A3C582CCC582C583CD65
:1007B300C583DAE5D0E0CA22CAC0E0E0A3C582CC93
:1007C300C582C583CDC583F0A3C582CCC582C5834D
:1007D300CDC583DAE6D0E0CA227009080808226092
:1007E30016181818C6C333C608C633C608C633C698
:1007F30008C633C6D5E0EA22C008C3E096F5080868
:10080300A3E096420808A3E096420808A3E09645B1
:10081300087001D3D00822C0E0E493A3D39C501006
:10082300E493A3C39C400AD0E0D0E0D0E002076980
:10083300A3A3A3D0E022C09FF59FE473D09F22D04F
:1008430083D082C09FE493C0E0740193C0E074023C
:1008530093F59F227404800A740380067402800255
:100863007401C0E0F404120872D0E0120AC3222516
:1008730018F58210AF08F518400215198008F5180D
:1008830040021519D2AF85198322BB0102E722C0AA
:1008930082C08389828A83BB0003E08002E493D011
:1008A30083D08222C0D0251810AF08F51850020556
:1008B300198008F51850020519D2AFD0D022C0E034
:1008C300C0D0E8C0E0E5A8D2AFC2C7A2E792AFD0DC
:1008D300E0F8D0D0D0E0326016080808C6C313C6CB
:1008E30018C613C618C613C618C613C6D5E0EA221F
:1008F300C3E0C696F608A3E0C696F608A3E0C6963C
:10090300F608A3E0C696F622C0E0E493A36C700950
:10091300D0E0D0E0D0E0020769A3A3D0E0222518FD
:1009230010AF08F518400215198008F51840021594
:1009330019D2AF22E76670100809E766700A080942
:10094300E76670040809E76622E066701008A3E012
:1009530066700A08A3E066700408A3E06622C3E099
:100963009608A3E09608A3E09608A3E096A2D265B2
:10097300D03322C3E096F008A3E096F008A3E096F4
:10098300F008A3E096F022E026F008A3E036F00892
:10099300A3E036F008A3E036F022E627F60809E6DE
:1009A30037F60809E637F60809E637F622E026F6B1
:1009B30008A3E036F608A3E036F608A3E036F622ED
:1009C300C0E0E8C0E0E58124FCF8E6A2E7D0E0F867
:1009D300D0E022E647F60809E647F60809E647F6B7
:1009E3000809E647F622E657F60809E657F6080926
:1009F300E657F60809E657F622E056F608A3E0564E
:100A0300F608A3E056F608A3E056F622E056F008EF
:100A1300A3E056F008A3E056F008A3E056F02270D6
:100A23000422600D18C6C333C608C633C6D5E0F426
:100A33001822E4C396F608E496F608E496F608E46A
:100A430096F622600D08C6A2E713C618C613C6D5CC
:100A5300E0F322C6F4C608C6F4C608C6F4C608C640
:100A6300F4C622C3E7960809E7960809E79608093A
:100A7300E79622C3E09608A3E09608A3E09608A3AE
:100A8300E0962275D0007581407518017519030031
:100A9300020499E0F608A3E0F608A3E0F608A3E051
:100AA300F622600C08C6C313C618C613C6D5E0F4F5
:100AB30022E6F008A3E6F008A3E6F008A3E6F02296
:100AC300CAC0E0E6F0A308DAFAD0E0FA22E0FAA31B
:100AD300E0FBA3E0FCA3E0FD22EAF0A3EBF0A3EC30
:100AE300F0A3EDF022E5C754F84401F5C7790122DC
:100AF3002518F582E43519F58322C2AF75D69F0216
:100B030000002212084224E30212084271E4021296
:100B1300084214E5021208425BE60212084279E633
:100B2300021208423E2500120842502500120842D4
:100B3300A225001208420326001208428D26001245
:100B430008423127001208428527001208429E27D7
:100B530000120842C42700120842FF27001208426D
:100B63004328001208426A2800120842BB280012D8
:100B730008426B2900120842232A00120842EB2A7A
:100B830000120842AB2B00120842EF2B001208425E
:100B9300142C00120842572C00120842A42C0012F5
:100BA3000842FC2D00120842822E00120842A02E99
:100BB30000120842CA2E00120842E42E0012084214
:100BC300F32E00120842FE2E00120842BE2F00121E
:100BD3000842173000120842D93000120842E130AF
:100BE30000120842A53100120842113200120842D5
:100BF3003C3300120842613300120842D73300121B
:100C03000842693400120842C13400120842813597
:100C130000120842A03500120842AF360012084203
:100C2300C1360012084230370012084285380012DC
:100C33000842B738001208424A3900120842833981
:100C430000120842CF3900120842EB3A0012084260
:100C5300343D001208423F3D001208424A3D001253
:100C63000842553D001208425F3D001208426A3DAA
:100C730000120842843D001208428E3D00120842D1
:100C8300983D00120842A33D00120842CB3D0012DA
:100C93000842263E00120842303E00120842543EEB
:100CA30000120842783E00120842D63E0012084263
:100CB3001A3F00120842363F00120842AD3F0012AD
:100CC3000842E53F001208423140001208428E40BC
:100CD300001208424841001208422C430012084205
:100CE300854300120842B54400120842DB44001257
:100CF3000842644600120842E04900120842B24B1F
:100D0300001208427B4D00120842284E001208428E
:100D1300934F0012084232500012084277500012DB
:100D23000842E15000120842F05000120842775383
:100D33000012084229550012084296550012084233
:100D43007556001208428E57001208420B590012C2
:100D530008422A59001208427F5900120842845A55
:100D630000120842AC5A00120842045B0012084207
:100D7300E35B00120842275C00120842725C001217
:100D83000842DD5C001208421E5E00120842825EC9
:100D930000120842D05F001208423062001208427B
:100DA3006162001208421964001208426E64001264
:100DB30008427265001208420F6600120842686614
:100DC300001208421B6700120842BD670012084266
:100DD3005D6800120842026900120842BC870112D2
:100DE3000842FB8701120842428A011208428C8A98
:100DF30001120842A78B011208420F8C011208420C
:100E0300448C01120842B88D011208423B90011232
:100E13000842649101120842FA9101120842029BAE
:100E230001120842979B011208427E9E011208425A
:100E3300719F01120842DF9F0112084225A101128E
:100E4300084207A201120842ECA301120842FDA5C1
:100E53000112084267A60112084239A7011208428B
:100E630067A70112084224A801120842FBA8011235
:100E73000842C2A90112084266AA011208428FAAB7
:100E830001120842B1AA0112084207AD0112084239
:100E9300DFAD0112084223AE011208428BAE0112EC
:100EA300084243AF0112084275AF01120842B9AFBD
:100EB30001120842EFAF011208423BB0011208428F
:100EC30090B00112084295B001120842E8B0011235
:100ED30008420DB1011208421CB20112084280B24D
:100EE30001120842F0B2011208427CB30112084217
:100EF30049B6011208422DB701120842B0B80112D7
:100F03000842E6BA0112084294BB0112084244BCEB
:100F13000112084285BE0112084228BF011208428D
:100F23006FBF011208421BC1011208422FC10112F7
:100F3300084239C10112084261C1011208426DC160
:100F4300011208428CC101120842ACC301120842CB
:100F5300FBC4011208423FC501120842E7C5011252
:100F63000842CAC60112084275C701120842C1C825
:100F730001120842BFC90112084265CA01120842A0
:100F8300F5CA011208420CCB0112084243CB0112ED
:100F930008424DCB0112084258CB0112084276CBCE
:100FA30001120842BACB0112084217CC01120842BF
:100FB3003CCC0112084256CC01120842E2CC011289
:100FC3000842FFCD011208426CCE0112084253CFF2
:100FD300011208427ACF01120842EECF01120842F1
:100FE30069D0011208426DD10112084263D2011285
:100FF300084212D30112084225D401120842C1D477
:10100300011208424ED5011208422CD601120842A1
:1010130064D601120842BCD60112084285D70112D8
:101023000842A6D7011208422DD80112084251D80E
:101033000112084273D801120842BCD801120842B7
:10104300D2DA01120842B9DB011208426ADC01124A
:101053000842A0DE01120842F0DE0112084230DF2E
:101063000112084272DF01120842CEDF0112084268
:10107300FCDF0112084220E00112084273E0011272
:101083000842A1E001120842DAE0011208422FE10E
:101093000112084295E101120842E9E201120842F5
:1010A3000CE50112084279E501120842A2E501129A
:1010B30008422DE60112084294E601120842DFE6D7
:1010C3000112084203E70112084227E7011208420E
:1010D30082E7011208429DE70112084256E8011215
:1010E3000842C5A90412084204AA041208427880DF
:1010F30002120842BE80021208429E810212084276
:10110300A08202120842A383021208422F85021210
:1011130008428D85021208424A86021208426887F5
:1011230002120842D98702120842158802120842A5
:101133006388021208426D8802120842B1880212C3
:1011430008420D8902120842A88902120842258A20
:1011530002120842F48A021208428D8B02120842DC
:10116300AD8B02120842E38B02120842148C021266
:101173000842D58C02120842E58C02120842398DCE
:1011830002120842548D02120842668D021208426E
:101193006F8D02120842C98D02120842258E021277
:1011A3000842718E021208428C8E02120842BD8ED2
:1011B30002120842DA8E02120842E68E0212084236
:1011C3005A9002120842739002120842DA900212F5
:1011D3000842ED9002120842FB9002120842AF91BE
:1011E3000212084293920212084299930212084291
:1011F3002394021208422D94021208429A94021276
:101203000842B19402120842E394021208421C9568
:1012130002120842469502120842A795021208429A
:10122300C79502120842E595021208422B96021254
:1012330008425197021208429E9702120842CD9724
:10124300021208424398021208426B9802120842A3
:10125300A49802120842B298021208420A99021292
:101263000842599902120842989902120842C899F1
:1012730002120842F49902120842FF99021208422C
:101283001D9A02120842DF9A02120842E99A0212D8
:101293000842249B021208423A9B021208428F9B87
:1012A30002120842A39B02120842B19C0212084296
:1012B300C49C02120842D99C021208427B9D02126E
:1012C3000842FE9D02120842BC9E02120842C79EBB
:1012D30002120842F39F021208420FA002120842B0
:1012E30061A002120842A0A002120842B5A0021295
:1012F300084217A102120842A6A102120842F1A154
:101303000212084242A402120842C0A40212084276
:1013130035A50212084257A7021208426FA702120C
:10132300084272A7021208427EA70212084292A73D
:10133300021208429AA702120842CDA702120842DB
:101343007DA802120842F3A80212084266A90212FB
:1013530008421AAA02120842CFAA02120842EEAAAF
:10136300021208428EAB021208429AAB02120842E2
:10137300C5AB02120842C8AB0212084232AC0212D9
:1013830008425AAD0212084232AE02120842BDAE02
:1013930002120842D6AF0212084293B00212084268
:1013A300CCB002120842FDB002120842BBB10212D5
:1013B3000842EBB102120842C6B2021208425FB3FE
:1013C30002120842EAB3021208429BB40212084214
:1013D3001EB50212084250B50212084291B502121C
:1013E300084214B40312084279B403120842B6B493
:1013F3000312084205B5031208421BB70312084241
:10140300FEB80312084268BC03120842A3BC0312CD
:101413000842C5BC0312084228BD031208425CBD42
:10142300031208427FBD03120842ACBD03120842F7
:1014330008BE031208424FA803120842CDA80312A4
:10144300084203A9031208426FA903120842E2AA41
:1014530003120842FEAA0312084243AB03120842D6
:10146300D1AB031208422AAC0312084257AD031250
:10147300084269AE03120842C6AE0312084232AFF5
:101483000312084293AF03120842D4AF0312084277
:1014930081B00312084293B103120842BEB1031292
:1014A300084209B20312084250B203120842E2B2E0
:1014B300031208429DB303120842F09D041208422E
:1014C300019E04120842529E04120842979E04127F
:1014D3000842419F0412084259A604120842BD9AC9
:1014E30004120842159C04120842FEF40212084238
:1014F300A3F502120842C3F502120842E3F50212F1
:101503000842F7F5021208424FF6021208427FF62C
:101513000212084200F802120842A6F80212084218
:1015230088F902120842D9F9021208421CFA02127F
:1015330008425FFA02120842C5FA02120842E6FAAA
:101543000212084272FB02120842A3FB0212084273
:1015530017FC02120842C5FD021208429FFE021246
:101563000842E1FE0212084271DA02120842EC98C4
:10157300041208420D9904120842439A04120842C5
:101583006D9A041208426F8A04120842E98A04120F
:101593000842F48A04120842158B04120842129C72
:1015A30003120842159C03120842CF9C03120842FF
:1015B300FA9C03120842419D03120842669D0312DE
:1015C3000842CFE002120842BB9D03120842F49D79
:1015D300031208421D9F03120842549F031208423C
:1015E300749F031208420FA003120842D4A00312EF
:1015F30008420BA10312084280A20312084223A34C
:10160300031208421CA40312084245A40312084211
:1016130099A4031208425FA5031208428DA5031281
:10162300084222A703120842A3A703120842D6A71F
:101633000312084254BE031208425EBE031208425C
:10164300AABE0312084218BF0312084239BF03128D
:10165300084250BF0312084200C00312084294C25A
:10166300031208429DC203120842F0C20312084249
:1016730019C30312084280C30312084211C40312A0
:10168300084253C4031208429DC403120842FCC417
:101693000312084228C503120842B9C503120842BF
:1016A300F8C50312084237C6031208426CC6031278
:1016B30008427EC60312084290C603120842AFC610
:1016C30003120842B8C6031208426EC70312084247
:1016D300AEC703120842C7F0031208429AF103127D
:1016E3000842B4F103120842C5F103120842DAF3C7
:1016F30003120842F9F303120842D2940412084277
:10170300089504120842519504120842A196041246
:1017130008424E69001208428D6A00120842C96AE3
:1017230000120842886C00120842B16C0012084291
:10173300446F00120842886F0012084211710012B0
:101743000842A97100120842117200120842B272D3
:1017530000120842F4720012084234730012084265
:10176300BF74001208422F76001208425478001208
:101773000842827800120842A97800120842B2781F
:10178300001208420D7900120842A07900120842A3
:10179300BE7C001208423F7D00120842FFAA0412D9
:1017A300084215AB0412084228A9041208420A870A
:1017B300041208421D8704120842BA870412084221
:1017C300F58704120842108804120842358804126F
:1017D30008427A8804120842AB8804120842DC8863
:1017E30004120842628A04120842B9A00412084291
:1017F300EFA0041208420BA1041208424DA10412E7
:1018030008425DA104120842F2A104120842FCA19D
:101813000412084252F50312084202F60312084268
:10182300BDF60312084200F70312084282F80312BE
:101833000842EEF803120842A0E602120842F8E654
:1018430002120842E1E7021208427AE80212084251
:10185300C4E80212084221E9021208427AE902129C
:1018630008428EE902120842C0E902120842BEEAA7
:101873000212084222EB021208423DEB0212084216
:101883008CEB02120842A2EB02120842AFEB0212E7
:101893000842E3EB02120842FCEB021208428DEC11
:1018A300021208429CEC0212084224ED0212084282
:1018B3007EED02120842CCED02120842EEED021256
:1018C300084265F0021208429AF0021208422AF115
:1018D300021208429FF102120842A4F102120842C6
:1018E300E0F10212084236F202120842FAF2021240
:1018F30008421FF30212084229F3021208422CF392
:1019030002120842B5F302120842D0F3021208424F
:10191300E3F3021208420FF4021208424AF40212DD
:1019230008424DF40212084258F40212084294F499
:1019330002120842A7F402120842CEF4021208422D
:1019430078A90412084290A9041208422ED1031266
:1019530008427DD1031208421FD303120842DDD48B
:101963000312084225D50312084247D60312084240
:1019730078D7031208429AD703120842F6D7031204
:10198300084278D8031208420080031208422180DB
:1019930003120842AB80031208423081031208424B
:1019A300AC810312084215820312084261820312BA
:1019B3000842E08203120842728303120842FE8344
:1019C30003120842408403120842AC8803120842FF
:1019D3002C8A031208426B8A03120842528B0312A9
:1019E3000842558B03120842098C031208423E8DAC
:1019F30003120842298F03120842A99103120842D5
:101A03006292031208427F9303120842D69603128E
:101A13000842E69603120842479803120842D398F5
:101A230003120842079A03120842F89A0312084263
:101A33007A9B0312084290E8011208424AE9011214
:101A43000842BCE901120842CBE90112084245EA07
:101A530001120842B4EA01120842BBEB0112084228
:101A6300E4EB0112084284EC01120842D2EC0112A9
:101A7300084242ED01120842FBEF01120842D2F084
:101A8300011208423FF101120842BCF2011208425E
:101A930070F3011208421EF40112084279F4011294
:101AA3000842E4F401120842E4F501120842BEF7C9
:101AB30001120842D1F8011208426AF901120842E0
:101AC300DCF901120842A2FA01120842D8F9031202
:101AD30008422CFA0312084284FA03120842CFFA8E
:101AE3000312084231FB031208429DFB0312084212
:101AF30050FC0312084291FC03120842A7FC031294
:101B0300084203FD0312084241FD031208427C927E
:101B130004120842AD920412084267930412084269
:101B2300CD93041208423E9404120842B58D041268
:101B33000842418F041208424CA7041208425DA7D1
:101B430004120842FDA704120842649C04120842CE
:101B5300729C0412084257AB0412084217A80412DD
:101B6300084227A80412084242A804120842A3A864
:101B73000412084257A504120842DCA504120842C5
:101B830040A60412084245A40412084267A40412A2
:101B93000842D1A404120842DCA40412084220A57E
:101BA30004120842E1DD03120842EFDD031208428A
:101BB30030DE031208424ADE03120842C7DE031274
:101BC3000842C1DF03120842E6DF0312084203E0C2
:101BD3000312084220E00312084245E003120842C0
:101BE3006DE003120842B5E00312084230E103122C
:101BF3000842E0E1031208420080041208420E800A
:101C0300041208428880041208426C8104120842BC
:101C1300258304120842DDAA04120842ACD8031239
:101C2300084219D903120842DAD9031208424ADAE0
:101C33000312084253DB03120842CBDC03120842AF
:101C43002FDD0312084284DD031208428DDD0312E7
:101C530008429CDD03120842AFDD03120842C5DDD2
:101C630003120842CEDD031208425CE70312084266
:101C7300B1E703120842ADE903120842DFE9031298
:101C8300084201EA031208421AEA0312084233EA3D
:101C9300031208423DEB03120842D8EB0312084239
:101CA300589F041208427C9F04120842959F041215
:101CB3000842C89F04120842F99F0412084227A051
:101CC3000412084289A00412084298A00412084290
:101CD300A2A004120842AFA004120842EC8F04121F
:101CE30008421290041208424F90041208425E9078
:101CF300041208427D9004120842E590041208423F
:101D0300EE90041208424D9104120842719104129C
:101D130008423092041208423D92041208424E9245
:101D230004120842C4FF01120842E1FF01120842F3
:101D33004FEC03120842A7ED03120842B4ED03125D
:101D43000842C7ED03120842E6ED03120842FCED18
:101D53000312084210EE0312084285EE03120842F2
:101D6300EAEE031208429AEF031208426FF00312DD
:101D730008427FF0031208428EF00312084256FF16
:101D8300021208427AFF02120842A2FF021208421C
:101D9300CAFF021208429C7D00120842C37D001252
:101DA3000842E47D00120842497E0012084272FD97
:101DB300031208428BFD0312084297FD03120842E7
:101DC300ABFD03120842C9FD03120842D3FD0312FF
:101DD3000842DDFD03120842F0FD0312084252FEE1
:101DE300031208428BFE03120842BAFE0312084292
:101DF30008FF0312084257FF0312084272FF03123F
:101E030008427CFF03120842A3FF03120842E9FFC2
:101E130003120842ADA804120842C9A804120842DA
:101E23003DAB04120842D7C70312084201C803128C
:101E330008421DC80312084230C80312084246C8AC
:101E430003120842A3C803120842D6C80312084269
:101E530017CD031208423DCE0312084270CE03127F
:101E63000842BCCE03120842FECF0312084226D01A
:101E7300031208423BD0031208424BD0031208421C
:101E83008FD003120842F0D00312084200D103128C
:101E93000842FFA1041208421AA20412084243A2F4
:101EA300041208425DA20412084282A204120842EC
:101EB300A1A204120842B9A204120842E7A2041222
:101EC300084201A3041208420EAA041208428A839C
:101ED300041208429183041208429D8404120842AA
:101EE300CD8404120842F3840412084216850412B6
:101EF3000842388504120842728504120842D885C4
:101F0300041208421186041208425D860412084234
:101F13008A8604120842AA8604120842049704120D
:101F230008421C97041208420A9804120842E998CE
:101F33000412084232A304120842A4A30412084262
:101F4300E2A30412084223A404120842F6FB01127E
:101F5300084215FC0112084264FC0112084280FC8D
:101F630001120842B1FC01120842C1FC01120842ED
:101F7300CEFC01120842DBFC01120842C7FD01122C
:101F8300084205FE011208420FFE011208421FFF1C
:101F9300011208422AFF011208423CFF01120842C3
:101FA30045FF011208424FFF011208429FE203124C
:101FB3000842E4E603120842F2E60312084288AA42
:101FC3000412084252AA04120842B5AA0412084293
:101FD3001FAB04120842D3D7021208429CD6021246
:101FE3000842F0D50212084236D402120842E6D162
:101FF300021208426DD10212084214D102120842A1
:10200300A4D0021208427BD0021208425BCE021215
:10201300084227CE02120842F4CD02120842D8CD5C
:1020230002120842F1CC02120842A9CC0212084261
:10203300F4CA0212084274CA0212084271CA021296
:1020430008426EC9021208423CC90212084279C80A
:1020530002120842A4C602120842EDDF021208422D
:10206300D1DF0212084255DF021208420CDF0212CE
:102073000842C4DE0212084235C60212084207C6ED
:102083000212084204C602120842F1C502120842B3
:1020930012DE021208429CC5021208428BC50212CC
:1020A30008427DC40212084247C40212084284DD7A
:1020B30002120842879D03120842F5C30212084226
:1020C30096C30212084265C3021208422DC00212CF
:1020D3000842EDBF02120842E1BF0212084241BFAB
:1020E3000212084281BE0212084203BC02120842D5
:1020F30094B90212084252B90212084226B80212D7
:102103000842DBB7021208421AB702120842EDB6C0
:102113000212084230B602120842C6B50212084241
:1021230000B60212084277DD021208423BFF0200AA
:10213300000080FBE4730001363601010001020157
:102143000001030100010401060605020000070166
:1021530000340801000F090401010D0100FF0E08FE
:10216300000017020000190100FF1A0100011B0102
:1021730000FE1C0100081D0200001F0100012001D8
:102183000001210200002301000F240200002601A8
:10219300000127010008280200FF2A0100072B0184
:1021A30002402C0100002D0100012E0100012F012E
:1021B30000FF30010B1C310800003A0100083B010D
:1021C300000F2F0100000101710101010101110143
:1021D30001013101010101018001100161013B0095
:1021E30014006301730172016201430100011301D1
:1021F30006013D0135000401120100010001000147
:10220300000104010401330133013C0144013201A3
:102213003600000100016501000135008101000164
:1022230005018201830100010304710402046004B7
:102233001104700402040204010402041004610482
:10224300000414046304730472046204430400046A
:10225300130406040004000404041204000400042C
:102263000004000451046400000400040004440456
:102273000004000400040004650400043504810420
:1022830064000504000483040004030271023001A6
:1022930060021102700201020202020280021002B5
:1022A30061023A0041006302730272026202430256
:1022B30000021302380000020002040212020002AC
:1022C30000020002000204020402370037003C024D
:1022D30044020002390000020002650200023502D6
:1022E30081020002050282028302000201037103DC
:1022F3000103010301030103010322030203010399
:1023030010030003000300030003000300030003A2
:102313004203000324030603000300030403120320
:1023230025032303250323030403040300030003FA
:102333000003440300030003230300036503210098
:1023430035038103000305030003000300030300B7
:10235300710030016000110070003102200350044D
:10236300800010006100000014006300730072001D
:102373006200430000001300060000000000040098
:1023830012000000000000000000040004003700F9
:1023930037003C024400000000000000000065001C
:1023A30000003500810000000500000083000000EC
:1023B30036000100060000000F00000000000000CE
:1023C30000000000000003FFFF00000403FFFF0004
:1023D30000FFFF0FF4010005C404032000010014F3
:1023E3000B000000000000000003010F0000721A40
:1023F3001300EE190100721A0200A6190300AC19AA
:102403000400B2190500B8190600C4191100E21935
:102413001400E8191500D619FFFF000001240E0669
:10242300540E084E0E0B600E10A00D022A0E05422C
:102433000E07300E0C060E0D180EFF00002C125C5A
:10244300123212381256124A124412621268126E73
:10245300127A123E122612201200160F00000B15DC
:102463000B020002220F320000061C132E1334133A
:10247300F6113A13F011FC11140AE5D5C5B5A5A55B
:1024830095858575657C139A13A01382138E138823
:102493001330112A1166116C116011181100011902
:1024A30016181616152303000C0E020B040B0A074D
:1024B30008000F303017181921301B1D1F3000037F
:1024C3004948424D181725050230301618192023A4
:1024D3001A1C1E3000383C3E363B3B352B432C50F8
:1024E30012741294138012861270134013461352FF
:1024F300134C130204020101010109023C114211B0
:102503003611721100000000000000BE040A4811D9
:102513005A11FA067B2404007F00E8030C000E0026
:102523002800000000000108100C0A030809000439
:10253300000CFF1E1E05080403100FC082C0838A0F
:10254300828B83E0D2E7F01218F802370DC082C005
:10255300837900122A0A1258DAC082C083900334A6
:10256300124660D083D082C3E09CA3E09D500C123E
:102573005FAEFAA3E012258160010902370DFBEA81
:1025830075F00BA4FAA8F075F00BEBA428FB9003ED
:1025930036E02AF8A3E03B8882F583E0540F2274E7
:1025A300F71203768908122A0A122AB0ACF075F0E2
:1025B3000BE9A42CF9900336E028FEA3E039FF745D
:1025C30001650860067402650870208A828B831295
:1025D3002A9C12393C74026508701B12295B122A6B
:1025E300E370138E828F83E4F0800BEA2403FCEB09
:1025F300122A7E122A8AEEFAEFFB120B2402389972
:1026030074F41203761268D579008E828F83E060AA
:1026130076890A890B8065E50A75F00BA4FAA8F0A0
:1026230075F00BE50B12258E7046E50A75F00BA4C9
:10263300F8AAF075F00BE50B122AC28E828F83E0A5
:10264300850882850983122BA4850882850983A3C3
:1026530012393CEE2403FCEF122A8712371A125365
:1026630054AA08AB09120B247901900334124D6963
:10267300E50A2401F50AE50B3400F50B122963E59D
:102683000A9AE50B9B4090023AE674F5120376EA48
:10269300FEEBFF740B120AF312371F750A01EC4DA0
:1026A300602BEC1268F1ED1258DA12393479011209
:1026B3000B30E5084509606F850882850983A312FD
:1026C30068DF7902AA08AB09120B30805AE5084586
:1026D30009602B1258DE123FA812371B122ACD7045
:1026E3000CEEFAEFFB120B36E9F50A80CBEE24036E
:1026F300FA122A0570317903EEFAEFFB80CA8E8253
:102703008F83A3E064FE7003A3E0F4700BEE240355
:102713000A0A0A122A05700CEEFAEFFB120B36E9CD
:10272300F50A8003750A00A90A7F0302059174F76D
:102733001203769003341238A9EA4B602FEA75F03E
:102743000BA4FAA8F075F00BEBA428FBEAFEEBFF51
:102753001217069003361238A9900336124BAE6057
:1027630012EEFCEFFD79001216468007900336E463
:10277300F0A3F0023899900334124318C3EE98EF94
:102783009922C082C083EC4D6005121F4680097CEC
:10279300087D00790012164602370D74F61203768F
:1027A3007900EA4B601878008808125C21EB125F0D
:1027B300AA60047901780808E8C3940840EA02395A
:1027C3004574F712037674F3120921ECFEEDFF85CD
:1027D3001882851983E4F004120AF3EAF0A3EB12DA
:1027E30050DA7403120AF3AC82AD83EEFAEFFB12F4
:1027F3000B48EEFAEFFB120B4E02389474F71203F8
:102803007674F3120921ECFEEDFF85188285198396
:10281300E4F0EAFCEBFD7403120AF3122B9D74013E
:10282300120AF31239308E828F8312393C74FE6898
:10283300700374FF6960047901800279000238949F
:1028430074F7120376EAFEEBFF1228A17014122824
:10285300AC8E828F83E0F4F88A828B83E058F01287
:102863000B24A90802389974F7120376EAFEEBFFEA
:102873007508008E828F83E060221228A1701D12DA
:1028830028AC8A828B83E08F838E82F8E058700CA9
:10289300E0F88A828B83E048F0120B2480C4120B89
:1028A3002AE9F50874016508221268EA122AB412AB
:1028B30029F6FAA3E039FB2274F41203768A088B13
:1028C300097C007D0012295B122A8A122A1B1268D6
:1028D300DC7900850882850983A3E064FE7003A385
:1028E300E0F460717E007F008062EEFAEF122581D2
:1028F3006057EEFAEFFBEA75F00BA4FAA8F075F057
:102903000BEBA428FB900336E02AF50AA3E03BF582
:102913000B850882850983A3125028850A82850BBB
:1029230083A3E06A7003A3E06B701EE50A2403FA35
:10293300E50B122A06700AE50A2403FCE50B122AAA
:1029430087122A0F79011258F01232FA122963EE14
:102953009AEF9B4095023AE6EA24030A0A0AEB221D
:102963009003341254C7C32274F31203768A088B7C
:10297300098A828B83A31268DF122A0A1268DC7524
:102983000C0012295B122A0670547E007F008049D6
:102993001229E8FAA3E0398A82F583E0540F6036FE
:1029A3001229E8F50AA3E039F50BE50A2403FCE54F
:1029B3000B122A913400FB121F40E9640170178542
:1029C3000A82850B83A3125588A312393C122A0F5E
:1029D300750C011258F01232FA12277940B2A90C81
:1029E3007F05020591EEF8EFF9E875F00BA4F812F4
:1029F30029F622AAF075F00BE9A42AF9900336E030
:102A03002822EF122ADD221268F0EB22122A1B126F
:102A130058EBEEF0A3EFF022E5081268F1E5092286
:102A230074F5120376EAFEEBFF8E828F83A312689E
:102A3300DF7C007D00EE24030A0A0AEF122A8AEEE5
:102A4300FAEFFB120B2AE9F50A7401650A702912E1
:102A530068EA122AB0AAF075F00BE9122AC28508B7
:102A630082F583122A9C122ACD700DE5082403FCFB
:102A7300E509122A7E122A8A02272A3400FDEE244F
:102A830003FAEF22122A913400FB120B482234007E
:102A9300FDE5082403FAE50922A3122AA122122A3A
:102AA300A522E0F8A3E0F98E828F83A322122AB431
:102AB300223400F58312431CE875F00BA4F82212AC
:102AC30029FCF508A3E039F50922E8F0A3E9F0E5CC
:102AD300082403FAE509122ADD22122AE3640122FB
:102AE3003400FB120B4EE92274F312037674E612E0
:102AF30009211268D5750C01750800750900750A5E
:102B030000750B00851882851983E4F0EE2403FC1D
:102B1300EF3400FD7403120AF3122B9DE964017074
:102B230023740B120AF31239347401120AF312508C
:102B33002C7003A3E069605185188285198385820F
:102B430008858309740D120AF3E4122BA4740E1280
:102B53000AF312393C740D120AF3AA82AB83120BE7
:102B63006CE96401700B740D120AF385820A858384
:102B73000B780A12085FAC08AD09EEFAEFFB120BF3
:102B83003C74021208A7E9F50CEEFAEFFB120B6690
:102B9300A90C741A1208A70229E3122E70120B72E1
:102BA300221238A412431822C082C083780079000D
:102BB3008003122C9B122963E89AE99B5029E8FAB7
:102BC300E9FBEA75F00BA4FAACF075F00BEBA42C5F
:102BD300FB900336E02AFCA3E03B8C82F583E054B0
:102BE3000F70CF79008002790102370DC082C08354
:102BF3009004F112436EEC75F012A4FCA8F075F08A
:102C030012EDA428FD79FF7A2E7B091216460237AE
:102C13000D74F7120376E9FEEAFF7A007B00780071
:102C230079008028E8FCE9FDEC75F012A4FC85F03E
:102C33000875F012EDA425081230B0C39E400AE0D7
:102C4300FCEFC39C40031231CF122C9B1230A440E3
:102C5300D3023899C082C083780079008003122C94
:102C63009B122C8F501F1230B4F470F2E875F012DF
:102C7300A4F8AAF075F012E9A42AF9742E28FA74BC
:102C83000939FB80047A007B0002370D9004F112AE
:102C93003165C3E89AE99B22E8240108E93400F985
:102CA3002274F012037674F31209218A0A8B0B8CB7
:102CB3000C8D0D8908EC450D6016AA0CAB0D120B9B
:102CC300C08A0E8B0FAE0EAF0FEE4F6003022D6264
:102CD300120B968A0E8B0FA80EA90FE8FEE9FFE8E8
:102CE30049607C902527122DC46022740365086017
:102CF300067404650870167A047903120B90902504
:102D030027122DDB40077A007B00022DC190252579
:102D1300122DC4601B740165086006740265087097
:102D23000F7A027901120B90902525122DDB50D6D4
:102D33008518828519837401F0120AF3125354AC77
:102D43000CAD0D7403120AF3122E69740B120AF3FD
:102D5300123727123D1CE412533C1210708004EE0C
:102D63004F604A780074FF2508C394045002780426
:102D73008E828F831253548E828F83A3A3A3A3E5E2
:102D830008F0E88E828F83A3A3A3A3A312535C123C
:102D9300022512317C8E828F83A3A3A3A3A3A3A3B3
:102DA300F0123173120AD01258D4120ADC122DC950
:102DB3004005900E8AE4F0120F4AEEFAEFFB02434D
:102DC3002212547649227A047900120B909004F16E
:102DD300125F90EA98EB9922122DF47583047582A1
:102DE300F1E493C398F8A3E49399F9C3EA98EB99B0
:102DF30022E493F8740193F92274F212037674F3C4
:102E03001209218A088B09ECFEEDFF750A00EEFA20
:102E1300EFFB120BC08A0C8B0DA80CA90DE84960BF
:102E23003E88828983E065087004A3E06509602F0A
:102E330088828983A3A3A3A3E0C3940550211257D7
:102E4300828518828519837401F0120AF31257865A
:102E5300EEFCEFFD7403120AF3122E69750A01A941
:102E63000A740D024E20122E70120B7E22AA82AB20
:102E730083120B48851882851983AA82AB83227437
:102E8300F6120376122EBE600FA3A3A3A3E014C30E
:102E93009404500479018002790002394574F612D2
:102EA3000376122EBE600FA3A3A3A3E014C3940260
:102EB3005004790180027900023945120BBA8A82E3
:102EC3008B83E58245832274F6120376122EBE604D
:102ED3000BA3A3A3A3E07004790180027900023954
:102EE30045C082C083EAFCEBFD7A007B0002370A0F
:102EF300C082C0837C007D0002370A74F41203761B
:102F030074F3120921EAFEEBFF8C0A8D0BC3EC94D8
:102F1300F8ED94FF4007EE4F7003022FB7750800DA
:102F2300750900802E8518828519837401F0123388
:102F330022120AF312333060137403120AF3AC82C1
:102F4300AD83EEFAEFFB121F40E97049E508240157
:102F53001231509004F1E412547EE50898E5099982
:102F63005052E50875F012A4F8AAF075F012E509BD
:102F7300A42AF9125FC360D4EE4F70A974FF650AE7
:102F8300700474FF650B60C4123312650A7004A3E6
:102F9300E0650B70B7E50875F012A4F508A8F075A5
:102FA300F012E509A428F509742E2508FA740935E9
:102FB30009FB80047A007B00023AE174F412037681
:102FC30074F3120921750800120BC08A0A8B0BAE29
:102FD3000AAF0BEE4F602A8518828519837401129C
:102FE300389EF8A3E0F9740B120AF31239BF120BDF
:102FF300607C127D0079FFEEFAEFFB12164675082E
:1030030001122DC95009900E8A7401F0120F4AA9BA
:1030130008023AE174F7120376E9FE74FE6A70035C
:1030230074FF6B7800790070058052122C9B12306C
:10303300A4504AE8FCE9FDEC75F012A4FCAFF0756E
:10304300F012EDA42F1230B0F460E0E8FCE9FDECDF
:1030530075F012A4FC75F012EDA42FFD742E2CF55F
:103063008274093DF583E06A7003A3E06B70BC8052
:10307300091230B414C394044017122C9B122C8FE2
:103083005018EE70EC1230B464016005E064037014
:10309300E9123303FAA3E0FB80047AFE7BFF0238D4
:1030A300999004F1124372C3E89CE99D2212320401
:1030B30022E8FAE9FBEA75F012A4FAACF075F01213
:1030C300EBA42CFB74322AF58274093BF583E022CE
:1030D300120BD202370DC082C083790180F274F0E3
:1030E3001203768A0A8B0B7A047901120B908A0CED
:1030F3008B0DEA450D603EEAC333FAEB33FB12173F
:10310300068A088B09AE08AF09EE4F60237AFE7B6F
:10311300FF120BD874FE6A700374FF6B601B850883
:10312300828509831238A9E508240212315080E10F
:10313300750C0080047E007F00850A82850B83E581
:103143000CF0EEFAEFFB024327E5082407F508E548
:10315300093400F509229004F1124372C3EA9CEB8F
:103163009D22E493FA740193FB2212163A7403220C
:103173001258E5E4F090877222E88E828F83A3A32E
:10318300A3A3A3A3A3A312319E740112319EA3F0A0
:10319300EE24101258E8E4F0A3F022123D28A3A372
:1031A300A322C082C0837A007B008004191231CF2E
:1031B30012315950101231EEC3940550F0E970ECFE
:1031C3001231D880047A007B0002370DEA24010A09
:1031D300EB3400FB22EA75F012A4FA75F012EBA4AB
:1031E30028FB742E2AFA74093BFB22EAFCEBFDEC64
:1031F30075F012A4FCA8F075F012EDA428123204A5
:1032030022FD74322CF58274093DF583E02274F7B4
:1032130012037674F31209217E007F000232B6E5B1
:103223000875F017A4F8A9F0126224FAA3E0FBEEE4
:10323300F8EFF9E875F012A4F8ACF075F012E9A410
:103243002C1233116A7003A3E06B603FE50875F03D
:1032530017A4F8AAF0EA126223F8A3E0F9740112A2
:103263000AF3E0687003A3E0696020E50875F017CE
:10327300A4F8EAF974AA28FC740A39FD7403120A43
:10328300F3AA82AB83121F40E96014E50875F017B7
:10329300A4F8A9F074A828FA740A39FB12107C0563
:1032A3000890252BE493F8E508C3985003023222D3
:1032B3001232FA9004F112656A5039EEF8EFF912FE
:1032C3003303F47003A3E0F460E685188285198361
:1032D3007401F0EEF8EFF9E875F012A4F875F01246
:1032E300E9A42AF9123322120AF312333060C175AA
:1032F300080080AD023894EE24010EEF3400FF2263
:10330300E875F012A4F8AAF075F012E9A42AF912EC
:10331300331622742E28F582740939F583E022745A
:103323003028F582740939124316740B22E8F0A38E
:10333300E91239C7120B78E922C082C08390033D9A
:10334300743CF0A3740EF090033F7436F0A3740E34
:10335300F09003437456F0A3740CF002370D74F726
:10336300120376EAFEEBFF900377E06408601BE04C
:10337300640460168E828F83E054036401704812E4
:10338300371A123E1DE06406703D8E828F83A3A31D
:10339300E064FE7003A3E0F4602D8E828F83A3A309
:1033A300123930900368E0687003A3E069700BEE94
:1033B3002415F582EF125FAA6008120EEAE9F508F8
:1033C3008008120EF080F67508C2EEFAEFFB1217B2
:1033D3000C02286574F41203768A088B098A828B9F
:1033E30083E0F8A3E0FAE82AFAE43400FB121706B4
:1033F3008A0A8B0BAE0AAF0BEE4F6063850882859A
:103403000983E0FC7D0079001216468E828F83A328
:10341300A31268DF120F2C8E828F83A3A3A3A312A0
:1034230038A9850882850983E0F8EE28F8EF34008F
:10343300123938850882850983A3E0C0E0EE240DA4
:103443001258D7D0E0F0120F3EEE240E1258D7E9EF
:10345300124F89E0C0E0EE24111258D7D0E0F0EE0D
:10346300FAEFFB023AE674F412037674EB120921C5
:103473008A088B098C0A8D0BE9FE900377E06404BC
:103483006005E06408700479C2802EA37808120AEC
:10349300B4EE90037E123714120AB47405120AF3C1
:1034A300E9F07404120AF37401F07407120AF3E4E6
:1034B300F090037774021236A87415023AE374F697
:1034C30012037674EB120921EAFEEBFF124BAB6099
:1034D300030235657A077B00121706900339123809
:1034E300A9124BAB60788E828F83120AD090033A75
:1034F300123E20120ADC1267A3C0E0123571D0E03D
:10350300F0EE2405FAEF3400FB8A088B098A82F572
:1035130083E0C0E012356CD0E0123ADDE0C0E01287
:10352300356CA3D0E012391D120AD0851882851993
:1035330083120ADC88828983E0C0E07405120AF3EF
:10354300D0E0F0850882850983E0C0E07404120AA4
:10355300F3D0E0F07407120AF31236A7800679104D
:10356300800279017415023942123571A322900346
:1035730039E0FAA3E0F5838A82A3A3A3A322C0823E
:10358300C083124BAB600D9003391254B5900339CD
:10359300E4F0A3F0120E5A12101C02370D74F0124D
:1035A300037674EB120921ECFEEDFF8908742512F2
:1035B3000AF3780C120A967429120AF3E0F9742AB2
:1035C300120AF3E0FC742B120AF3E0FD740F697026
:1035D30005740F6C6012900EE5E06402700579C10A
:1035E3000236A2E9C39C40F6900378780C120AB421
:1035F300E50890037EF0E990037CF0ECA3F0ED90F6
:10360300037FF074FF6A700374FF6B701D900EF0FC
:10361300E0F47003A3E0F4700512165E800C900EC4
:10362300F0123871E8F0A3E98007900375EAF0A37C
:10363300EBF0EE4F6017EEFAEFFB1210DCE96401DA
:10364300700BEEFCEFFD7A897B03121F4690036833
:10365300E4F0A3F090036BF0A3F0900388F0900ED6
:10366300E5E06402700890037C740FF0A3F090030C
:10367300777405F014120AF3E4F0900378120AD079
:10368300851882851983120ADC90037EE0C0E074FA
:1036930005120AF3D0E0F07407120AF31236A77486
:1036A30015024324E41239C7121F7622C082C08355
:1036B300900338E070031219DC120C20804CC08296
:1036C300C083900338E0900E897004E4F0802D7479
:1036D30001F0900338E0F460237C41E0C39441504F
:1036E30002E0FCECF8E0C398F0EC75F0E8A4CCA899
:1036F300F075F003A428FD7A8012437A7A897B0E51
:103703007941121F5E8003120BC6D083D082020858
:103713003F123928780822EE1258E622E0F508A372
:10372300E0F5092212372B22122AA5A32274F512DF
:10373300037674E2120921851882851983ECF0A3BC
:10374300EDF0EAFEEBFF89087429120AF3E0F509AC
:10375300742C120AF3E0F50A900377E06404600521
:10376300E06408700579C2023862742A120AF3E031
:1037730064FE7003A3E0F4700579C302386290031A
:103783007774031239C37950121F5E742A120AF335
:10379300AA82AB83794B121F5E8518828519831227
:1037A300387112393CE50890036AF0742A120AF35F
:1037B30012386A12393CE50990036212387874CEE4
:1037C30055094480C0E07412120AF3D0E0F074018A
:1037D300250A900388F0740F120AF37402F0742A16
:1037E300120AF31239307407120AF3E8F0A3E9124C
:1037F30038AF7410120AF312393C7405120AF3E558
:1038030008F0741B120AF3E4F090037D740FF07A4E
:103813007D7B037954121F5E90037C740FF07A7CD6
:103823007B037947121F5E90037CE0C3940F502300
:103833007405120AF3E0C0E07402120AF3D0E0F058
:103843007404120AF37401F004120AF3AA82AB831C
:10385300121F827405120AF3AA82AB83121F6474C7
:103863001E1208A702272C12431890036B2212433F
:103873001890037522F0EEFCEFFD7A897B03121F8B
:10388300462274F7120376EB90037FF0120E488002
:1038930005740D1208A77F010205911238A4A3E055
:1038A3002212391DA322EAF0A3EBF022123923F8E6
:1038B300A3E0F92274F712037674F8120921EAFEE1
:1038C300EBFF7900900377E06408704485188285E4
:1038D300198374FDF0A374FFF0120F267402120A09
:1038E300F31238A97405120AF3E41238A4E0C0E015
:1038F3007404120AF3D0E0123918C0E07406120AF5
:10390300F3D0E0F07407120AF3E41239C3120F681C
:10391300740802389612391DE022F08E828F8322BA
:10392300123928E022F08518828519832212431860
:1039330022E0F8A3E0F91258E5E8F0A3E9F0221237
:1039430008A77F02020591C082C08390034974E6F1
:10395300F0A3740CF09003EF74C2F0A3740FF09013
:10396300034D741CF0A3740DF090034F74E6F0A3A1
:10397300740CF09003517422F0A3740DF002370D10
:1039830074F412037674F91209218A088B098C0ADC
:103993008D0B8518828519837808120AB474041272
:1039A3000AF3E9F07405120AF3E4F07406120AF359
:1039B300E41239C3120C087407023AE3E8F0A3E9EE
:1039C3001239C722123928AA82AB832274F4120354
:1039D300768A088B098A828B831258F3EE4F700321
:1039E300023ADB900312124BAE60158A828B83A3DB
:1039F300A3E0F9EEFAEFFB900313123E20122137F6
:103A03008E828F83A3A3A3A3A3A3A3A3A3E0640290
:103A130070748E828F83A3A3A3A3A3A3E054027025
:103A230003023AAD850882850983A3A3E064E960B4
:103A3300798E828F83A3A3A3A3A3A3A3A3A3A3E0AA
:103A43007014900EE8E0048E828F83A3A3A3A3A334
:103A5300A3A3A3A3A3F08E828F83A3A3A3A3A3A350
:103A6300A3A3A3A3E014123ADDA3A3A37404F090C9
:103A73000EE912532EE8F0A3E91264078B0BEA4513
:103A83000B7003125DE58E828F83A3A3A3A3A3A36D
:103A9300A3A3A3E0640260128E828F83A3A3A3A3D4
:103AA300A3A3A3A3A3E06406702E8E828F83A3A394
:103AB300A3A3A3A3E0A2E0501F850882850983A3E3
:103AC300A3E0F9EEFAEFFB1220188E828F83A3A3F3
:103AD300A3A3A3A3E054FEF08009123D2422740D96
:103AE3001208A77F0402059174EC12037674DD12A9
:103AF3000921EAFEEBFF8C088D097437120AF3786B
:103B03000C120A96750A007405120AF3AC82AD838F
:103B13001215C27412120AF3E070087415120AF334
:103B2300E060207405120AF3E0A2E6501E8E828F35
:103B330083A3A3A3A3A3A3A3A3A3125028120F9EFB
:103B4300E960087903121F2E023D0A7405120AF375
:103B5300E0540C64047005750B018003750B00E0E1
:103B6300A2E55035750A01E50BA2E0402C120F2C9B
:103B73008A108B11A810A91112371AE0687003A3D9
:103B8300E06960157405120AF31268E612502412F4
:103B93002024E96004790480AC7405120AF3E0A2DE
:103BA300E650227406120AF3E054037018740512E7
:103BB3000AF3E0540C640C600CE0540C64086005D8
:103BC30075100180037510007405120AF3E05403A5
:103BD300F8740268700C1268E6125024120B120279
:103BE3003D0A740168703AE510A2E05003123D12D9
:103BF3007405120AF3A882A9837403120AF3E8F086
:103C0300A3E912430C851882851983123D1CE0C079
:103C1300E07402120AF3D0E01239C3122108023D04
:103C23000AE86003023D0A90035FE0640170108EAE
:103C3300828F83A3A3A3A3A3A3E07003023B98747F
:103C430022120AF3740212430C741A120AF3123981
:103C53003CE510A2E050087405120AF3123D12E588
:103C63000BA2E0506AEE240FF582EF125FAAC0E0C8
:103C73007417120AF3D0E0F0900314124BAE7003E2
:103C8300023D0A120F2C8A128B13A812A913741A5D
:103C9300120AF3E0687003A3E069706B780C1208F2
:103CA30057780A120863780812085FA910740C1277
:103CB3000AF3AC82AD837421120AF3AA82AB839018
:103CC3000314123E1D12213774071208A780387897
:103CD3000C120857780A120863780812085F9003D9
:103CE30075120696EE2412F582EF125CD874231235
:103CF3000AF3AC82AD83740E120AF3AA82AB831269
:103D0300200C74091208A774231208A70263D212A5
:103D130068E61254C3120B0622E8F0A3E9123D240D
:103D230022123D2822F08E828F83A3A3A3A3A3A3F1
:103D33002274F71203761218B002389974F712033B
:103D4300761218B602389974F71203761218C20263
:103D53003899C082C0831218BC02370D74F712035E
:103D6300761218C802389974F71203767409120A86
:103D7300F3E0F50878081208631218D474010238C6
:103D830096C082C0831218E002370DC082C083122E
:103D930018E602370D74F71203761218EC023899FD
:103DA30074F7120376EAFEEBFF8908740165087065
:103DB300147900120D5E902536E493FC7900EEFA37
:103DC300EFFB120CD402389974F412037674F912CF
:103DD3000921E9FE8A088B098C0A8D0B7413120AD8
:103DE300F31250289005A2124BAE6027EE8518827D
:103DF300851983F07401120AF37808120AB4EAF8F9
:103E0300EBF97405120AF31239BF9005A2123E1D95
:103E13001221370239BAFB90034BE0F8A3E0F58394
:103E2300888222C082C08312192202370D74F712CE
:103E33000376900E8CE0F97E00800B125F96540D92
:103E430064017001190E12402A5003E970ED023823
:103E53009974F7120376900E8DE0F97E00800B12B1
:103E63005F96548D64817001190E12402A5003E944
:103E730070ED02389974F2120376890BE975F00636
:103E8300A4240CF508E5F01231548A0CE508250C3E
:103E9300FAE5093400FB1217068A0C8B0DAE0CAF42
:103EA3000DEE4F6027AC08AD0979001216461237A4
:103EB3001AE50BF0EE2508F8EF3509F98E828F83AA
:103EC300A3A3A3A3A3A3A3A3A312393CEEFAEFFBDB
:103ED300024E2374F6120376EAFEEBFF120CB09047
:103EE3000E8BE0F8E9C3984009900345125028125D
:103EF3000CB6EE2402F8EF1256389003471254F230
:103F0300900347E004F0EEFAEFFB120CBC85088245
:103F1300850983E0025AEEC082C08379009003458D
:103F23008001091250288A828B83E582458370F2CF
:103F330002370D74F7120376EAFEEBFFEE4F60567D
:103F4300900345124BAE604E888289837A007B00D2
:103F5300EE65827003EF6583600FAA82AB83123F25
:103F63009CE5824583602F80E7900345123FA86854
:103F73007002EF698E828F83700812393090034587
:103F830080031263E412393CEEFAEFFB1220D8EE01
:103F9300FAEFFB12170C023899123FA02212431CAE
:103FA3008882898322124318EE22C082C083900341
:103FB30045800488828983124BAE600B8882898393
:103FC300124660EC4D70EC8A828B83E4F0A3F0E838
:103FD3004960068882898380039003451238A902C9
:103FE300370D74F712037690034580048A828B831E
:103FF3001240254B60257E0080010E12402A50ECB2
:10400300EE75F006A4FCADF0EA2CFCEB3DFDEC24D0
:1040130010F582ED12407A70E180047A007B000291
:1040230038991254C7EA22124083EEC3982274F7D8
:104033001203767D0080010D12407FEDC39850344A
:10404300ED75F006A4FEA8F0E8FFEA2EFEEB3FFFB5
:10405300EE2410F582EF12407A70DCED75F006A4C1
:10406300FEE8FFEA2EFAEB3FFBEA2411F582EB129E
:104073005FAA4CF0023899125FB66922124083227C
:104083001268F0EB3400F583E0F82274F61203763D
:10409300120DD67A007B008025EAF8EBF9E875F07B
:1040A30006A4F8ACF075F006E9A42C12549C126730
:1040B300B1A3E4125592F0A31267B712692E9025AB
:1040C3001F122DD340D37A007B00801C8A088B09F2
:1040D30074037808120A22124F50A374FEF0A3044B
:1040E300125372A3E412692E90252A12412D40DC4B
:1040F3007A007B00801D8A088B0974037808120AF2
:104103002274D0125C22740D12646974FEF0A3044D
:1041130012692E90253012412D40DB902529E4931E
:10412300900353F0124137023945E493F8C3EA98F8
:10413300EB9400227CE87D037A107B009003C2E0BD
:10414300F91217CC2274F012037674F51209218A3E
:10415300088B09890A8C0BE9A2E050147508FC75D9
:1041630009FFA2E15005D2E402420AD2E302420A65
:10417300124E0F7003A3E069700579000242D7ACB9
:104183000A7902AA08AB09120DB2E960EDE50AF556
:104193000C780C12086379027CFE7DFFAA08AB0938
:1041A300124B8A1208A7E960030242D5E50AC2E569
:1041B300F50A9003B5E07051E50AA2E6404B74039B
:1041C300120AF3AC82AD83AA08AB09120B54E9704F
:1041D300321244AB8A0C8B0DA80CA90DE8FEE9FF43
:1041E300E8496025EE24020A0AEF122AE3601AEE78
:1041F3002402FCEF3400FD7403120AF3AA82AB839A
:10420300121F46E50AD2E5F50A900348E0F50C9043
:104213000368E0F50EA3E0F50F780E12085F7D0149
:104223007C00900348E0F9AA0EAB0F120D6A7402EA
:104233001208A7E9F8900348E004F0E8600302429B
:10424300D5E50AA2E55004740E80027406C0E0743A
:1042530001120AF3D0E01259048A0E8B0FAE0EAF8F
:104263000FEE4F60691242F512430C888289837402
:1042730001F07478550AA31268F6E50C1268F6A3E8
:10428300E508F0E5091242E4E4F0E50AA2E5500F7F
:104293007403120AF3AC82AD83E824061242DB8E68
:1042A300828F83A3A374FDF0A374FFF0E50B601565
:1042B300902537E493F8E50BC3985009EE241312C5
:1042C30058D7E50BF0EEFAEFFB120BF680067910E8
:1042D300800279C7740B8049FAE93400FB121F4648
:1042E3002288828983A3A3A3A31242F02212566BCE
:1042F300A322EE24171258E87401F0120F26EE24BD
:104303001A1258E8EAF0A3EB22F01268EA3400121A
:10431300431622F58312431C22E0F8A3E0F922742A
:104323000D1208A77F0802059174F61203767A002E
:104333007B10125DF260089003D47401F080299021
:104343000643E06401900EE67006E0FC7901800408
:10435300E0FC79037A007B00120CD490251D1243F4
:104363006E7A007B1012437C02394512437222E4B9
:1043730093FC740193FD227B009003C2E0F91217B2
:10438300C62274EC1203768A088B098C0C8D0D8976
:104393000E7414120AF3124D697416120AF3E0F53F
:1043A30010A3E0F511120F9EE960077AFF7BFF026D
:1043B30044A8900EE5E06402600302449B7900AADE
:1043C30008AB09120DB8A90E120DAC8A128B13AEED
:1043D30012AF13EE4F70030244838E828F83A3A325
:1043E300A3A3A3E064018E828F83A3A370691250F9
:1043F300288E828F83A3A3A3A3A3A3E054186043AF
:10440300902535E4938E828F83A3A3A3A3F0EA655B
:104413000C7003EB650D6014EA650A7003EB650B22
:10442300600AEA65107003EB6511701F78101208BB
:104433005FAC0AAD0BAA0CAB0D12109A74021208F2
:10444300A78008900367125DDCA3F074FE6A700313
:1044530074FF6B601D804EA3A3A3E0640360298EE9
:10446300828F83A3A3A3A3A3E0640470057AFE024F
:1044730043B08E828F83A3A3A3A3A3E06402700837
:104483009003B4E0640270101244AB8B0BEA450B4B
:104493006006AA08AB09800DAA08AB09900349126C
:1044A3003E1D1221370263D2900375124B901210F6
:1044B3005E2274F7120376EAFEEBFF120BA8E97093
:1044C3000AEEFAEFFB120BB4E96006EEFAEFFB809B
:1044D300047AFE7BFF02389974F01203768A0A8B02
:1044E3000B8C0E8D0F8909750800120F9EE9790058
:1044F3006003024652AA0AAB0B120DB8A909120DAA
:10450300AC8A0C8B0DAE0CAF0DEE4F60198E828F03
:1045130083A3A3A3A3A3E0640270559003B4E06450
:10452300027003024650AA0AAB0B90034F123E1DC2
:10453300122137120BBA8A0C8B0DA80CA90DE8496E
:10454300700302465088828983A3A3A3A3A3E0A296
:10455300E04003024650750C01A2E150687901ACBA
:104563000AAD0BAA0EAB0F120D04E970640246509C
:104573008E828F83A3A3A3A3A3E064037005750CAA
:104583000280528E828F83A3A3A3A3A3E06401605E
:10459300030246509003751246608E828F83124940
:1045A300B58A0C8B0DA80CA90DE84960D190252E76
:1045B300E493FA88828983E0C39A50C2A3E060033C
:1045C30002465080B988828983A3A3A3A3A3D2E11F
:1045D300F0EE4F603A8E828F83A3A3A3A3A3A3E03D
:1045E3005418602B7508018E828F83A3A31206963D
:1045F300750CFE750DFF780C12085F7900AC0AADDF
:104603000BAA0EAB0F120DCA74041208A7803E90BA
:104613000368E0650E7004A3E0650F7014902536FF
:10462300E493FCA909AA0AAB0B120CD47508018008
:104633001CA90CAC0AAD0BAA0EAB0F120D04E9704A
:104643000C750801A909AA0AAB0B120D5EA9080291
:104653004327E50C2415F582E50D1258EB12534858
:104663002274EA12037674F01209218A0C8B0D8CE2
:10467300088D097426120AF3E0F514A3E0F5157505
:1046830012069003F5124BAE602390037512466039
:10469300AA08AB091210888A108B11EA4511600D24
:1046A3008A828B83A3E07005790002499DE50C247F
:1046B3001DF50EE50D3400F50F850E82124B9AF5AC
:1046C3001388828983A3A3A3E0FA88828983A3A39F
:1046D300A3A3E0F9EA2400FEE439FFAA08AB091218
:1046E3000D64850E82850F831249D8E029F50BE509
:1046F3000AA2E5500375120E7487550A70177418D1
:10470300550A6418600FE50C2417F582E50D125F56
:10471300AA651260077901121F2E808C530A78C391
:10472300EE94F8EF94FF501D7900EEFAEFFB124977
:10473300A7601288828983A3A3A3A3A3A3E0541829
:1047430060030246AB780812085F7D001249CB1262
:1047530008A7E9F874036870030246ABE860030234
:1047630048167418550A70030248CBE50AD2E0F5DF
:104773000AA2E45004D2E1F50AA90A12502112490F
:10478300A7605388828983A3A3A3A3A3A3E0541898
:10479300604488828983A3A3A3A3A3E06401703642
:1047A300E510451160309003751246608882898355
:1047B3001249B58A0E8B0FA80EA90FE84960178816
:1047C300828983A3E0600F851082851183A3125A27
:1047D300F950030246ABE50AF50E780E1208631290
:1047E30049BE1208A7E9702B7C007D0085148285E1
:1047F300158374FFF0A3F0850C82850D83A3A3A317
:10480300A3A3A3A3A3E06003124655A90B1250214F
:104813001218DA851482851583E0F47003A3E0F49B
:1048230060399003B4E0640270030246AB124D5A40
:10483300E0FAA3E0123E19122137EA65087003EB90
:10484300650960030246ABEEFAEF123E19122137F7
:10485300851482851583EAF0A3EBF0780812085FCC
:104863007D011249CB1208A7A90AEEFAEFFB120D3C
:10487300B88A088B09A808A909900368E06870033F
:10488300A3E069600302498EEEFAEFFB120BBA8ACA
:10489300088B09A808A909E849606E88828983A35F
:1048A300A3A3A3E06401600D88828983A3A3A3A3C8
:1048B300E064027054851882851983AC82AD83EE5F
:1048C300FAEFFB120B548055900361E0600FE50A89
:1048D300F50E780E1208631249BE1208A7E50AF511
:1048E3000E780E12086379027CFE7DFFEEFAEFFB71
:1048F300124B8A1208A7E9600302481685148285C1
:10490300158374FFF0A302485D120F26EAFCEBFD4A
:10491300851882851983AA82AB83121F46850C8270
:10492300850D83A3A3A3A3A3A3A3A3E06401700F93
:104933001246557408120AF3AA82AB83121F461259
:104943004B641257704430F50878081208637401F9
:10495300120AF3858208858309780812085F740BAD
:10496300120AF3858208858309780812085FE51324
:10497300F50878081208637900EEFCEFFD12502168
:10498300120CFE74061208A70246AB124B641258AF
:10499300DA1249D8E50BF0120F3E74101208A77F04
:1049A3000E020591120DAC8A0E8B0FA80EA90FE80B
:1049B3004922A3A31254C7121088227901AC08AD6F
:1049C300091254BC124B8A22AC0BA9131254BC1209
:1049D3000D6A740222125778A3A3A3A32274F012C0
:1049E300037674F01209218A0C8B0DECFAEDFB753A
:1049F3000F089003F5124BAE6014125AF28A828BA1
:104A030083E58245836007A3E07003024B5F124B8B
:104A1300643400124B9AF50B88828983124B6DE044
:104A2300FBEC2400FEE43BFF88828983A3A3124BA3
:104A33006DA3A3E0FBECF508E43BF50988828983C9
:104A4300A3A3A3A3A3A3A3E0F50EE50AA2E4500343
:104A5300750F10A2E550067408250FF50F748F55D6
:104A63000A700FE50C2417F582E50D125FAA650F96
:104A730060087901121F2E024B5F530A707800E51C
:104A83000AA2E45022124B64125FAA2408FCA3E09A
:104A93003400FD7408120AF3AA82AB83121F46780E
:104AA30008E50AC2E4F50AE50AA2E55028124B64B8
:104AB300125FAA28F8A3E03400F9E82408FCE934DB
:104AC30000FD851882851983AA82AB83121F46E5F0
:104AD3000AC2E5F50AAC0EA90BEEFAEFFB120D7054
:104AE300E9F87403686075900368E06E7003A3E0EF
:104AF3006F605EE87054E50AF50F780F12086312D1
:104B03004B7B1208A7E97054780A120863740112E8
:104B13000AF385820C85830D780C12085F740B12DF
:104B23000AF385820C85830D780C12085FE50BF57B
:104B33000A780A120863A90EAC08AD09EEFAEFFB76
:104B4300120CFE74061208A78012740468700D809C
:104B5300B7780A120863124B7B1208A7741002433A
:104B630024E50C241DF582E50D22A3A3A3E0FC8814
:104B7300828983A3A3A3A3227901124D611258EB67
:104B8300124B90124B8A22120D28740122E0FCA3CF
:104B9300E0FDAA08AB0922F583123FA0A3E0F50AC2
:104BA30088828983A3A3E0229003391255232274B8
:104BB300E812037674F5120921EAFEEBFF8C088DE7
:104BC3000989147423120AF3E0F50F7424120AF30B
:104BD300E0F512A3E0F5137426120AF3E0F516A329
:104BE300E0F5177428120AF3E0F50EA90F120D76FB
:104BF3008A108B117401120AF37408F0E50EA2E413
:104C030050037410F0E50EA2E55004E02408F0858B
:104C13001882851983AA82AB83120F868A0C8B0DA7
:104C2300EA450D7003024D41EA2417F582EB124D5C
:104C330053120F26E50C241AF582E50D1258DA12E9
:104C430038A97403120AF3AC82AD83AA10AB111214
:104C53000B54E9601D124D4B7403120AF3A882A989
:104C630083E50C2418F582E50D1258DAE8F0A3E980
:104C73008024E50EA2E4501FE5106E7003E5116F6A
:104C83007015124D4BE50C2418F582E50D1258DA18
:104C9300E512F0A3E513F0124D5A124D69850A820D
:104CA300F5837402F0A3E50E124D71E50FF0EE8566
:104CB3000A82850B83A3A3A3F0EF850A82850B8366
:104CC300A3A3A3A3124D71A3A3A3E508F0E509854C
:104CD3000A82850B83A3A3A3A3A3A3F0AA10AB11FA
:104CE300120D64E92514850A82850B83A3A3A3A36C
:104CF300A3A3A3F0750800E50EA2E45011AC12AD16
:104D030013E50A2408FAE50B1242DD750808E50EDF
:104D1300A2E55014AC16AD17E50A2508F8E50B34E7
:104D230000F9E824081242DB850C82850D83A3A3D6
:104D3300E510F0A3E511F0AA0CAB0D120BF6740B02
:104D43001208A77F10020591E50C2416F582E50DE4
:104D53001258EB7401F022124D611258EB22E50C4C
:104D63001268F1E50D22E0F50AA3E0F50B22F085C8
:104D73000A82850B83A3A32274F21203768A088B1B
:104D830009ECFEEDFF890A7900124E0F7003A3E0D0
:104D930069700479018073750B01900368E06508FD
:104DA3007004A3E06509601F750B00780B1208639C
:104DB300A90AEEFCEFFDAA08AB09120FDA7401127F
:104DC30008A7E9F50B80417900EEFAEFFB120DAC71
:104DD300EA4B602B8A828B83A3A3A3A3A3A3E054F0
:104DE30018601C7508FE7509FF780812085F8A822F
:104DF3008B83A3A31206961267061208A78009796C
:104E030001EEFAEFFB120C86A90B8014120DB88A7F
:104E13000C8B0DA80CA90D900368E068221208A75B
:104E23007F0602059174F412037675081875090C50
:104E33007A1012640E8B0BEA450B70031241379004
:104E43000353E014F0700C902529E493900353F07E
:104E5300120DC47E007F00806C850882850983A3C0
:104E6300A3A3A3E06059F46056E5082404F582E5A2
:104E730009125DD67049850882850983A3A3A3A37C
:104E8300A3E06403701979028508828509831246B9
:104E930060850882850983A3A3125028120D048517
:104EA3000882850983A3A3A3A3A3E06401601085FB
:104EB300088285098374FEF0A304124F82E4F01282
:104EC30032FA12314C90252312656A408C7E007FA2
:104ED300008039120ECC8E088F0974037808120AE9
:104EE3002274902508FC740D3509FD7A107B0D1290
:104EF3000EBAEA4B70DD8E088F0974037808120A24
:104F030022124F501267B1E4F01232FA90252AE4CC
:104F130093F8C3EE98EF9400501B8E088F09740327
:104F23007808120A22124F58E82407F582E9125D25
:104F3300D670D680A17E007F00800A124F63600284
:104F430014F01232FA12656740F1023AE6124F5832
:104F5300888289832274902508F8740D3509F92213
:104F6300EEF8EFF9E875F006A4F8AAF075F006E993
:104F7300A42AF9743028F582740D39F583E02212DE
:104F83004F89A3A3A322F0850882850983A3A322C3
:104F930074F712037674E1120921ECFEEDFF750834
:104FA30000EE4F60728A828B83E0241C125E07122C
:104FB3004BAE60638A828B831250288518828519D1
:104FC30083AC82AD83EA241BF582EB125CD8EA241E
:104FD3001CF582EB125024120F0E740B120AF312FB
:104FE300502C7003A3E069702E7402120AF3E0647C
:104FF300017024741D120AF3123E1DE06401701740
:10500300741D120AF3123E1FA3A3E0F88E828F834E
:10501300E0687003750801A908741F023896124DE1
:10502300613400F5831254C722122AA1E068227466
:10503300F4120376E97024790090034D123E1D1299
:1050430021378A0A8B0BAE0AAF0B74FE6E700374A2
:10505300FF6F701A902531E4936013790190034D2B
:10506300123E1D1221378A0A8B0BAE0AAF0B120FA9
:105073004A02346274F612037674F312092112168B
:105083005E8A088B09AE08AF09900368E06E70036F
:10509300A3E06F60E9120F32EA6E7002EB6F60DE1D
:1050A300EEFAEFFB120F9EE970D4EE4F60D0851835
:1050B30082851983E4F004120AF3EEF0A3EF125091
:1050C300DAE970BA74FE6E700374FF6F60B0EEFAC3
:1050D300EFFB740D0239421239C7120B6C22C082E6
:1050E300C083120F4A02370D7F0A02059174F21230
:1050F3000376EAFEEBFF8C0A8D0B8908740E120A05
:10510300F3E0F50974FC6E700374FF6F70057900AA
:10511300024E237900120DB88A0C8B0DAE0CAF0D25
:10512300900368E06E7003A3E06F7006E509A2E6E2
:1051330050DCA9091265F4706179007AFE7BFF12D5
:1051430065F4705674185509700302522778007974
:10515300008003122C9B902523122C9240030252B1
:1051630027E8FAE9FBEA75F007A4FAACF075F00753
:10517300EBA42CFB741E2AF582740C3BF583E054DC
:105183001870D0E875F007A4F8AAF075F007E9A441
:105193002AF9741828F8740C39F988828983A3A32F
:1051A300A3A3A3A3E054186009741855097003025C
:1051B300511188828983EEF0A3EFF074FE650A70C3
:1051C3000474FF650B600312534E88828983A3A383
:1051D300A3A3A3A3E509F0A2E0500D88828983A3CA
:1051E300A3A3A3A3A3D2E2F07401650888828983F1
:1051F300A3A3A3A3A370387401125372E0541860DD
:1052030028902535E49388828983A3A3A3A312530B
:105213003C1210888B0DEA450D6003025111780092
:10522300790080397902025113900367E080D7E057
:105233006401700302511188828983A3A3A3A3A3EA
:10524300A3E054186007902535E493800490036627
:10525300E01242E4E508F0025111122C9B90252B39
:10526300E493FAC3E89AE9940040030251117A00E7
:105273007B00804BEAFCEBFDEC75F007A4FCAEF081
:1052830075F007EDA42EFD741A2CF582740C3DF510
:10529300831258F3E8FCE9FDEC75F017A4FC85F0E4
:1052A3000975F017EDA42509FD74A82CF582740A7D
:1052B3003DF583E06E7003A3E06F609E1231CF90E3
:1052C300252312315C40AD12436EEC6A7002ED6B24
:1052D3007088E875F017A4F8AAF075F017E9A42A06
:1052E300F974A828FE740A39FF7C177D007900EE53
:1052F300FAEFFB1216468E828F8312535490037576
:1053030012532EA3A3A3A3A3A3E8F0A3E912533438
:105313007401F0EE240E1258D7740112535C12027A
:1053230025EE240D1258D7E802525912372BA3A3A6
:1053330022F0EE240F1258E822F0125345AA0AABCA
:105343000B22900375E0FCA3E0FD2288828983A3EE
:10535300A3E50AF0A3E50BF022F012536122902596
:105363002EE4932401F8E43400F97A027B0022123C
:1053730042F0A32274ED1203768A088B09890E1278
:1053830054A540057905025473121928AA08AB09DC
:1053930012557790251F125476650A7003E9650B41
:1053A30070077AFE7BFF12557790251FE412547E17
:1053B300E50A98E50B994003025471125482601276
:1053C300E50A75F006A4F875F006E50B1254CD1244
:1053D300170CE50E6018E50A75F006A4F8AAF07537
:1053E300F006E50B1254F9701A7901025473E50AB9
:1053F30075F006A4F8AAF075F006E50B1254DAE48A
:10540300F0A3F0E50A75F006A4F8AAF075F006E536
:105413000B12549AA312578688828983A3AA82AB5C
:10542300831254E88A828B83E0603F125482603A8D
:105433008E108F11751200781012085BE50EC333BE
:10544300FCE433FDE50A75F006A4F50AA8F075F04F
:1054530006E50BA428F50B7434250AF582740D3583
:105463000B12502612316D1208A7790080027907BA
:1054730002660A122DF4E8229004F1125F9122E5EC
:105483000A75F006A4F8AAF075F006E50B1254D5D8
:10549300F8A3E0F9E84922A42A12562E88828983C8
:1054A300A322ECFEEDFF90252CE493F8E9C39822A8
:1054B300F5831254C712170C22E50C1268F1E50D9F
:1054C3003400F583E0FAA3E0FB221254D5FAA3E0FB
:1054D300FB221254DAE022A42AF9743428F58274E8
:1054E3000D39F58322E50EF0900EE71254F222E017
:1054F30088828983F022125652F50CE93400F50DA7
:10550300E50EC333FAE433FB121706850C82850DCF
:1055130083EAF0A3EBF0850C82850D8312552322D9
:1055230012431CE8492274F4120376ECFEEDFF7477
:105533000C120AF312393088088909125577AC0A1C
:10554300AD0BECF8EDF990251F12557F5021E8754E
:10555300F006A4F8AAF075F006E912549AE08E82D8
:105563008F8312559212558812393C790080027943
:1055730004023AE6120D3A8A0A8B0B22123165C3F2
:10558300EC9AED9B22124318850882850983221227
:1055930056672274F61203767E007F008028EEF8A9
:1055A300EFF9E875F006A4F8ACF075F006E9A42C61
:1055B300F9743228F582740D1262156A7003A3E040
:1055C3006B60571232FA12656740D312656270023C
:1055D300E96F704674FE6A700374FF6B703C7E0063
:1055E3007F0080031232FA126567502E124F6370E8
:1055F300F3EEF8EFF9E875F006A4F8125624125604
:10560300596017125640F8E912563888821254B37B
:10561300850882850983E4F0A3F0EEFAEFFB0239F3
:105623004575F006E912562C22A42AF9743028F89D
:10563300740D39F9223400F98808890922EEF8EF4C
:10564300F9E875F006A4F875F006E912565222122D
:10565300562CE8240422A3A374FE12566412552385
:1056630022F0A30412566B22F088828983A3A3A39A
:10567300A32274F6120376EA241DF582EB12577007
:10568300F9604BEA241DF582EB125FAA2402FCA306
:10569300E03400FD1254A9400302576378008029C7
:1056A3008C828D83E0F508A3E0FFE5082400E43F46
:1056B300F509E833FEE433FF74782EF582740D3F69
:1056C300F58312578612576608E8C39940D28A8237
:1056D3008B83A3A3A3A3A3A3A3A3A31246609003B3
:1056E30068E06C7003A3E06D700F7C787D0D122A67
:1056F3000A125024120D2E8067EA2411F582EB1250
:105703005FAA605CFC74FF2CF0750801780812082E
:105713006375087875090D780812085FE9F508784C
:1057230008120863EA2412F582EB125FAAF50878DF
:1057330008120863EA2415F582EB1258DA1206966A
:10574300ECF9122A0A12465D8A828B83A3A3A3A3D0
:10575300A3A3A3A3A3125028120D4674071208A7EC
:10576300023945EC24020C0CED3400FD221258EBF7
:10577300125778E022E0F8A3E0F5838882A3228819
:10578300828983E508F0A3E509F02274EA1203761F
:1057930074FD1209218A148B158C0E8D0F890D74DB
:1057A30019120AF31258F3741B120AF3E0F5117479
:1057B3001C120AF3E0F50C741D120AF3124D6974FE
:1057C3001F120AF3E0F5106008E50CC333240480CC
:1057D300027402C0E07401120AF3D0E01259048A81
:1057E300088B09EA450970030258CF8A828B83A389
:1057F300A3E514F0A3E5151263FDE50EF0A3E50F91
:10580300F0EA2413F582EB1258DAE50DF0EA2414DA
:10581300F582EB1258DAE511F0EA2417F582EB1260
:105823005FAA64017040120F2C8A0E8B0FA80EA979
:105833000F850882850983A3A3A3A3E0687003A34C
:10584300E0696022EE4F6011E508241AF582E5094C
:105853001258DAEEF0A3EF800CE5082417F582E581
:10586300091258DAE4F01258DE1258F38E828F834D
:105873007405F0A3E5107004E50C80487401250C51
:105883001258FD7A008028850A82850B83E012581E
:10589300F9850A82850B83A3E08E828F83F0E50A64
:1058A3002402F50AE50B3400F50BA30EAF830AEAD5
:1058B300C3950C40D2120F2CEA1258F9120F2CEB9D
:1058C3008E828F83F0AA08AB09120BF67403024988
:1058D3009FEE240CF582EF1258EB22122A1B12586A
:1058E300EB22EE240BF582EF3400F5832290033490
:1058F300E0FEA3E0FF228E828F83F0A3AE82AF830C
:10590300221239C7120F8622C082C083E9C333FC37
:10591300E433FDEA2CFAEB3DFBEA24FEF582EB349B
:10592300FF12502602370D74F212037689098A0A90
:105933001254A540047900804075080080020508D0
:10594300E508C39509502AE508C333F8E433F9EEB3
:1059530028F582EF39F583C082C083120F2C8A0C9D
:105963008B0DD083D082E0650C7004A3E0650D70CD
:10597300CDE50A650870BE7901024E2374F0120367
:105983007674F31209218A088B098C0A8D0B890C12
:10599300750D00120F9EE979006003025A81AA086F
:1059A300AB09120DB8A90C120DAC8A0E8B0FAE0EFB
:1059B300AF0FEE4F7003025A7F8E828F83A3A3A390
:1059C300A3A3A3E0A2E24003025A7F120F2CEA65CD
:1059D3000A7003EB650B7011780D120863E4F50E82
:1059E300F50F780E12085F8044AA0AAB0B120BAEB8
:1059F300E9640170688518828519837404F0740161
:105A0300120AF3125354851882851983AA82AB8331
:105A1300120B6CE964017045750D01780D12086372
:105A2300E4F50EF50F780E12085F750D00780D1270
:105A33000863780D1208637408120AF385820E85D1
:105A4300830F780E12085F902537E493F9AC0AAD03
:105A53000BAA08AB09120D4674071208A78E828F92
:105A630083A3A3A3A3A3A3E0A2E1400D8E828F830C
:105A7300A3A3A3A3A3A3C2E2F0750D01A90D02433F
:105A83002274F6120376E9FE7900120DB8EEF912CC
:105A93000DAC8A088B09A808A909E84960061269B0
:105AA30038F98002790402394574F61203767E07C9
:105AB30090035CE07034125AF28A088B09A808A993
:105AC30009E8496025900361E0640188828983A322
:105AD300A3700B125AF9888289835001A3A3E0F9BA
:105AE3001210A6E9FEEE70027E07EEF902394512A6
:105AF300534512108822E0FA88828983A3E0C39A6F
:105B03002274EE120376EAFEEBFF890A8C0C8D0BEE
:105B13007412120AF312371F125BCE1254AC505197
:105B2300890E750F007403780E120A227496250EDF
