:020000040000FA
:06000000020A500201C9D2
:03002B0002088B3D
:030033000206A71B
:0300430002074071
:030053000200FAAE
:03006B0002068DFD
:1000830002015E0101FF01010503010F10FEFFECF8
:1000930012EC12EC12EC12A2119C11EC121B2300B5
:1000A300000000B922000000000C0000000C000159
:1000B3000000BA14000000000000741500000000E6
:1000C300000000000000FFFF0102006F05000000B8
:1000D300E2056400020200000002050207051E0299
:1000E300051E020A0A03B80B02803E0102771614AA
:1000F30096511800020206C0E074F21203E2A2AFA6
:10010300E433FED2AFE5A7FFE5A1F5085F54106025
:1001130006121C9A75A1EFE5085F54086008121CCB
:10012300A075A1F7802BEFA2E0C0D0E508A2E09272
:10013300F012098D158182F05017906198E0F890C4
:1001430008BEE0C398A2D265D0335002E8F075A18F
:10015300FEEEA2E092AF7F01020441C0E074F2120E
:1001630003E2A2AFE433FED2AF9061A4E0F8759B43
:1001730000E59158540860087591F7121CE8802A2D
:10018300E59158541060087591EF121CEE801BE83E
:10019300A2E0C0D0E591A2E092F012098D15818210
:1001A300F05007E0C2E0F0121E3E9061A3E0F8E5D4
:1001B300E9585404600E121E1475E9FB906193E034
:1001C300A2E640F2808BC0E074F21203E2A2AFE435
:1001D30033FED2AF9061A5E0F8E5BF585404600642
:1001E30075BFFB121E56020154C3E498F8E499F953
:1001F30012022D8026C3E49AFAE49BFBE920E7E987
:1002030012022DE498F8E499F922C3E498F8E499EA
:10021300F912022DE498F8E499F9C3E49AFAE49BFD
:10022300FB22EB20E7CFE920E7E0B90010BB000891
:10023300E88AF084F8AAF022E4FBC8FA22EB7022E1
:100243007B10C833C8C933C9335007C39AC3DBF221
:1002530080069A50012ADBEAC833F4C8C933F4C9CB
:10026300FA2275F008E4C833C8C933C933C99AC937
:100273009B5004C92AC93BD5F0ECFBC833F4C8E44E
:10028300C9FA22080808EAC0E0EBC0E086F0E7A458
:10029300FA180986F0E7A42AFA180986F0E7A42ACF
:1002A300FA180986F0E7A42AFA1986F0E7A4FBE511
:1002B300F02AFA190886F0E7A42BFBE5F03AFA19BD
:1002C3000886F0E7A42BFBE5F03AFA18180986F044
:1002D300E7A4C5F02BFBE43AFA1908E7C5F0C6A476
:1002E30026F6E5F03BFBE43AFA1886F0E7A4F6E5D8
:1002F300F00826F6E43B08F6E43A08F6D0E0FBD033
:10030300E0FA22E4CFC0E0E4CEC0E0E4CDC0E0E414
:10031300CCC0E075F020C3E633F608E633F608E612
:1003230033F608E633F6181818EC33FCED33FDEE1C
:1003330033FEEF33FFC3EC9709ED9709EE9709EF0F
:1003430097191919400FFFEC97FC09ED97FD09EE7A
:1003530097FE191906D5F0BEECF709EDF709EEF78C
:1003630009EFF7191919D0E0FCD0E0FDD0E0FED079
:10037300E0FF222518C582C0E0E51934FFC583C01C
:10038300E0E518C3958224F810AF088583198582A8
:10039300188008858319858218D2AFCEF0A3E52093
:1003A300F0A37808E608F0A3DEFAEFF0A3E58124D2
:1003B300FAF8E608F0A3E608F0A3E608F0A30808B5
:1003C300E608F0A3E608F0A315811581D0E0FED07E
:1003D300E0F8158115811581E8C0E0EEC0E022C088
:1003E300D02518C582C0E0E51934FFC583C0E0E518
:1003F30018C3958224F310AF08858319858218806A
:1004030008858319858218D2AFC8F0A3E9F0A3EA5F
:10041300F0A3EBF0A37908E709F0A3D8FAECF0A373
:10042300EDF0A3EEF0A3EFF0A3D0E0F0A3D0E0F063
:10043300A3D0E0F0A3E520F0A3E5F0F0A322851913
:1004430083851882E0C0E0A3E0F9A3E0FAA3E0FB10
:10045300A37808E0F608A3DFFAE0FCA3E0FDA3E03D
:10046300FEA3E0FFA3E0C0E0A3E0C0E0A3E0F5D07B
:10047300A3E0F520A3E0A3F5F010AF088583198569
:1004830082188008858319858218D2AFD082D083E1
:10049300D0E0F8D0E032120AB2B900030204DBE480
:1004A3009003017886790C8002F0A3D8FCD9FA90E6
:1004B3000E86AA82AB83900086787579018015E455
:1004C30093A3AC82AD838A828B83F0A3AA82AB838E
:1004D3008C828D83D8E9D9E775823075838D740456
:1004E3001208037582FC758320740012080315003B
:1004F3000975F0108E1A8F1B85821F85831E851840
:1005030082851983E0CEA3E0CF851F82851E83EB0E
:10051300C9EAC8EDCBECCAC3E833C8E933C9EA3347
:10052300CAEB33CBC3EA9EF51DEB9FF51CB3500416
:10053300AB1CAA1DEC33CCED33CDD5F0DAAE1AAF3C
:100543001B22D083D082ECC0E0EDC0E0E493A3FC97
:10055300E493A3FDED4C600D12061DEC24FFFCEDAE
:1005630034FFFD80EFE493A3FCE493A3FDED4C6023
:100573000D1206EBEC24FFFCED34FFFD80EFD0E021
:10058300FDD0E0FCE493A3C0E0E493C0E02285192E
:1005930083851882E0A3FEE0A3F5207808E0A3F6A4
:1005A30008DFFAE0A3FFE0A3C0E0E0A3C0E0E0A31C
:1005B300C0E0E0A3C0E0E0A3C0E010AF088582186C
:1005C3008583198008858218858319D2AFD083D09B
:1005D30082020809D083D082E9C0E0E493A3C386F2
:1005E300F0C5F095F0F908E493A386F0C5F095F013
:1005F300700BE493A3C3994005E9048002A3E47557
:10060300F002A42582F582E5F03583F583D0E0F985
:10061300E493A3C0E0E493C0E022C0E0C3E4939674
:10062300087401939618400FE493667008087401E8
:1006330093661870007019A3A3C3E493960874011A
:10064300939618A3A3400DD0E0D0E0D0E00205813B
:10065300A3A3A3A3A3A3D0E0227404800474028001
:1006630000CCC0E0EDC0E0E518C39CCCAD1950014F
:100673001D10AF068C188D1980068C188D19D2AFFA
:10068300120785D0E0FDD0E0FC22C0E074F2120333
:10069300E2E589A2E15003121B6E758900C2C57F92
:1006A30001020441C0E074F21203E2E58BA2E050C0
:1006B30003121B6E758B00C2E880E474028000CCC9
:1006C300C0E0EDC0E0E518C39CCCAD1950011D108E
:1006D300AF068C188D1980068C188D19D2AF1207AE
:1006E30063D0E0FDD0E0FC22C0E0C0F088F0E493EA
:1006F3006670080874019366187000A8F0A3A370CD
:100703000BD0F0D0E0D0E0D0E0020581A3A3D0F07D
:10071300D0E022D083D082CCC0E0E493A360061261
:1007230007C51470FAE493A360061208D51470FA8F
:10073300D0E0FCE493A3C0E0E493C0E022C0E07403
:10074300F21203E2A2AFE433FED2AFC2C0E5D1A2FC
:10075300E45003121C10EEA2E092AF7F01020441A9
:10076300CAC0E0E493A3C582CCC582C583CDC5834B
:10077300F0A3C582CCC582C583CDC583DAE5D0E0BD
:10078300CA22CAC0E0E0A3C582CCC582C583CDC559
:1007930083F0A3C582CCC582C583CDC583DAE6D0F9
:1007A300E0CA227009080808226016181818C6C380
:1007B30033C608C633C608C633C608C633C6D5E033
:1007C300EA22C0E0E493A3D39C5010E493A3C39C18
:1007D300400AD0E0D0E0D0E0020733A3A3A3D0E0E7
:1007E30022C008C3E096F50808A3E096420808A3D0
:1007F300E096420808A3E09645087001D3D008228A
:10080300C09FF59FE473D09F22D083D082C09FE422
:1008130093C0E0740193C0E0740293F59F227404C3
:10082300800A74038006740280027401C0E0F40439
:1008330012083CD0E0120A8D222518F58210AF0869
:10084300F518400215198008F51840021519D2AFA2
:1008530085198322BB0102E722C082C08389828A71
:1008630083BB0003E08002E493D083D08222C0D014
:10087300251810AF08F518500205198008F518500F
:10088300020519D2AFD0D022C0E0C0D0E8C0E0E565
:10089300A8D2AFC2C7A2E792AFD0E0F8D0D0D0E0E1
:1008A300326016080808C6C313C618C613C618C68E
:1008B30013C618C613C6D5E0EA22C3E0C696F608E7
:1008C300A3E0C696F608A3E0C696F608A3E0C6968C
:1008D300F622C0E0E493A36C7009D0E0D0E0D0E04E
:1008E300020733A3A3D0E022251810AF08F5184060
:1008F3000215198008F51840021519D2AF22C3E07A
:100903009608A3E09608A3E09608A3E096A2D26512
:10091300D03322E066701008A3E066700A08A3E0F3
:1009230066700408A3E06622E76670100809E766AC
:10093300700A0809E76670040809E76622C3E096AF
:10094300F008A3E096F008A3E096F008A3E096F081
:1009530022E026F008A3E036F008A3E036F008A36F
:10096300E036F022E627F60809E637F60809E63707
:10097300F60809E637F622E026F608A3E036F6087D
:10098300A3E036F608A3E036F622C0E0E8C0E0E5CF
:100993008124FCF8E6A2E7D0E0F8D0E0227004223C
:1009A300600D18C6C333C608C633C6D5E0F4182293
:1009B300E657F60809E657F60809E657F60809E682
:1009C30057F622E056F608A3E056F608A3E056F6DB
:1009D30008A3E056F622E056F008A3E056F008A379
:1009E300E056F008A3E056F022E647F60809E6478A
:1009F300F60809E647F60809E647F622E4C396F641
:100A030008E496F608E496F608E496F622C3E79619
:100A13000809E7960809E7960809E79622C6F4C687
:100A230008C6F4C608C6F4C608C6F4C622600D0894
:100A3300C6A2E713C618C613C6D5E0F322C3E096D1
:100A430008A3E09608A3E09608A3E0962275D000D9
:100A530075814075180175190300020499E0F608C1
:100A6300A3E0F608A3E0F608A3E0F622600C08C6AC
:100A7300C313C618C613C6D5E0F422E6F008A3E6EE
:100A8300F008A3E6F008A3E6F022CAC0E0E6F0A36C
:100A930008DAFAD0E0FA22E0FAA3E0FBA3E0FCA331
:100AA300E0FD22EAF0A3EBF0A3ECF0A3EDF022E5E6
:100AB300C754F84401F5C77901222518F582E435B6
:100AC30019F58322C2AF75D69F0200002212080CCB
:100AD300CFE00212080C24E30212080C71E40212A4
:100AE300080C14E50212080C5BE60212080C79E606
:100AF3000212080C08250012080C1A250012080C13
:100B03006C250012080CCD250012080C5726001284
:100B1300080CFB260012080C4F270012080C68274C
:100B23000012080C8E270012080CC9270012080CAB
:100B33000D280012080C34280012080C8528001216
:100B4300080C35290012080CED290012080CB52AEF
:100B53000012080C752B0012080CB92B0012080C9C
:100B6300DE2B0012080C212C0012080C6E2C001234
:100B7300080CC62D0012080C4C2E0012080C6A2E0D
:100B83000012080C942E0012080CAE2E0012080C52
:100B9300BD2E0012080CC82E0012080C882F00125C
:100BA300080CE12F0012080CA3300012080CAB3024
:100BB3000012080C6F310012080CDB310012080C14
:100BC30006330012080C2B330012080CA133001259
:100BD300080C33340012080C8B340012080C4B350C
:100BE3000012080C6A350012080C79360012080C42
:100BF3008B360012080CFA360012080C4F3800121C
:100C0300080C81380012080C14390012080C4D39F5
:100C13000012080C99390012080CB53A0012080C9E
:100C2300FE3C0012080C093D0012080C143D001292
:100C3300080C1F3D0012080C293D0012080C343D1E
:100C43000012080C4E3D0012080C583D0012080C0F
:100C5300623D0012080C6D3D0012080C953D001218
:100C6300080CF03D0012080CFA3D0012080C1E3E61
:100C73000012080C423E0012080CA03E0012080CA1
:100C8300E43E0012080C003F0012080C773F0012EC
:100C9300080CAF3F0012080CFB3F0012080C584031
:100CA3000012080C12410012080CF6420012080C44
:100CB3004F430012080C7F440012080CA544001295
:100CC300080C2E460012080CAA490012080C7C4B93
:100CD3000012080C454D0012080CF24D0012080CCE
:100CE3005D4F0012080CFC4F0012080C415000121B
:100CF300080CAB500012080CBA500012080C4153F8
:100D03000012080CF3540012080C60550012080C72
:100D13003F560012080C58570012080CD558001201
:100D2300080CF4580012080C49590012080C4E5ACA
:100D33000012080C765A0012080CCE5A0012080C46
:100D4300AD5B0012080CF15B0012080C3C5C001256
:100D5300080CA75C0012080CE85D0012080C4C5E3E
:100D63000012080C9A5F0012080CFA610012080CBA
:100D73002B620012080CE3630012080C38640012A3
:100D8300080C3C650012080CD9650012080C326689
:100D93000012080CE5660012080C87670012080CA5
:100DA30027680012080CCC680012080CBC870112DB
:100DB300080CFB870112080C428A0112080C8C8A6A
:100DC3000112080CA78B0112080C0F8C0112080CDE
:100DD300448C0112080CB88D0112080C3B900112CF
:100DE300080C64910112080CFA910112080C029B81
:100DF3000112080C979B0112080C7E9E0112080C2D
:100E0300719F0112080CDF9F0112080C25A101122A
:100E1300080C07A20112080CECA30112080CFDA593
:100E23000112080C67A60112080C39A70112080C5D
:100E330067A70112080C24A80112080CFBA80112D1
:100E4300080CC2A90112080C66AA0112080C8FAA89
:100E53000112080CB1AA0112080C07AD0112080C0B
:100E6300DFAD0112080C23AE0112080C8BAE011288
:100E7300080C43AF0112080C75AF0112080CB9AF8F
:100E83000112080CEFAF0112080C3BB00112080C61
:100E930090B00112080C95B00112080CE8B00112D1
:100EA300080C0DB10112080C1CB20112080C80B21F
:100EB3000112080CF0B20112080C7CB30112080CE9
:100EC30049B60112080C2DB70112080CB0B8011273
:100ED300080CE6BA0112080C94BB0112080C44BCBE
:100EE3000112080C85BE0112080C28BF0112080C60
:100EF3006FBF0112080C1BC10112080C2FC1011294
:100F0300080C39C10112080C61C10112080C6DC132
:100F13000112080C8CC10112080CACC30112080C9D
:100F2300FBC40112080C3FC50112080CE7C50112EE
:100F3300080CCAC60112080C75C70112080CC1C8F7
:100F43000112080CBFC90112080C65CA0112080C72
:100F5300F5CA0112080C0CCB0112080C43CB011289
:100F6300080C4DCB0112080C58CB0112080C76CBA0
:100F73000112080CBACB0112080C17CC0112080C91
:100F83003CCC0112080C56CC0112080CE2CC011225
:100F9300080CFFCD0112080C6CCE0112080C53CFC4
:100FA3000112080C7ACF0112080CEECF0112080CC3
:100FB30069D00112080C6DD10112080C63D2011221
:100FC300080C12D30112080C25D40112080CC1D449
:100FD3000112080C4ED50112080C2CD60112080C74
:100FE30064D60112080CBCD60112080C85D7011275
:100FF300080CA6D70112080C2DD80112080C51D8E1
:101003000112080C73D80112080CBCD80112080C89
:10101300D2DA0112080CB9DB0112080C6ADC0112E6
:10102300080CA0DE0112080CF0DE0112080C30DF00
:101033000112080C72DF0112080CCEDF0112080C3A
:10104300FCDF0112080C20E00112080C73E001120E
:10105300080CA1E00112080CDAE00112080C2FE1E0
:101063000112080C95E10112080CE9E20112080CC7
:101073000CE50112080C79E50112080CA2E5011236
:10108300080C2DE60112080C94E60112080CDFE6A9
:101093000112080C03E70112080C27E70112080CE0
:1010A30082E70112080C9DE70112080C56E80112B1
:1010B300080C8AA90412080CC9A90412080C788028
:1010C3000212080CBE800212080C9E810212080C48
:1010D300A0820212080CA3830212080C2F850212AD
:1010E300080C8D850212080C4A860212080C6887C8
:1010F3000212080CD9870212080C15880212080C78
:1011030063880212080C6D880212080CB18802125F
:10111300080C0D890212080CA8890212080C258AF2
:101123000212080CF48A0212080C8D8B0212080CAE
:10113300AD8B0212080CE38B0212080C148C021202
:10114300080CD58C0212080CE58C0212080C398DA0
:101153000212080C548D0212080C668D0212080C40
:101163006F8D0212080CC98D0212080C258E021213
:10117300080C718E0212080C8C8E0212080CBD8EA4
:101183000212080CDA8E0212080CE68E0212080C08
:101193005A900212080C73900212080CDA90021291
:1011A300080CED900212080CFB900212080CAF9190
:1011B3000212080C93920212080C99930212080C63
:1011C30023940212080C2D940212080C9A94021212
:1011D300080CB1940212080CE3940212080C1C953B
:1011E3000212080C46950212080CA7950212080C6D
:1011F300C7950212080CE5950212080C2B960212F1
:10120300080C51970212080C9E970212080CCD97F6
:101213000212080C43980212080C6B980212080C75
:10122300A4980212080CB2980212080C0A9902122E
:10123300080C59990212080C98990212080CC899C3
:101243000212080CF4990212080CFF990212080CFE
:101253001D9A0212080CDF9A0212080CE99A021274
:10126300080C249B0212080C3A9B0212080C8F9B59
:101273000212080CA39B0212080CB19C0212080C68
:10128300C49C0212080CD99C0212080C7B9D02120A
:10129300080CFE9D0212080CBC9E0212080CC79E8D
:1012A3000212080CF39F0212080C0FA00212080C82
:1012B30061A00212080CA0A00212080CB5A0021231
:1012C300080C17A10212080CA6A10212080CF1A126
:1012D3000212080C42A40212080CC0A40212080C49
:1012E30035A50212080C57A70212080C6FA70212A9
:1012F300080C72A70212080C7EA70212080C92A710
:101303000212080C9AA70212080CCDA70212080CAD
:101313007DA80212080CF3A80212080C66A9021297
:10132300080C1AAA0212080CCFAA0212080CEEAA81
:101333000212080C8EAB0212080C9AAB0212080CB4
:10134300C5AB0212080CC8AB0212080C32AC021275
:10135300080C5AAD0212080C32AE0212080CBDAED4
:101363000212080CD6AF0212080C93B00212080C3A
:10137300CCB00212080CFDB00212080CBBB1021271
:10138300080CEBB10212080CC6B20212080C5FB3D0
:101393000212080CEAB30212080C9BB40212080CE6
:1013A3001EB50212080C50B50212080C91B50212B8
:1013B300080C14B40312080C79B40312080CB6B465
:1013C3000312080C05B50312080C1BB70312080C13
:1013D300FEB80312080C68BC0312080CA3BC03126A
:1013E300080CC5BC0312080C28BD0312080C5CBD15
:1013F3000312080C7FBD0312080CACBD0312080CCA
:1014030008BE0312080C4FA80312080CCDA8031240
:10141300080C03A90312080C6FA90312080CE2AA13
:101423000312080CFEAA0312080C43AB0312080CA8
:10143300D1AB0312080C2AAC0312080C57AD0312EC
:10144300080C69AE0312080CC6AE0312080C32AFC7
:101453000312080C93AF0312080CD4AF0312080C49
:1014630081B00312080C93B10312080CBEB103122E
:10147300080C09B20312080C50B20312080CE2B2B2
:101483000312080C9DB30312080CB59D0412080C3B
:10149300C69D0412080C179E0412080C5C9E0412CD
:1014A300080C069F0412080C1EA60412080C829A4C
:1014B3000412080CDA9B0412080CFEF40212080C46
:1014C300ADF50212080CCDF50212080CEDF502126F
:1014D300080C01F60212080C59F60212080C89F6E0
:1014E3000212080C0AF80212080CB0F80212080CD7
:1014F30092F90212080CE3F90212080C26FA0212FE
:10150300080C69FA0212080CCFFA0212080CF0FA5E
:101513000212080C7CFB0212080CADFB0212080C31
:1015230021FC0212080CCFFD0212080CA9FE0212C4
:10153300080CD3D70212080C45FF0212080CB1980D
:101543000412080CD2980412080C089A0412080C0E
:10155300329A0412080C6F8A0412080CE98A0412E6
:10156300080CF48A0412080C158B0412080C129C44
:101573000312080C159C0312080CCF9C0312080CD1
:10158300FA9C0312080C419D0312080C669D03127A
:10159300080CEDDF0212080CBB9D0312080CF49D2E
:1015A3000312080C1D9F0312080C549F0312080C0E
:1015B300749F0312080C0FA00312080CD4A003128B
:1015C300080C0BA10312080C80A20312080C23A31E
:1015D3000312080C1CA40312080C45A40312080CE4
:1015E30099A40312080C5FA50312080C8DA503121E
:1015F300080C22A70312080CA3A70312080CD6A7F2
:101603000312080C54BE0312080C5EBE0312080C2E
:10161300AABE0312080C18BF0312080C39BF031229
:10162300080C50BF0312080C00C00312080C94C22C
:101633000312080C9DC20312080CF0C20312080C1B
:1016430019C30312080C80C30312080C11C403123C
:10165300080C53C40312080C9DC40312080CFCC4E9
:101663000312080C28C50312080CB9C50312080C91
:10167300F8C50312080C37C60312080C6CC6031214
:10168300080C7EC60312080C90C60312080CAFC6E2
:101693000312080CB8C60312080C6EC70312080C19
:1016A300AEC70312080CC7F00312080C9AF1031219
:1016B300080CB4F10312080CC5F10312080CDAF399
:1016C3000312080CF9F30312080C97940412080C84
:1016D300CD940412080C16950412080C6696041295
:1016E300080C18690012080C576A0012080C936A58
:1016F3000012080C526C0012080C7B6C0012080CD0
:101703000E6F0012080C526F0012080CDB700012EF
:10171300080C73710012080CDB710012080C7C7248
:101723000012080CBE720012080CFE720012080CA4
:1017330089740012080CF9750012080C1E78001247
:10174300080C4C780012080C73780012080C7C7893
:101753000012080CD7780012080C6A790012080CE2
:10176300887C0012080C097D0012080CC4AA04121C
:10177300080CDAAA0412080CEDA80412080C0A8754
:101783000412080C1D870412080CBA870412080CF3
:10179300F5870412080C10880412080C358804120B
:1017A300080C7A880412080CAB880412080CDC8835
:1017B3000412080C628A0412080C7EA00412080C9E
:1017C300B4A00412080CD0A00412080C12A1041235
:1017D300080C22A10412080CB7A10412080CC1A121
:1017E3000412080C52F50312080C02F60312080C3B
:1017F300BDF60312080C00F70312080C82F803125B
:10180300080CEEF80312080CA0E60212080CF8E626
:101813000212080CE1E70212080C7AE80212080C23
:10182300C4E80212080C21E90212080C7AE9021238
:10183300080C8EE90212080CC0E90212080CBEEA79
:101843000212080C22EB0212080C3DEB0212080CE8
:101853008CEB0212080CA2EB0212080CAFEB021283
:10186300080CE3EB0212080CFCEB0212080C8DECE3
:101873000212080C9CEC0212080C24ED0212080C54
:101883007EED0212080CCCED0212080CEEED0212F2
:10189300080C65F00212080C9AF00212080C2AF1E7
:1018A3000212080C9FF10212080CA4F10212080C98
:1018B300E0F10212080C36F20212080CFAF20212DC
:1018C300080C1FF30212080C29F30212080C2CF364
:1018D3000212080CB5F30212080CD0F30212080C22
:1018E300E3F30212080C0FF40212080C4AF402127A
:1018F300080C4DF40212080C58F40212080C94F46C
:101903000212080CA7F40212080CCEF40212080CFF
:101913003DA90412080C55A90412080C2ED1031278
:10192300080C7DD10312080C1FD30312080CDDD45D
:101933000312080C25D50312080C47D60312080C12
:1019430078D70312080C9AD70312080CF6D70312A0
:10195300080C78D80312080C00800312080C2180AD
:101963000312080CAB800312080C30810312080C1D
:10197300AC810312080C15820312080C6182031256
:10198300080CE0820312080C72830312080CFE8316
:101993000312080C40840312080CAC880312080CD1
:1019A3002C8A0312080C6B8A0312080C528B031245
:1019B300080C558B0312080C098C0312080C3E8D7E
:1019C3000312080C298F0312080CA9910312080CA7
:1019D30062920312080C7F930312080CD69603122B
:1019E300080CE6960312080C47980312080CD398C8
:1019F3000312080C079A0312080CF89A0312080C36
:101A03007A9B0312080C90E80112080C4AE90112B0
:101A1300080CBCE90112080CCBE90112080C45EAD9
:101A23000112080CB4EA0112080CBBEB0112080CFA
:101A3300E4EB0112080C84EC0112080CD2EC011245
:101A4300080C42ED0112080CFBEF0112080CD2F056
:101A53000112080C3FF10112080CBCF20112080C30
:101A630070F30112080C1EF40112080C79F4011230
:101A7300080CE4F40112080CE4F50112080CBEF79B
:101A83000112080CD1F80112080C6AF90112080CB2
:101A9300DCF90112080CA2FA0112080CD8F903129E
:101AA300080C2CFA0312080C84FA0312080CCFFA60
:101AB3000312080C31FB0312080C9DFB0312080CE4
:101AC30050FC0312080C91FC0312080CA7FC031230
:101AD300080C03FD0312080C41FD0312080C41928C
:101AE3000412080C72920412080C2C930412080CB2
:101AF30092930412080C03940412080CB58D04127B
:101B0300080C418F0412080C11A70412080C22A719
:101B13000412080CC2A70412080C299C0412080C16
:101B2300379C0412080C1CAB0412080CDCA704122B
:101B3300080CECA70412080C07A80412080C68A8E8
:101B43000412080C1CA50412080CA1A50412080C0D
:101B530005A60412080C0AA40412080C2CA40412EF
:101B6300080C96A40412080CA1A40412080CE5A402
:101B73000412080CE1DD0312080CEFDD0312080C5C
:101B830030DE0312080C4ADE0312080CC7DE031210
:101B9300080CC1DF0312080CE6DF0312080C03E094
:101BA3000312080C20E00312080C45E00312080C92
:101BB3006DE00312080CB5E00312080C30E10312C8
:101BC300080CE0E10312080C00800412080C0E80DC
:101BD3000412080C88800412080C6C810412080C8F
:101BE30025830412080CA2AA0412080CACD8031211
:101BF300080C19D90312080CDAD90312080C4ADAB3
:101C03000312080C53DB0312080CCBDC0312080C81
:101C13002FDD0312080C84DD0312080C8DDD031283
:101C2300080C9CDD0312080CAFDD0312080CC5DDA4
:101C33000312080CCEDD0312080C5CE70312080C38
:101C4300B1E70312080CADE90312080CDFE9031234
:101C5300080C01EA0312080C1AEA0312080C33EA0F
:101C63000312080C3DEB0312080CD8EB0312080C0B
:101C73001D9F0412080C419F0412080C5A9F041262
:101C8300080C8D9F0412080CBE9F0412080CEC9FD5
:101C93000412080C4EA00412080C5DA00412080CD8
:101CA30067A00412080C74A00412080C707D0012C3
:101CB300080C967D0012080CD37D0012080CE27DFF
:101CC3000012080C017E0012080C697E0012080C39
:101CD300727E0012080CD17E0012080CF57E0012F1
:101CE300080CB47F0012080CC17F0012080CD27FCD
:101CF3000012080CC4FF0112080CE1FF0112080CCA
:101D03004FEC0312080CA7ED0312080CB4ED0312F9
:101D1300080CC7ED0312080CE6ED0312080CFCEDEA
:101D23000312080C10EE0312080C85EE0312080CC4
:101D3300EAEE0312080C9AEF0312080C6FF0031279
:101D4300080C7FF00312080C8EF00312080C60FFDE
:101D53000212080C84FF0212080CACFF0212080CDA
:101D6300D4FF0212080CE28F0412080C099004122B
:101D7300080C2A900412080C8F900412080C72FDB0
:101D83000312080C8BFD0312080C97FD0312080CB9
:101D9300ABFD0312080CC9FD0312080CD3FD03129B
:101DA300080CDDFD0312080CF0FD0312080C52FEB3
:101DB3000312080C8BFE0312080CBAFE0312080C64
:101DC30008FF0312080C57FF0312080C72FF0312DB
:101DD300080C7CFF0312080CA3FF0312080CE9FF95
:101DE3000312080C72A80412080C8EA80412080C23
:101DF30002AB0412080CD7C70312080C01C8031264
:101E0300080C1DC80312080C30C80312080C46C87E
:101E13000312080CA3C80312080CD6C80312080C3B
:101E230017CD0312080C3DCE0312080C70CE03121B
:101E3300080CBCCE0312080CFECF0312080C26D0EC
:101E43000312080C3BD00312080C4BD00312080CEE
:101E53008FD00312080CF0D00312080C00D1031228
:101E6300080CC4A10412080CDFA10412080C08A278
:101E73000412080C22A20412080C47A20412080C34
:101E830066A20412080C7EA20412080CACA204126F
:101E9300080CC6A20412080CD3A90412080C8A83E6
:101EA3000412080C91830412080C9D840412080C7C
:101EB300CD840412080CF3840412080C1685041252
:101EC300080C38850412080C72850412080CD88596
:101ED3000412080C11860412080C5D860412080C07
:101EE3008A860412080CAA860412080CC9960412E6
:101EF300080CE1960412080CCF970412080CAE9854
:101F03000412080CF7A20412080C69A30412080CAB
:101F1300A7A30412080CE8A30412080CF6FB011291
:101F2300080C15FC0112080C64FC0112080C80FC5F
:101F33000112080CB1FC0112080CC1FC0112080CBF
:101F4300CEFC0112080CDBFC0112080CC7FD0112C8
:101F5300080C05FE0112080C0FFE0112080C1FFFEE
:101F63000112080C2AFF0112080C3CFF0112080C95
:101F730045FF0112080C4FFF0112080C9FE20312E8
:101F8300080CE4E60312080CF2E60312080C4DAA4F
:101F93000412080C17AA0412080C7AAA0412080CDB
:101FA300E4AA0412080C9CD60212080CF0D5021203
:101FB300080C36D40212080CE6D10212080C6DD1BB
:101FC3000212080C14D10212080CA4D00212080C3D
:101FD3007BD00212080C5BCE0212080C27CE021231
:101FE300080CF4CD0212080CD8CD0212080CF1CC67
:101FF3000212080CA9CC0212080CF4CA0212080C33
:1020030074CA0212080C71CA0212080C6EC90212B9
:10201300080C3CC90212080C79C80212080CA4C6A9
:102023000212080C35C60212080CD1DF0212080C8A
:1020330055DF0212080C0CDF0212080CC4DE021278
:10204300080C12DE0212080C07C60212080C04C6A2
:102053000212080CF1C50212080C9CC50212080CEE
:1020630084DD0212080C8BC50212080C7DC4021217
:10207300080C47C40212080CF5C30212080C77DDE2
:102083000212080C879D0312080C96C30212080C57
:1020930065C30212080C2DC00212080CEDBF021218
:1020A300080CE1BF0212080C41BF0212080C81BEEA
:1020B3000212080C03BC0212080C94B90212080C99
:1020C30052B90212080C26B80212080CDBB702122E
:1020D300080C1AB70212080CEDB60212080C30B63F
:1020E3000212080CC6B50212080C00B60212080C44
:1020F30071DA0212080CEBFE0200000080FBE473AD
:102103000001363601010001020100010301000153
:102113000401060605020000070100340801000F50
:10212300090401010D0100FF0E0800001702000061
:10213300190100FF1A0100011B0100FE1C01000828
:102143001D0200001F010001200100012102000007
:102153002301000F240200002601000127010008CB
:10216300280200FF2A0100072B0102402C01000076
:102173002D0100012E0100012F0100FF30010B1C76
:10218300310800003A0100083B01000F2F01000055
:10219300010171010101010111010101310101017C
:1021A30001018001100161013B001400630173010F
:1021B3007201620143010001130106013D01350073
:1021C30004011201000100010001000104010401E6
:1021D300330133013C0144013201360000010001A7
:1021E30065010001350081010001050182018301C0
:1021F3000001030471040204600411047004020466
:1022030002040104020410046104000414046304BE
:1022130073047204620443040004130406040004F8
:102223000004040412040004000400040004510424
:1022330064000004000400044404000400040004D7
:1022430000046504000435048104640005040004EB
:102253008304000403027102300160021102700260
:102263000102020202028002100261023A004100EE
:102273006302730272026202430200021302380015
:102283000002000204021202000200020002000225
:1022930004020402370037003C0244020002390002
:1022A30000020002650200023502810200020502FB
:1022B300820283020002010371030103010301038C
:1022C30001030103220302030103100300030003BC
:1022D300000300030003000300034203000324037D
:1022E300060300030003040312032503230325034A
:1022F3002303040304030003000300034403000354
:102303000003230300036503210035038103000356
:1023130005030003000300030300710030016000A4
:10232300110070003102200350048000100061008E
:102333000000140063007300720062004300000099
:10234300130006000000000004001200000000005B
:102353000000000004000400370037003C02440082
:10236300000000000000000065000000350081004F
:102373000000050000008300000036000100060095
:1023830000000F000000000000000000000000003B
:1023930003FFFF00000403FFFF0000FFFF0FF40132
:1023A3000005C4040320000100140B00000000001A
:1023B30000000003010F0000421A1300BE190100C0
:1023C300421A0200761903007C19040082190500E1
:1023D3008819060094191100B2191400B8191500D0
:1023E300A619FFFF000001F40D06240E081E0E0BB4
:1023F300300E10700D02FA0D05120E07000E0CD6EA
:102403000D0DE80DFF0000FC112C1202120812261C
:10241300121A121412321238123E124A120E12F605
:1024230011F01100160F00000B150B020002220F12
:1024330032000006EC12FE120413C6110A13C01177
:10244300CC11140AE5D5C5B5A5A595858575654C4B
:10245300136A13701352135E1358130011FA1036D4
:10246300113C113011E81000011916181616152326
:1024730003000C0E020B040B0A0708000F30301781
:10248300181921301B1D1F3000034948424D1817EE
:10249300250502303016181920231A1C1E30003867
:1024A3003C3E363B3B352B432C20124412641350E5
:1024B30012561240131013161322131C1302040294
:1024C3000101010109020C11121106114211000050
:1024D3000000000000BE040A18112A11FA06452460
:1024E30004007F00E8030C000E0028000000000039
:1024F3000108100C0A0308090004000CFF1E1E0546
:10250300080403100FC082C0838A828B83E0D2E762
:10251300F01218C80236D7C082C08379001229D4BA
:102523001258A4C082C08390033412462AD083D0A9
:1025330082C3E09CA3E09D500C125F78FAA3E012E3
:10254300254B6001090236D7FBEA75F00BA4FAA804
:10255300F075F00BEBA428FB900336E02AF8A3E018
:102563003B8882F583E0540F2274F71203768908BF
:102573001229D4122A7AACF075F00BE9A42CF99045
:102583000336E028FEA3E039FF7401650860067492
:1025930002650870208A828B83122A6612390674B8
:1025A300026508701B122925122AAD70138E828FC3
:1025B30083E4F0800BEA2403FCEB122A48122A542A
:1025C300EEFAEFFB120AF402386374F41203761284
:1025D300689F79008E828F83E06076890A890B80F9
:1025E30065E50A75F00BA4FAA8F075F00BE50B127C
:1025F30025587046E50A75F00BA4F8AAF075F00BA0
:10260300E50B122A8C8E828F83E0850882850983ED
:10261300122B6E850882850983A3123906EE2403E3
:10262300FCEF122A511236E412531EAA08AB091208
:102633000AF47901900334124D33E50A2401F50AB3
:10264300E50B3400F50B12292DE50A9AE50B9B40A7
:1026530090023AB074F5120376EAFEEBFF740B12A4
:102663000ABD1236E9750A01EC4D602BEC1268BB0A
:10267300ED1258A41238FE7901120B00E508450942
:10268300606F850882850983A31268A97902AA0865
:10269300AB09120B00805AE5084509602B1258A8B4
:1026A300123F721236E5122A97700CEEFAEFFB1204
:1026B3000B06E9F50A80CBEE2403FA1229CF703119
:1026C3007903EEFAEFFB80CA8E828F83A3E064FE68
:1026D3007003A3E0F4700BEE24030A0A0A1229CF55
:1026E300700CEEFAEFFB120B06E9F50A8003750A8C
:1026F30000A90A7F0302059174F71203769003344D
:10270300123873EA4B602FEA75F00BA4FAA8F07540
:10271300F00BEBA428FBEAFEEBFF1216D690033670
:10272300123873900336124B786012EEFCEFFD798A
:10273300001216168007900336E4F0A3F002386304
:102743009003341242E2C3EE98EF9922C082C08311
:10275300EC4D6005121F1680097C087D007900127C
:1027630016160236D774F61203767900EA4B601810
:1027730078008808125BEBEB125F746004790178D0
:102783000808E8C3940840EA02390F74F712037685
:1027930074F31208EBECFEEDFF851882851983E4D0
:1027A300F004120ABDEAF0A3EB1250A47403120A58
:1027B300BDAC82AD83EEFAEFFB120B18EEFAEFFB22
:1027C300120B1E02385E74F712037674F31208EBD1
:1027D300ECFEEDFF851882851983E4F0EAFCEBFD3E
:1027E3007403120ABD122B677401120ABD1238FA60
:1027F3008E828F8312390674FE68700374FF6960DA
:102803000479018002790002385E74F7120376EAD4
:10281300FEEBFF12286B70141228768E828F83E0F2
:10282300F4F88A828B83E058F0120AF4A90802387C
:102833006374F7120376EAFEEBFF7508008E828F4E
:1028430083E0602212286B701D1228768A828B83A4
:10285300E08F838E82F8E058700CE0F88A828B83D5
:10286300E048F0120AF480C4120AFAE9F508740188
:102873006508221268B4122A7E1229C0FAA3E0392D
:10288300FB2274F41203768A088B097C007D001204
:102893002925122A541229E51268A679008508828F
:1028A300850983A3E064FE7003A3E0F460717E00F6
:1028B3007F008062EEFAEF12254B6057EEFAEFFBD2
:1028C300EA75F00BA4FAA8F075F00BEBA428FB90C3
:1028D3000336E02AF50AA3E03BF50B850882850958
:1028E30083A3124FF2850A82850B83A3E06A7003E8
:1028F300A3E06B701EE50A2403FAE50B1229D070DE
:102903000AE50A2403FCE50B122A511229D979019D
:102913001258BA1232C412292DEE9AEF9B40950237
:102923003AB0EA24030A0A0AEB22900334125491C0
:10293300C32274F31203768A088B098A828B83A3DA
:102943001268A91229D41268A6750C00122925123F
:1029530029D070547E007F0080491229B2FAA3E087
:10296300398A82F583E0540F60361229B2F50AA33F
:10297300E039F50BE50A2403FCE50B122A5B34006E
:10298300FB121F10E964017017850A82850B83A36C
:10299300125552A31239061229D9750C011258BACD
:1029A3001232C412274340B2A90C7F05020591EEEF
:1029B300F8EFF9E875F00BA4F81229C022AAF07514
:1029C300F00BE9A42AF9900336E02822EF122AA794
:1029D300221268BAEB221229E51258B5EEF0A3EFE2
:1029E300F022E5081268BBE5092274F5120376EAC2
:1029F300FEEBFF8E828F83A31268A97C007D00EE1D
:102A030024030A0A0AEF122A54EEFAEFFB120AFA17
:102A1300E9F50A7401650A70291268B4122A7AAAC0
:102A2300F075F00BE9122A8C850882F583122A6669
:102A3300122A97700DE5082403FCE509122A4812AF
:102A43002A540226F43400FDEE2403FAEF22122A5C
:102A53005B3400FB120B18223400FDE5082403FA53
:102A6300E50922A3122A6B22122A6F22E0F8A3E0BF
:102A7300F98E828F83A322122A7E223400F58312D9
:102A830042E6E875F00BA4F8221229C6F508A3E084
:102A930039F50922E8F0A3E9F0E5082403FAE5098A
:102AA300122AA722122AAD6401223400FB120B1E44
:102AB300E92274F312037674E61208EB12689F7529
:102AC3000C01750800750900750A00750B0085185F
:102AD30082851983E4F0EE2403FCEF3400FD7403D4
:102AE300120ABD122B67E964017023740B120ABD2D
:102AF3001238FE7401120ABD124FF67003A3E06987
:102B03006051851882851983858208858309740D30
:102B1300120ABDE4122B6E740E120ABD123906742A
:102B23000D120ABDAA82AB83120B3CE96401700B40
:102B3300740D120ABD85820A85830B780A1208294F
:102B4300AC08AD09EEFAEFFB120B0C74021208711C
:102B5300E9F50CEEFAEFFB120B36A90C741A120806
:102B6300710229AD122E3A120B422212386E124212
:102B7300E222C082C083780079008003122C6512A0
:102B8300292DE89AE99B5029E8FAE9FBEA75F00B4D
:102B9300A4FAACF075F00BEBA42CFB900336E02AFF
:102BA300FCA3E03B8C82F583E0540F70CF79008067
:102BB3000279010236D7C082C0839004F1124338F0
:102BC300EC75F012A4FCA8F075F012EDA428FD79C1
:102BD300FF7A2E7B091216160236D774F712037684
:102BE300E9FEEAFF7A007B00780079008028E8FCA0
:102BF300E9FDEC75F012A4FC85F00875F012EDA464
:102C0300250812307AC39E400AE0FCEFC39C4003C0
:102C1300123199122C6512306E40D3023863C08290
:102C2300C083780079008003122C65122C59501F41
:102C330012307EF470F2E875F012A4F8AAF075F081
:102C430012E9A42AF9742E28FA740939FB80047A4C
:102C5300007B000236D79004F112312FC3E89AE9C2
:102C63009B22E8240108E93400F92274F012037668
:102C730074F31208EB8A0A8B0B8C0C8D0D8908EC0C
:102C8300450D6016AA0CAB0D120B908A0E8B0FAE7E
:102C93000EAF0FEE4F6003022D2C120B668A0E8BC4
:102CA3000FA80EA90FE8FEE9FFE849607C9024F124
:102CB300122D8E6022740365086006740465087023
:102CC300167A047903120B609024F1122DA54007A4
:102CD3007A007B00022D8B9024EF122D8E601B74E3
:102CE300016508600674026508700F7A02790112A3
:102CF3000B609024EF122DA550D685188285198379
:102D03007401F0120ABD12531EAC0CAD0D74031204
:102D13000ABD122E33740B120ABD1236F1123CE6B1
:102D2300E41253061210408004EE4F604A78007498
:102D3300FF2508C39404500278048E828F831253B4
:102D43001E8E828F83A3A3A3A3E508F0E88E828F50
:102D530083A3A3A3A3A31253261202251231468EE3
:102D6300828F83A3A3A3A3A3A3A3F012313D120ACB
:102D73009A12589E120AA6122D934005900E8AE4C9
:102D8300F0120F1AEEFAEFFB0242EC125440492202
:102D93007A047900120B609004F1125F5AEA98EBFF
:102DA3009922122DBE7583047582F1E493C398F8BA
:102DB300A3E49399F9C3EA98EB9922E493F8740195
:102DC30093F92274F212037674F31208EB8A088BD8
:102DD30009ECFEEDFF750A00EEFAEFFB120B908A89
:102DE3000C8B0DA80CA90DE849603E88828983E00D
:102DF30065087004A3E06509602F88828983A3A313
:102E0300A3A3E0C39405502112574C85188285195A
:102E1300837401F0120ABD125750EEFCEFFD7403E8
:102E2300120ABD122E33750A01A90A740D024DEA66
:102E3300122E3A120B4E22AA82AB83120B1885185C
:102E430082851983AA82AB832274F6120376122E2B
:102E530088600FA3A3A3A3E014C3940450047901CF
:102E63008002790002390F74F6120376122E8860FD
:102E73000FA3A3A3A3E014C3940250047901800217
:102E8300790002390F120B8A8A828B83E58245838C
:102E93002274F6120376122E88600BA3A3A3A3E079
:102EA300700479018002790002390FC082C083EA7D
:102EB300FCEBFD7A007B000236D4C082C0837C0029
:102EC3007D000236D474F412037674F31208EBEA2D
:102ED300FEEBFF8C0A8D0BC3EC94F8ED94FF4007D7
:102EE300EE4F7003022F81750800750900802E854F
:102EF30018828519837401F01232EC120ABD123262
:102F0300FA60137403120ABDAC82AD83EEFAEFFBD1
:102F1300121F10E97049E508240112311A9004F1D7
:102F2300E4125448E50898E509995052E50875F00C
:102F330012A4F8AAF075F012E509A42AF9125F8D1C
:102F430060D4EE4F70A974FF650A700474FF650BBB
:102F530060C41232DC650A7004A3E0650B70B7E548
:102F63000875F012A4F508A8F075F012E509A42875
:102F7300F509742E2508FA74093509FB80047A00D3
:102F83007B00023AAB74F412037674F31208EB7508
:102F93000800120B908A0A8B0BAE0AAF0BEE4F6040
:102FA3002A8518828519837401123868F8A3E0F919
:102FB300740B120ABD123989120B307C127D007911
:102FC300FFEEFAEFFB121616750801122D93500946
:102FD300900E8A7401F0120F1AA908023AAB74F723
:102FE300120376E9FE74FE6A700374FF6B7800794E
:102FF3000070058052122C6512306E504AE8FCE9CD
:10300300FDEC75F012A4FCAFF075F012EDA42F12D5
:10301300307AF460E0E8FCE9FDEC75F012A4FC758D
:10302300F012EDA42FFD742E2CF58274093DF58367
:10303300E06A7003A3E06B70BC800912307E14C396
:1030430094044017122C65122C595018EE70EC1290
:10305300307E64016005E0640370E91232CDFAA3A7
:10306300E0FB80047AFE7BFF0238639004F1124395
:103073003CC3E89CE99D221231CE22E8FAE9FBEA3F
:1030830075F012A4FAACF075F012EBA42CFB7432B9
:103093002AF58274093BF583E022120BA20236D78C
:1030A300C082C083790180F274F01203768A0A8B9E
:1030B3000B7A047901120B608A0C8B0DEA450D60C3
:1030C3003EEAC333FAEB33FB1216D68A088B09AEFA
:1030D30008AF09EE4F60237AFE7BFF120BA874FE44
:1030E3006A700374FF6B601B85088285098312383D
:1030F30073E508240212311A80E1750C0080047E06
:10310300007F00850A82850B83E50CF0EEFAEFFB66
:103113000242F1E5082407F508E5093400F5092220
:103123009004F112433CC3EA9CEB9D22E493FA74AE
:103133000193FB2212160A7403221258AFE4F09093
:10314300877222E88E828F83A3A3A3A3A3A3A3A33F
:103153001231687401123168A3F0EE24101258B2D0
:10316300E4F0A3F022123CF2A3A3A322C082C08303
:103173007A007B0080041912319912312350101206
:1031830031B8C3940550F0E970EC1231A280047A8F
:10319300007B000236D7EA24010AEB3400FB22EA63
:1031A30075F012A4FA75F012EBA428FB742E2AFA18
:1031B30074093BFB22EAFCEBFDEC75F012A4FCA8BE
:1031C300F075F012EDA4281231CE22FD74322CF5E5
:1031D3008274093DF583E02274F712037674F312C7
:1031E30008EB7E007F00023280E50875F017A4F833
:1031F300A9F01261EEFAA3E0FBEEF8EFF9E875F03F
:1032030012A4F8ACF075F012E9A42C1232DB6A7048
:1032130003A3E06B603FE50875F017A4F8AAF0EA92
:103223001261EDF8A3E0F97401120ABDE0687003BE
:10323300A3E0696020E50875F017A4F8EAF974AA19
:1032430028FC740A39FD7403120ABDAA82AB8312E7
:103253001F10E96014E50875F017A4F8A9F074A825
:1032630028FA740A39FB12104C05089024F5E493EC
:10327300F8E508C39850030231EC1232C49004F10C
:103283001265345039EEF8EFF91232CDF47003A31E
:10329300E0F460E68518828519837401F0EEF8EF97
:1032A300F9E875F012A4F875F012E9A42AF91232BC
:1032B300EC120ABD1232FA60C175080080AD023803
:1032C3005EEE24010EEF3400FF22E875F012A4F83D
:1032D300AAF075F012E9A42AF91232E022742E281A
:1032E300F582740939F583E022743028F582740974
:1032F300391242E0740B22E8F0A3E9123991120B60
:1033030048E922C082C08390033D740CF0A3740E7D
:10331300F090033F7406F0A3740EF09003437426F9
:10332300F0A3740CF00236D774F7120376EAFEEBBF
:10333300FF900377E06408601BE0640460168E82EC
:103343008F83E05403640170481236E4123DE7E0D2
:103353006406703D8E828F83A3A3E064FE7003A393
:10336300E0F4602D8E828F83A3A31238FA90036852
:10337300E0687003A3E069700BEE2415F582EF1289
:103383005F746008120EBAE9F5088008120EC08057
:10339300F67508C2EEFAEFFB1216DC02282F74F45E
:1033A3001203768A088B098A828B83E0F8A3E0FAFA
:1033B300E82AFAE43400FB1216D68A0A8B0BAE0A0B
:1033C300AF0BEE4F6063850882850983E0FC7D00C7
:1033D30079001216168E828F83A3A31268A9120E88
:1033E300FC8E828F83A3A3A3A312387385088285DF
:1033F3000983E0F8EE28F8EF3400123902850882D9
:10340300850983A3E0C0E0EE240D1258A1D0E0F0BB
:10341300120F0EEE240E1258A1E9124F53E0C0E032
:10342300EE24111258A1D0E0F0EEFAEFFB023AB00D
:1034330074F412037674EB1208EB8A088B098C0A76
:103443008D0BE9FE900377E064046005E064087087
:103453000479C2802EA37808120A7EEE90037E12AE
:1034630036DE120A7E7405120ABDE9F07404120AEC
:10347300BD7401F07407120ABDE4F090037774027F
:103483001236727415023AAD74F612037674EB12A7
:1034930008EBEAFEEBFF124B75600302352F7A0748
:1034A3007B001216D6900339123873124B7560786D
:1034B3008E828F83120A9A90033A123DEA120AA669
:1034C30012676DC0E012353BD0E0F0EE2405FAEF51
:1034D3003400FB8A088B098A82F583E0C0E0123549
:1034E30036D0E0123AA7E0C0E0123536A3D0E0129E
:1034F30038E7120A9A851882851983120AA68882E8
:103503008983E0C0E07405120ABDD0E0F08508822B
:10351300850983E0C0E07404120ABDD0E0F07407AB
:10352300120ABD1236718006791080027901741572
:1035330002390C12353BA322900339E0FAA3E0F5DC
:10354300838A82A3A3A3A322C082C083124B756084
:103553000D90033912547F900339E4F0A3F0120E57
:103563002A120FEC0236D774F012037674EB1208AA
:10357300EBECFEEDFF89087425120ABD780C120AE4
:10358300607429120ABDE0F9742A120ABDE0FC74C2
:103593002B120ABDE0FD740F697005740F6C601285
:1035A300900EE5E06402700579C102366CE9C39CB4
:1035B30040F6900378780C120A7EE50890037EF0BB
:1035C300E990037CF0ECA3F0ED90037FF074FF6AC5
:1035D300700374FF6B701D900EF0E0F47003A3E0B2
:1035E300F4700512162E800C900EF012383BE8F0A2
:1035F300A3E98007900375EAF0A3EBF0EE4F6017A1
:10360300EEFAEFFB1210ACE96401700BEEFCEFFD78
:103613007A897B03121F16900368E4F0A3F09003EA
:103623006BF0A3F0900388F0900EE5E0640270085D
:1036330090037C740FF0A3F09003777405F01412D9
:103643000ABDE4F0900378120A9A851882851983DB
:10365300120AA690037EE0C0E07405120ABDD0E012
:10366300F07407120ABD12367174150242EEE412A9
:103673003991121F4622C082C083900338E0700341
:103683001219AC120BF0804CC082C083900338E057
:10369300900E897004E4F0802D7401F0900338E0FB
:1036A300F460237C41E0C394415002E0FCECF8E079
:1036B300C398F0EC75F0E8A4CCA8F075F003A42847
:1036C300FD7A801243447A897B0E7941121F2E8042
:1036D30003120B96D083D0820208091238F27808BD
:1036E30022EE1258B022E0F508A3E0F509221236C3
:1036F300F522122A6FA32274F512037674E21208DC
:10370300EB851882851983ECF0A3EDF0EAFEEBFF5D
:1037130089087429120ABDE0F509742C120ABDE068
:10372300F50A900377E064046005E06408700579A6
:10373300C202382C742A120ABDE064FE7003A3E0AF
:10374300F4700579C302382C900377740312398D12
:103753007950121F2E742A120ABDAA82AB83794BA9
:10376300121F2E85188285198312383B123906E5FC
:103773000890036AF0742A120ABD1238341239060B
:10378300E50990036212384274CE55094480C0E0C3
:103793007412120ABDD0E0F07401250A900388F078
:1037A300740F120ABD7402F0742A120ABD1238FA99
:1037B3007407120ABDE8F0A3E91238797410120AEB
:1037C300BD1239067405120ABDE508F0741B120A0E
:1037D300BDE4F090037D740FF07A7D7B037954127E
:1037E3001F2E90037C740FF07A7C7B037947121FA2
:1037F3002E90037CE0C3940F50237405120ABDE09E
:10380300C0E07402120ABDD0E0F07404120ABD7461
:1038130001F004120ABDAA82AB83121F527405126F
:103823000ABDAA82AB83121F34741E1208710226CA
:10383300F61242E290036B221242E290037522F0E9
:10384300EEFCEFFD7A897B03121F162274F7120335
:1038530076EB90037FF0120E188005740D12087139
:103863007F0102059112386EA3E0221238E7A322EA
:10387300EAF0A3EBF0221238EDF8A3E0F92274F793
:1038830012037674F81208EBEAFEEBFF790090035B
:1038930077E06408704485188285198374FDF0A36A
:1038A30074FFF0120EF67402120ABD123873740517
:1038B300120ABDE412386EE0C0E07404120ABDD0EF
:1038C300E01238E2C0E07406120ABDD0E0F07407DB
:1038D300120ABDE412398D120F38740802386012CF
:1038E30038E7E022F08E828F83221238F2E022F052
:1038F300851882851983221242E222E0F8A3E0F9B7
:103903001258AFE8F0A3E9F0221208717F02020512
:1039130091C082C08390034974B6F0A3740CF090F5
:1039230003EF7492F0A3740FF090034D74ECF0A3C3
:10393300740CF090034F74B6F0A3740CF090035121
:1039430074F2F0A3740CF00236D774F41203767495
:10395300F91208EB8A088B098C0A8D0B851882856E
:1039630019837808120A7E7404120ABDE9F07405FB
:10397300120ABDE4F07406120ABDE412398D120B6B
:10398300D87407023AADE8F0A3E91239912212384C
:10399300F2AA82AB832274F41203768A088B098A13
:1039A300828B831258BDEE4F7003023AA590031227
:1039B300124B7860158A828B83A3A3E0F9EEFAEFAA
:1039C300FB900313123DEA1221018E828F83A3A37E
:1039D300A3A3A3A3A3A3A3E0640270748E828F8323
:1039E300A3A3A3A3A3A3E054027003023A77850819
:1039F30082850983A3A3E064E960798E828F83A320
:103A0300A3A3A3A3A3A3A3A3A3E07014900EE8E02E
:103A1300048E828F83A3A3A3A3A3A3A3A3A3A3F02F
:103A23008E828F83A3A3A3A3A3A3A3A3A3A3E0141F
:103A3300123AA7A3A3A37404F0900EE91252F8E874
:103A4300F0A3E91263D18B0BEA450B7003125DAF50
:103A53008E828F83A3A3A3A3A3A3A3A3A3E0640240
:103A630060128E828F83A3A3A3A3A3A3A3A3A3E024
:103A73006406702E8E828F83A3A3A3A3A3A3E0A2C5
:103A8300E0501F850882850983A3A3E0F9EEFAEFCE
:103A9300FB121FE28E828F83A3A3A3A3A3A3E054ED
:103AA300FEF08009123CEE22740D1208717F0402AD
:103AB300059174EC12037674DD1208EBEAFEEBFF5A
:103AC3008C088D097437120ABD780C120A60750AC6
:103AD300007405120ABDAC82AD83120AD0741212AF
:103AE3000ABDE070087415120ABDE0602074051267
:103AF3000ABDE0A2E6501E8E828F83A3A3A3A3A3D5
:103B0300A3A3A3A3124FF2120F6EE9600879031265
:103B13001EFE023CD47405120ABDE0540C6404700A
:103B230005750B018003750B00E0A2E55035750A9E
:103B330001E50BA2E0402C120EFC8A108B11A81099
:103B4300A9111236E4E0687003A3E06960157405F7
:103B5300120ABD1268B0124FEE121FEEE96004792B
:103B63000480AC7405120ABDE0A2E650227406126A
:103B73000ABDE0540370187405120ABDE0540C64C6
:103B83000C600CE0540C640860057510018003752B
:103B930010007405120ABDE05403F8740268700C37
:103BA3001268B0124FEE120AE2023CD4740168703C
:103BB3003AE510A2E05003123CDC7405120ABDA8DA
:103BC30082A9837403120ABDE8F0A3E91242D685E1
:103BD3001882851983123CE6E0C0E07402120ABD24
:103BE300D0E012398D1220D2023CD4E86003023CAB
:103BF300D490035FE0640170108E828F83A3A3A32C
:103C0300A3A3A3E07003023B627422120ABD7402F1
:103C13001242D6741A120ABD123906E510A2E050F8
:103C2300087405120ABD123CDCE50BA2E0506AEEF3
:103C3300240FF582EF125F74C0E07417120ABDD02F
:103C4300E0F0900314124B787003023CD4120EFC84
:103C53008A128B13A812A913741A120ABDE0687092
:103C630003A3E069706B780C120821780A12082DFF
:103C73007808120829A910740C120ABDAC82AD830E
:103C83007421120ABDAA82AB83900314123DE7127A
:103C9300210174071208718038780C120821780A00
:103CA30012082D7808120829900375120660EE2475
:103CB30012F582EF125CA27423120ABDAC82AD83AB
:103CC300740E120ABDAA82AB83121FD6740912089E
:103CD30071742312087102639C1268B012548D121E
:103CE3000AD622E8F0A3E9123CEE22123CF222F0BB
:103CF3008E828F83A3A3A3A3A3A32274F7120376B5
:103D030012188002386374F7120376121886023889
:103D13006374F7120376121892023863C082C08369
:103D230012188C0236D774F71203761218980238D9
:103D33006374F71203767409120ABDE0F508780874
:103D430012082D1218A47401023860C082C08312B5
:103D530018B00236D7C082C0831218B60236D774A1
:103D6300F71203761218BC02386374F7120376EA6B
:103D7300FEEBFF89087401650870147900120D2E9B
:103D8300902500E493FC7900EEFAEFFB120CA402F9
:103D9300386374F412037674F91208EBE9FE8A08A7
:103DA3008B098C0A8D0B7413120ABD124FF2900506
:103DB300A2124B786027EE851882851983F074016F
:103DC300120ABD7808120A7EEAF8EBF97405120AA2
:103DD300BD1239899005A2123DE7122101023984EF
:103DE300FB90034BE0F8A3E0F583888222C082C0F6
:103DF300831218F20236D774F7120376900E8CE012
:103E0300F97E00800B125F60540D64017001190E7E
:103E1300123FF45003E970ED02386374F71203762E
:103E2300900E8DE0F97E00800B125F60548D6481EB
:103E33007001190E123FF45003E970ED02386374F8
:103E4300F2120376890BE975F006A4240CF508E554
:103E5300F012311E8A0CE508250CFAE5093400FB43
:103E63001216D68A0C8B0DAE0CAF0DEE4F6027AC3D
:103E730008AD0979001216161236E4E50BF0EE25AB
:103E830008F8EF3509F98E828F83A3A3A3A3A3A315
:103E9300A3A3A3123906EEFAEFFB024DED74F6125B
:103EA3000376EAFEEBFF120C80900E8BE0F8E9C379
:103EB300984009900345124FF2120C86EE2402F843
:103EC300EF1256029003471254BC900347E004F0EC
:103ED300EEFAEFFB120C8C850882850983E0025A07
:103EE300B8C082C0837900900345800109124FF264
:103EF3008A828B83E582458370F20236D774F71288
:103F03000376EAFEEBFFEE4F6056900345124B78C3
:103F1300604E888289837A007B00EE65827003EFAE
:103F23006583600FAA82AB83123F66E58245836097
:103F33002F80E7900345123F72687002EF698E820B
:103F43008F8370081238FA90034580031263AE1210
:103F53003906EEFAEFFB1220A2EEFAEFFB1216DCA3
:103F6300023863123F6A221242E688828983221250
:103F730042E2EE22C082C083900345800488828996
:103F830083124B78600B8882898312462AEC4D702A
:103F9300EC8A828B83E4F0A3F0E849600688828987
:103FA3008380039003451238730236D774F71203E4
:103FB3007690034580048A828B83123FEF4B602502
:103FC3007E0080010E123FF450ECEE75F006A4FC67
:103FD300ADF0EA2CFCEB3DFDEC2410F582ED124034
:103FE3004470E180047A007B00023863125491EA42
:103FF3002212404DEEC3982274F71203767D00809F
:10400300010D124049EDC3985034ED75F006A4FE3E
:10401300A8F0E8FFEA2EFEEB3FFFEE2410F582EF57
:1040230012404470DCED75F006A4FEE8FFEA2EFAB8
:10403300EB3FFBEA2411F582EB125F744CF002387C
:1040430063125F80692212404D221268BAEB34007A
:10405300F583E0F82274F6120376120DA67A007B3C
:10406300008025EAF8EBF9E875F006A4F8ACF075E2
:10407300F006E9A42C12546612677BA3E412555C84
:10408300F0A31267811268F89024E9122D9D40D3A2
:104093007A007B00801C8A088B0974037808120954
:1040A300A0124F1AA374FEF0A30412533CA3E4120C
:1040B30068F89024F41240F740DC7A007B00801DFE
:1040C3008A088B09740378081209A074D0125BEC78
:1040D300740D12643374FEF0A3041268F89024FA8A
:1040E3001240F740DB9024F3E493900353F0124122
:1040F3000102390FE493F8C3EA98EB9400227CE8B9
:104103007D037A107B009003C2E0F912179C22749E
:10411300F012037674F51208EB8A088B09890A8C6E
:104123000BE9A2E050147508FC7509FFA2E15005E4
:10413300D2E40241D4D2E30241D4124DD97003A395
:10414300E069700579000242A1AC0A7902AA08ABC2
:1041530009120D82E960EDE50AF50C780C12082DC1
:1041630079027CFE7DFFAA08AB09124B5412087139
:10417300E9600302429FE50AC2E5F50A9003B5E050
:104183007051E50AA2E6404B7403120ABDAC82AD3E
:1041930083AA08AB09120B24E970321244758A0C06
:1041A3008B0DA80CA90DE8FEE9FFE8496025EE2474
:1041B300020A0AEF122AAD601AEE2402FCEF340061
:1041C300FD7403120ABDAA82AB83121F16E50AD23D
:1041D300E5F50A900348E0F50C900368E0F50EA3BB
:1041E300E0F50F780E1208297D017C00900348E06A
:1041F300F9AA0EAB0F120D3A7402120871E9F89086
:104203000348E004F0E8600302429FE50AA2E55098
:1042130004740E80027406C0E07401120ABDD0E07B
:104223001258CE8A0E8B0FAE0EAF0FEE4F6069128F
:1042330042BF1242D6888289837401F07478550A8A
:10424300A31268C0E50C1268C0A3E508F0E50912E3
:1042530042AEE4F0E50AA2E5500F7403120ABDACC6
:1042630082AD83E824061242A58E828F83A3A374B2
:10427300FDF0A374FFF0E50B6015902501E493F8BE
:10428300E50BC3985009EE24131258A1E50BF0EE89
:10429300FAEFFB120BC680067910800279C7740B04
:1042A3008049FAE93400FB121F162288828983A30E
:1042B300A3A3A31242BA22125635A322EE24171245
:1042C30058B27401F0120EF6EE241A1258B2EAF044
:1042D300A3EB22F01268B434001242E022F58312F9
:1042E30042E622E0F8A3E0F922740D1208717F0878
:1042F30002059174F61203767A007B10125DBC609E
:10430300089003D47401F08029900643E06401907F
:104313000EE67006E0FC79018004E0FC79037A0084
:104323007B00120CA49024E71243387A007B10120E
:10433300434602390F12433C22E493FC740193FD7C
:10434300227B009003C2E0F91217962274EC120349
:10435300768A088B098C0C8D0D890E7414120ABD94
:10436300124D337416120ABDE0F510A3E0F51112D5
:104373000F6EE960077AFF7BFF024472900EE5E05F
:10438300640260030244657900AA08AB09120D8830
:10439300A90E120D7C8A128B13AE12AF13EE4F705F
:1043A3000302444D8E828F83A3A3A3A3A3E06401DE
:1043B3008E828F83A3A37069124FF28E828F83A3A1
:1043C300A3A3A3A3A3E0541860439024FFE4938E14
:1043D300828F83A3A3A3A3F0EA650C7003EB650D9F
:1043E3006014EA650A7003EB650B600AEA651070F6
:1043F30003EB6511701F7810120829AC0AAD0BAAE4
:104403000CAB0D12106A74021208718008900367D6
:10441300125DA6A3F074FE6A700374FF6B601D80C7
:104423004EA3A3A3E0640360298E828F83A3A3A377
:10443300A3A3E0640470057AFE02437A8E828F831D
:10444300A3A3A3A3A3E0640270089003B4E06402EF
:1044530070101244758B0BEA450B6006AA08AB0972
:10446300800DAA08AB09900349123DE7122101020E
:10447300639C900375124B5A12102E2274F7120389
:1044830076EAFEEBFF120B78E9700AEEFAEFFB1205
:104493000B84E96006EEFAEFFB80047AFE7BFF02F1
:1044A300386374F01203768A0A8B0B8C0E8D0F8996
:1044B30009750800120F6EE97900600302461CAA11
:1044C3000AAB0B120D88A909120D7C8A0C8B0DAE59
:1044D3000CAF0DEE4F60198E828F83A3A3A3A3A30A
:1044E300E0640270559003B4E06402700302461A5C
:1044F300AA0AAB0B90034F123DE7122101120B8A5C
:104503008A0C8B0DA80CA90DE849700302461A8882
:10451300828983A3A3A3A3A3E0A2E0400302461AD4
:10452300750C01A2E150687901AC0AAD0BAA0EAB80
:104533000F120CD4E9706402461A8E828F83A3A3F0
:10454300A3A3A3E064037005750C0280528E828FCF
:1045530083A3A3A3A3A3E06401600302461A900309
:104563007512462A8E828F8312497F8A0C8B0DA87F
:104573000CA90DE84960D19024F8E493FA88828964
:1045830083E0C39A50C2A3E0600302461A80B9884D
:10459300828983A3A3A3A3A3D2E1F0EE4F603A8E53
:1045A300828F83A3A3A3A3A3A3E05418602B75084E
:1045B300018E828F83A3A3120660750CFE750DFF17
:1045C300780C1208297900AC0AAD0BAA0EAB0F12B6
:1045D3000D9A7404120871803E900368E0650E70B2
:1045E30004A3E0650F7014902500E493FCA909AAC5
:1045F3000AAB0B120CA4750801801CA90CAC0AAD04
:104603000BAA0EAB0F120CD4E9700C750801A909A3
:10461300AA0AAB0B120D2EA9080242F1E50C2415D0
:10462300F582E50D1258B51253122274EA1203767D
:1046330074F01208EB8A0C8B0D8C088D097426120A
:104643000ABDE0F514A3E0F5157512069003F51203
:104653004B78602390037512462AAA08AB091210FF
:10466300588A108B11EA4511600D8A828B83A3E06F
:1046730070057900024967E50C241DF50EE50D343C
:1046830000F50F850E82124B64F51388828983A38C
:10469300A3A3E0FA88828983A3A3A3A3E0F9EA246E
:1046A30000FEE439FFAA08AB09120D34850E82859A
:1046B3000F831249A2E029F50BE50AA2E550037521
:1046C300120E7487550A70177418550A6418600F10
:1046D300E50C2417F582E50D125F74651260077906
:1046E30001121EFE808C530A78C3EE94F8EF94FFF8
:1046F300501D7900EEFAEFFB12497160128882892E
:1047030083A3A3A3A3A3A3E054186003024675786D
:10471300081208297D00124995120871E9F87403FB
:10472300687003024675E860030247E07418550A8F
:104733007003024895E50AD2E0F50AA2E45004D2D8
:10474300E1F50AA90A124FEB124971605388828975
:1047530083A3A3A3A3A3A3E05418604488828983FB
:10476300A3A3A3A3A3E064017036E5104511603051
:1047730090037512462A8882898312497F8A0E8B99
:104783000FA80EA90FE849601788828983A3E06008
:104793000F851082851183A3125AC35003024675F5
:1047A300E50AF50E780E12082D124988120871E9F0
:1047B300702B7C007D0085148285158374FFF0A324
:1047C300F0850C82850D83A3A3A3A3A3A3A3A3E0D6
:1047D300600312461FA90B124FEB1218AA8514820D
:1047E300851583E0F47003A3E0F460399003B4E02B
:1047F30064027003024675124D24E0FAA3E0123DF1
:10480300E3122101EA65087003EB650960030246C0
:1048130075EEFAEF123DE3122101851482851583AB
:10482300EAF0A3EBF078081208297D0112499512EA
:104833000871A90AEEFAEFFB120D888A088B09A802
:1048430008A909900368E0687003A3E069600302A4
:104853004958EEFAEFFB120B8A8A088B09A808A9BC
:1048630009E849606E88828983A3A3A3A3E0640156
:10487300600D88828983A3A3A3A3E0640270548597
:104883001882851983AC82AD83EEFAEFFB120B24F9
:104893008055900361E0600FE50AF50E780E12086B
:1048A3002D124988120871E50AF50E780E12082DAB
:1048B30079027CFE7DFFEEFAEFFB124B5412087176
:1048C300E960030247E085148285158374FFF0A332
:1048D300024827120EF6EAFCEBFD85188285198340
:1048E300AA82AB83121F16850C82850D83A3A3A313
:1048F300A3A3A3A3A3E06401700F12461F740812BD
:104903000ABDAA82AB83121F16124B2E12573A44CA
:1049130030F508780812082D7401120ABD85820843
:104923008583097808120829740B120ABD85820849
:104933008583097808120829E513F5087808120811
:104943002D7900EEFCEFFD124FEB120CCE74061224
:104953000871024675124B2E1258A41249A2E50B98
:10496300F0120F0E74101208717F0E020591120DD2
:104973007C8A0E8B0FA80EA90FE84922A3A3125419
:1049830091121058227901AC08AD09125486124BCA
:104993005422AC0BA913125486120D3A740222123C
:1049A3005742A3A3A3A32274F012037674F0120850
:1049B300EB8A0C8B0DECFAEDFB750F089003F512E7
:1049C3004B786014125ABC8A828B83E582458360DC
:1049D30007A3E07003024B29124B2E3400124B64E1
:1049E300F50B88828983124B37E0FBEC2400FEE44D
:1049F3003BFF88828983A3A3124B37A3A3E0FBEC7D
:104A0300F508E43BF50988828983A3A3A3A3A3A3A1
:104A1300A3E0F50EE50AA2E45003750F10A2E550DA
:104A2300067408250FF50F748F550A700FE50C24D3
:104A330017F582E50D125F74650F60087901121E88
:104A4300FE024B29530A707800E50AA2E4502212B1
:104A53004B2E125F742408FCA3E03400FD7408128B
:104A63000ABDAA82AB83121F167808E50AC2E4F5D1
:104A73000AE50AA2E55028124B2E125F7428F8A308
:104A8300E03400F9E82408FCE93400FD8518828548
:104A93001983AA82AB83121F16E50AC2E5F50AAC95
:104AA3000EA90BEEFAEFFB120D40E9F874036860F0
:104AB30075900368E06E7003A3E06F605EE8705466
:104AC300E50AF50F780F12082D124B45120871E90C
:104AD3007054780A12082D7401120ABD85820C8560
:104AE300830D780C120829740B120ABD85820C857C
:104AF300830D780C120829E50BF50A780A12082DA4
:104B0300A90EAC08AD09EEFAEFFB120CCE74061237
:104B130008718012740468700D80B7780A12082D2A
:104B2300124B4512087174100242EEE50C241DF578
:104B330082E50D22A3A3A3E0FC88828983A3A3A318
:104B4300A3227901124D2B1258B5124B5A124B5412
:104B530022120CF8740122E0FCA3E0FDAA08AB09C1
:104B630022F583123F6AA3E0F50A88828983A3A30F
:104B7300E0229003391254ED2274E812037674F59F
:104B83001208EBEAFEEBFF8C088D098914742312DB
:104B93000ABDE0F50F7424120ABDE0F512A3E0F597
:104BA300137426120ABDE0F516A3E0F51774281254
:104BB3000ABDE0F50EA90F120D468A108B11740180
:104BC300120ABD7408F0E50EA2E450037410F0E578
:104BD3000EA2E55004E02408F0851882851983AA03
:104BE30082AB83120F568A0C8B0DEA450D700302BC
:104BF3004D0BEA2417F582EB124D1D120EF6E50C50
:104C0300241AF582E50D1258A41238737403120A9C
:104C1300BDAC82AD83AA10AB11120B24E9601D1247
:104C23004D157403120ABDA882A983E50C2418F557
:104C330082E50D1258A4E8F0A3E98024E50EA2E46E
:104C4300501FE5106E7003E5116F7015124D15E5D9
:104C53000C2418F582E50D1258A4E512F0A3E51310
:104C6300F0124D24124D33850A82F5837402F0A3AA
:104C7300E50E124D3BE50FF0EE850A82850B83A30B
:104C8300A3A3F0EF850A82850B83A3A3A3A3124DED
:104C93003BA3A3A3E508F0E509850A82850B83A35B
:104CA300A3A3A3A3A3F0AA10AB11120D34E92514F7
:104CB300850A82850B83A3A3A3A3A3A3A3F07508EB
:104CC30000E50EA2E45011AC12AD13E50A2408FA74
:104CD300E50B1242A7750808E50EA2E55014AC16C1
:104CE300AD17E50A2508F8E50B3400F9E8240812A6
:104CF30042A5850C82850D83A3A3E510F0A3E511DE
:104D0300F0AA0CAB0D120BC6740B1208717F1002C4
:104D13000591E50C2416F582E50D1258B57401F0E2
:104D230022124D2B1258B522E50C1268BBE50D2259
:104D3300E0F50AA3E0F50B22F0850A82850B83A335
:104D4300A32274F21203768A088B09ECFEEDFF8925
:104D53000A7900124DD97003A3E0697004790180C8
:104D630073750B01900368E065087004A3E065099F
:104D7300601F750B00780B12082DA90AEEFCEFFDDE
:104D8300AA08AB09120FAA7401120871E9F50B8086
:104D9300417900EEFAEFFB120D7CEA4B602B8A821D
:104DA3008B83A3A3A3A3A3A3E05418601C7508FEDD
:104DB3007509FF78081208298A828B83A3A3120638
:104DC300601266D012087180097901EEFAEFFB12C6
:104DD3000C56A90B8014120D888A0C8B0DA80CA9F4
:104DE3000D900368E068221208717F060205917432
:104DF300F412037675081875090C7A101263D88BB0
:104E03000BEA450B7003124101900353E014F07059
:104E13000C9024F3E493900353F0120D947E007FDF
:104E230000806C850882850983A3A3A3A3E060594E
:104E3300F46056E5082404F582E509125DA0704983
:104E4300850882850983A3A3A3A3A3E06403701940
:104E5300790285088285098312462A850882850995
:104E630083A3A3124FF2120CD4850882850983A36E
:104E7300A3A3A3A3E064016010850882850983745A
:104E8300FEF0A304124F4CE4F01232C41231169018
:104E930024ED126534408C7E007F008039120E9C15
:104EA3008E088F09740378081209A074902508FCF2
:104EB300740D3509FD7AE07B0C120E8AEA4B70DD26
:104EC3008E088F09740378081209A0124F1A12670B
:104ED3007BE4F01232C49024F4E493F8C3EE98EF29
:104EE3009400501B8E088F09740378081209A012CE
:104EF3004F22E82407F582E9125DA070D680A17ED7
:104F0300007F00800A124F2D600214F01232C41287
:104F1300653140F1023AB0124F22888289832274AC
:104F2300902508F8740D3509F922EEF8EFF9E875C4
:104F3300F006A4F8AAF075F006E9A42AF97430285B
:104F4300F582740D39F583E022124F53A3A3A322F4
:104F5300F0850882850983A3A32274F7120376746C
:104F6300E11208EBECFEEDFF750800EE4F60728A6C
:104F7300828B83E0241C125DD1124B7860638A829A
:104F83008B83124FF2851882851983AC82AD83EA35
:104F9300241BF582EB125CA2EA241CF582EB124F70
:104FA300EE120EDE740B120ABD124FF67003A3E06D
:104FB30069702E7402120ABDE064017024741D121C
:104FC3000ABD123DE7E064017017741D120ABD1299
:104FD3003DE9A3A3E0F88E828F83E0687003750830
:104FE30001A908741F023860124D2B3400F5831297
:104FF300549122122A6BE0682274F4120376E9704A
:1050030024790090034D123DE71221018A0A8B0B8C
:10501300AE0AAF0B74FE6E700374FF6F701A9024A8
:10502300FBE4936013790190034D123DE7122101D4
:105033008A0A8B0BAE0AAF0B120F1A02342C74F6CA
:1050430012037674F31208EB12162E8A088B09AE3C
:1050530008AF09900368E06E7003A3E06F60E91284
:105063000F02EA6E7002EB6F60DEEEFAEFFB120FD7
:105073006EE970D4EE4F60D0851882851983E4F011
:1050830004120ABDEEF0A3EF1250A4E970BA74FE45
:105093006E700374FF6F60B0EEFAEFFB740D0239AC
:1050A3000C123991120B3C22C082C083120F1A02D8
:1050B30036D77F0A02059174F2120376EAFEEBFFFC
:1050C3008C0A8D0B8908740E120ABDE0F50974FC75
:1050D3006E700374FF6F70057900024DED79001255
:1050E3000D888A0C8B0DAE0CAF0D900368E06E70CB
:1050F30003A3E06F7006E509A2E650DCA909126577
:10510300BE706179007AFE7BFF1265BE705674181B
:10511300550970030251F1780079008003122C6560
:105123009024ED122C5C40030251F1E8FAE9FBEA0A
:1051330075F007A4FAACF075F007EBA42CFB741E12
:105143002AF582740C3BF583E0541870D0E875F0AF
:1051530007A4F8AAF075F007E9A42AF9741828F847
:10516300740C39F988828983A3A3A3A3A3A3E0546E
:105173001860097418550970030250DB888289830B
:10518300EEF0A3EFF074FE650A700474FF650B6024
:105193000312531888828983A3A3A3A3A3A3E509B6
:1051A300F0A2E0500D88828983A3A3A3A3A3A3D273
:1051B300E2F07401650888828983A3A3A3A3A37083
:1051C30038740112533CE0541860289024FFE49390
:1051D30088828983A3A3A3A31253061210588B0DAD
:1051E300EA450D60030250DB7800790080397902CB
:1051F3000250DD900367E080D7E064017003025042
:10520300DB88828983A3A3A3A3A3A3E05418600725
:105213009024FFE4938004900366E01242AEE50815
:10522300F00250DB122C659024F5E493FAC3E89A5C
:10523300E9940040030250DB7A007B00804BEAFCD8
:10524300EBFDEC75F007A4FCAEF075F007EDA42EB2
:10525300FD741A2CF582740C3DF5831258BDE8FCDD
:10526300E9FDEC75F017A4FC85F00975F017EDA4C2
:105273002509FD74A82CF582740A3DF583E06E7050
:1052830003A3E06F609E1231999024ED1231264002
:10529300AD124338EC6A7002ED6B7088E875F01755
:1052A300A4F8AAF075F017E9A42AF974A828FE74E3
:1052B3000A39FF7C177D007900EEFAEFFB12161610
:1052C3008E828F8312531E9003751252F8A3A3A3E9
:1052D300A3A3A3E8F0A3E91252FE7401F0EE240E97
:1052E3001258A17401125326120225EE240D1258EE
:1052F300A1E80252231236F5A3A322F0EE240F12E3
:1053030058B222F012530FAA0AAB0B22900375E096
:10531300FCA3E0FD2288828983A3A3E50AF0A3E529
:105323000BF022F012532B229024F8E4932401F87B
:10533300E43400F97A027B00221242BAA32274ED0C
:105343001203768A088B09890E12546F400579057A
:1053530002543D1218F8AA08AB091255419024E9EA
:10536300125440650A7003E9650B70077AFE7BFFF0
:105373001255419024E9E4125448E50A98E50B9943
:10538300400302543B12544C6012E50A75F006A424
:10539300F875F006E50B1254971216DCE50E60184B
:1053A300E50A75F006A4F8AAF075F006E50B1254A9
:1053B300C3701A790102543DE50A75F006A4F8AAF0
:1053C300F075F006E50B1254A4E4F0A3F0E50A75BA
:1053D300F006A4F8AAF075F006E50B125464A312C4
:1053E300575088828983A3AA82AB831254B28A82DC
:1053F3008B83E0603F12544C603A8E108F1175120C
:10540300007810120825E50EC333FCE433FDE50AEA
:1054130075F006A4F50AA8F075F006E50BA428F5C7
:105423000B7434250AF582740D350B124FF01231CB
:10543300371208717900800279070265D4122DBEF4
:10544300E8229004F1125F5B22E50A75F006A4F8E6
:10545300AAF075F006E50B12549FF8A3E0F9E849AA
:1054630022A42A1255F888828983A322ECFEEDFF39
:105473009024F6E493F8E9C39822F5831254911229
:1054830016DC22E50C1268BBE50D3400F583E0FA67
:10549300A3E0FB2212549FFAA3E0FB221254A4E0E0
:1054A30022A42AF9743428F582740D39F58322E590
:1054B3000EF0900EE71254BC22E088828983F0221A
:1054C30012561CF50CE93400F50DE50EC333FAE46E
:1054D30033FB1216D6850C82850D83EAF0A3EBF01D
:1054E300850C82850D831254ED221242E6E849228F
:1054F30074F4120376ECFEEDFF740C120ABD12383D
:10550300FA88088909125541AC0AAD0BECF8EDF99C
:105513009024E91255495021E875F006A4F8AAF041
:1055230075F006E9125464E08E828F8312555C1283
:105533005552123906790080027904023AB0120DED
:105543000A8A0A8B0B2212312FC3EC9AED9B22128B
:1055530042E2850882850983221256312274F612AB
:1055630003767E007F008028EEF8EFF9E875F006F9
:10557300A4F8ACF075F006E9A42CF9743228F5828E
:10558300740D1261DF6A7003A3E06B60571232C4BB
:1055930012653140D312652C7002E96F704674FEB8
:1055A3006A700374FF6B703C7E007F0080031232CD
:1055B300C4126531502E124F2D70F3EEF8EFF9E857
:1055C30075F006A4F81255EE125623601712560A08
:1055D300F8E9125602888212547D85088285098370
:1055E300E4F0A3F0EEFAEFFB02390F75F006E912CF
:1055F30055F622A42AF9743028F8740D39F92234A7
:1056030000F98808890922EEF8EFF9E875F006A495
:10561300F875F006E912561C221255F6E824042206
:10562300A3A374FE12562E1254ED22F0A3041256B5
:105633003522F088828983A3A3A3A32274F61203DD
:1056430076EA241DF582EB12573AF9604BEA241DE2
:10565300F582EB125F742402FCA3E03400FD1254C4
:1056630073400302572D780080298C828D83E0F5E7
:1056730008A3E0FFE5082400E43FF509E833FEE46E
:1056830033FF74782EF582740D3FF5831257501251
:10569300573008E8C39940D28A828B83A3A3A3A37C
:1056A300A3A3A3A3A312462A900368E06C7003A3E9
:1056B300E06D700F7C787D0D1229D4124FEE120C21
:1056C300FE8067EA2411F582EB125F74605CFC7460
:1056D300FF2CF0750801780812082D7508787509F4
:1056E3000D7808120829E9F508780812082DEA242C
:1056F30012F582EB125F74F508780812082DEA247C
:1057030015F582EB1258A4120660ECF91229D41293
:1057130046278A828B83A3A3A3A3A3A3A3A3A31232
:105723004FF2120D16740712087102390FEC24029E
:105733000C0CED3400FD221258B5125742E022E062
:10574300F8A3E0F5838882A32288828983E508F0A1
:10575300A3E509F02274EA12037674FD1208EB8ABA
:10576300148B158C0E8D0F890D7419120ABD1258E6
:10577300BD741B120ABDE0F511741C120ABDE0F5DD
:105783000C741D120ABD124D33741F120ABDE0F5CD
:10579300106008E50CC333240480027402C0E07473
:1057A30001120ABDD0E01258CE8A088B09EA4509D6
:1057B30070030258998A828B83A3A3E514F0A3E5AF
:1057C300151263C7E50EF0A3E50FF0EA2413F58283
:1057D300EB1258A4E50DF0EA2414F582EB1258A459
:1057E300E511F0EA2417F582EB125F74640170404F
:1057F300120EFC8A0E8B0FA80EA90F85088285094D
:1058030083A3A3A3A3E0687003A3E0696022EE4F20
:105813006011E508241AF582E5091258A4EEF0A3F5
:10582300EF800CE5082417F582E5091258A4E4F08B
:105833001258A81258BD8E828F837405F0A3E51009
:105843007004E50C80487401250C1258C77A008057
:1058530028850A82850B83E01258C3850A82850B4B
:1058630083A3E08E828F83F0E50A2402F50AE50B19
:105873003400F50BA30EAF830AEAC3950C40D21292
:105883000EFCEA1258C3120EFCEB8E828F83F0AA31
:1058930008AB09120BC67403024969EE240CF582A6
:1058A300EF1258B5221229E51258B522EE240BF552
:1058B30082EF3400F58322900334E0FEA3E0FF225D
:1058C3008E828F83F0A3AE82AF8322123991120F9F
:1058D3005622C082C083E9C333FCE433FDEA2CFAC9
:1058E300EB3DFBEA24FEF582EB34FF124FF0023668
:1058F300D774F212037689098A0A12546F40047925
:1059030000804075080080020508E508C39509502A
:105913002AE508C333F8E433F9EE28F582EF39F5C5
:1059230083C082C083120EFC8A0C8B0DD083D0827D
:10593300E0650C7004A3E0650D70CDE50A650870A1
:10594300BE7901024DED74F012037674F31208EB85
:105953008A088B098C0A8D0B890C750D00120F6E4A
:10596300E979006003025A4BAA08AB09120D88A912
:105973000C120D7C8A0E8B0FAE0EAF0FEE4F700321
:10598300025A498E828F83A3A3A3A3A3A3E0A2E217
:105993004003025A49120EFCEA650A7003EB650BD9
:1059A3007011780D12082DE4F50EF50F780E12081C
:1059B300298044AA0AAB0B120B7EE9640170688547
:1059C30018828519837404F07401120ABD12531EE0
:1059D300851882851983AA82AB83120B3CE9640183
:1059E3007045750D01780D12082DE4F50EF50F784D
:1059F3000E120829750D00780D12082D780D120866
:105A03002D7408120ABD85820E85830F780E120845
:105A130029902501E493F9AC0AAD0BAA08AB09124E
:105A23000D1674071208718E828F83A3A3A3A3A3F9
:105A3300A3E0A2E1400D8E828F83A3A3A3A3A3A31C
:105A4300C2E2F0750D01A90D0242EC74F612037661
:105A5300E9FE7900120D88EEF9120D7C8A088B0994
:105A6300A808A909E8496006126902F980027904C5
:105A730002390F74F61203767E0790035CE07034EC
:105A8300125ABC8A088B09A808A909E8496025901D
:105A93000361E0640188828983A3A3700B125AC354
:105AA300888289835001A3A3E0F9121076E9FEEE00
:105AB30070027E07EEF902390F12530F12105822AB
:105AC300E0FA88828983A3E0C39A2274EE120376F4
:105AD300EAFEEBFF890A8C0C8D0B7412120ABD12BD
:105AE30036E9125B981254765051890E750F007483
:105AF30003780E1209A07496250EF582740D350FE6
:105B0300F583E0F8E50CC398502DE50B602475117F
:105B130000740378101209A074902510F8740D35E1
:105B230011F988828983A3A3A3A3A3A3E50C125B22
